{
  "contractName": "Forecast",
  "abi": [
    {
      "constant": true,
      "inputs": [],
      "name": "creator",
      "outputs": [
        {
          "name": "",
          "type": "address"
        }
      ],
      "payable": false,
      "stateMutability": "view",
      "type": "function"
    },
    {
      "constant": true,
      "inputs": [],
      "name": "MAX_REWARD",
      "outputs": [
        {
          "name": "",
          "type": "uint256"
        }
      ],
      "payable": false,
      "stateMutability": "view",
      "type": "function"
    },
    {
      "constant": true,
      "inputs": [],
      "name": "judgesAddress",
      "outputs": [
        {
          "name": "",
          "type": "address"
        }
      ],
      "payable": false,
      "stateMutability": "view",
      "type": "function"
    },
    {
      "constant": true,
      "inputs": [],
      "name": "REWARD_FUNDS",
      "outputs": [
        {
          "name": "",
          "type": "uint256"
        }
      ],
      "payable": false,
      "stateMutability": "view",
      "type": "function"
    },
    {
      "constant": true,
      "inputs": [],
      "name": "WINNING_OPTION_ID",
      "outputs": [
        {
          "name": "",
          "type": "uint256"
        }
      ],
      "payable": false,
      "stateMutability": "view",
      "type": "function"
    },
    {
      "constant": true,
      "inputs": [],
      "name": "endTime",
      "outputs": [
        {
          "name": "",
          "type": "uint256"
        }
      ],
      "payable": false,
      "stateMutability": "view",
      "type": "function"
    },
    {
      "constant": true,
      "inputs": [
        {
          "name": "",
          "type": "uint256"
        }
      ],
      "name": "options",
      "outputs": [
        {
          "name": "descripted",
          "type": "bool"
        },
        {
          "name": "text",
          "type": "string"
        }
      ],
      "payable": false,
      "stateMutability": "view",
      "type": "function"
    },
    {
      "constant": true,
      "inputs": [],
      "name": "TITLE",
      "outputs": [
        {
          "name": "",
          "type": "string"
        }
      ],
      "payable": false,
      "stateMutability": "view",
      "type": "function"
    },
    {
      "constant": true,
      "inputs": [],
      "name": "JudgementApplied",
      "outputs": [
        {
          "name": "",
          "type": "bool"
        }
      ],
      "payable": false,
      "stateMutability": "view",
      "type": "function"
    },
    {
      "constant": true,
      "inputs": [],
      "name": "beginTime",
      "outputs": [
        {
          "name": "",
          "type": "uint256"
        }
      ],
      "payable": false,
      "stateMutability": "view",
      "type": "function"
    },
    {
      "constant": true,
      "inputs": [],
      "name": "EXISTS",
      "outputs": [
        {
          "name": "",
          "type": "bool"
        }
      ],
      "payable": false,
      "stateMutability": "view",
      "type": "function"
    },
    {
      "constant": true,
      "inputs": [],
      "name": "WINNING_OPTION",
      "outputs": [
        {
          "name": "",
          "type": "string"
        }
      ],
      "payable": false,
      "stateMutability": "view",
      "type": "function"
    },
    {
      "constant": true,
      "inputs": [
        {
          "name": "",
          "type": "address"
        }
      ],
      "name": "users",
      "outputs": [
        {
          "name": "already",
          "type": "bool"
        },
        {
          "name": "email",
          "type": "string"
        },
        {
          "name": "choice",
          "type": "uint256"
        }
      ],
      "payable": false,
      "stateMutability": "view",
      "type": "function"
    },
    {
      "constant": true,
      "inputs": [],
      "name": "FINISHED",
      "outputs": [
        {
          "name": "",
          "type": "bool"
        }
      ],
      "payable": false,
      "stateMutability": "view",
      "type": "function"
    },
    {
      "constant": true,
      "inputs": [],
      "name": "REWARD",
      "outputs": [
        {
          "name": "",
          "type": "uint256"
        }
      ],
      "payable": false,
      "stateMutability": "view",
      "type": "function"
    },
    {
      "constant": true,
      "inputs": [
        {
          "name": "",
          "type": "uint256"
        }
      ],
      "name": "PARTICIPANTS",
      "outputs": [
        {
          "name": "",
          "type": "address"
        }
      ],
      "payable": false,
      "stateMutability": "view",
      "type": "function"
    },
    {
      "constant": true,
      "inputs": [],
      "name": "master",
      "outputs": [
        {
          "name": "",
          "type": "address"
        }
      ],
      "payable": false,
      "stateMutability": "view",
      "type": "function"
    },
    {
      "inputs": [
        {
          "name": "_creator",
          "type": "address"
        },
        {
          "name": "_title",
          "type": "string"
        },
        {
          "name": "duration",
          "type": "uint256"
        },
        {
          "name": "_reward",
          "type": "uint256"
        }
      ],
      "payable": true,
      "stateMutability": "payable",
      "type": "constructor"
    },
    {
      "anonymous": false,
      "inputs": [
        {
          "indexed": false,
          "name": "title",
          "type": "string"
        },
        {
          "indexed": false,
          "name": "creator",
          "type": "address"
        },
        {
          "indexed": false,
          "name": "timestamp",
          "type": "uint256"
        },
        {
          "indexed": false,
          "name": "duration",
          "type": "uint256"
        }
      ],
      "name": "Forecast_Created",
      "type": "event"
    },
    {
      "anonymous": false,
      "inputs": [
        {
          "indexed": false,
          "name": "title",
          "type": "string"
        },
        {
          "indexed": false,
          "name": "no",
          "type": "uint256"
        },
        {
          "indexed": false,
          "name": "text",
          "type": "string"
        }
      ],
      "name": "Option_Assigned",
      "type": "event"
    },
    {
      "anonymous": false,
      "inputs": [
        {
          "indexed": false,
          "name": "title",
          "type": "string"
        },
        {
          "indexed": false,
          "name": "amount",
          "type": "uint256"
        },
        {
          "indexed": false,
          "name": "participants",
          "type": "address[]"
        }
      ],
      "name": "Payout",
      "type": "event"
    },
    {
      "anonymous": false,
      "inputs": [
        {
          "indexed": false,
          "name": "title",
          "type": "string"
        },
        {
          "indexed": false,
          "name": "winningOption",
          "type": "string"
        },
        {
          "indexed": false,
          "name": "timestamp",
          "type": "uint256"
        }
      ],
      "name": "Forecast_Finished",
      "type": "event"
    },
    {
      "constant": false,
      "inputs": [
        {
          "name": "_for",
          "type": "address"
        },
        {
          "name": "_choice",
          "type": "uint256"
        }
      ],
      "name": "throwVote",
      "outputs": [],
      "payable": false,
      "stateMutability": "nonpayable",
      "type": "function"
    },
    {
      "constant": false,
      "inputs": [],
      "name": "finish",
      "outputs": [],
      "payable": false,
      "stateMutability": "nonpayable",
      "type": "function"
    },
    {
      "constant": false,
      "inputs": [
        {
          "name": "_numJudges",
          "type": "uint256"
        },
        {
          "name": "_reward",
          "type": "uint256"
        },
        {
          "name": "_duration",
          "type": "uint256"
        }
      ],
      "name": "createJudgement",
      "outputs": [],
      "payable": false,
      "stateMutability": "nonpayable",
      "type": "function"
    },
    {
      "constant": false,
      "inputs": [],
      "name": "applyJudgement",
      "outputs": [],
      "payable": false,
      "stateMutability": "nonpayable",
      "type": "function"
    },
    {
      "constant": false,
      "inputs": [
        {
          "name": "_choice",
          "type": "uint256"
        }
      ],
      "name": "getOracle",
      "outputs": [],
      "payable": false,
      "stateMutability": "nonpayable",
      "type": "function"
    },
    {
      "constant": false,
      "inputs": [],
      "name": "payout",
      "outputs": [
        {
          "name": "success",
          "type": "bool"
        }
      ],
      "payable": false,
      "stateMutability": "nonpayable",
      "type": "function"
    },
    {
      "constant": false,
      "inputs": [
        {
          "name": "_no",
          "type": "uint256"
        },
        {
          "name": "_text",
          "type": "string"
        }
      ],
      "name": "assignDescription",
      "outputs": [],
      "payable": false,
      "stateMutability": "nonpayable",
      "type": "function"
    }
  ],
  "bytecode": "0x608060405260016000806101000a81548160ff02191690831515021790555060405162003ed238038062003ed2833981018060405281019080805190602001909291908051820192919060200180519060200190929190805190602001909291905050506200007d3362000313640100000000026401000000009004565b15156200008957600080fd5b60003411151562000128576040517f08c379a00000000000000000000000000000000000000000000000000000000081526004018080602001828103825260238152602001807f43726561746f7220697320746f2066756c6c66696c6c2072657761726420667581526020017f6e6473000000000000000000000000000000000000000000000000000000000081525060400191505060405180910390fd5b42600281905550816002540160038190555083600b60006101000a81548173ffffffffffffffffffffffffffffffffffffffff021916908373ffffffffffffffffffffffffffffffffffffffff16021790555033600c60006101000a81548173ffffffffffffffffffffffffffffffffffffffff021916908373ffffffffffffffffffffffffffffffffffffffff1602179055508260019080519060200190620001d492919062000326565b5080600681905550346004819055507fc16f8f3f52cdecb3b19faa29ca8b1a39db200aa089823bcfb881d14ef7c07d1e6001600b60009054906101000a900473ffffffffffffffffffffffffffffffffffffffff166002548560405180806020018573ffffffffffffffffffffffffffffffffffffffff1673ffffffffffffffffffffffffffffffffffffffff168152602001848152602001838152602001828103825286818154600181600116156101000203166002900481526020019150805460018160011615610100020316600290048015620002f85780601f10620002cc57610100808354040283529160200191620002f8565b820191906000526020600020905b815481529060010190602001808311620002da57829003601f168201915b50509550505050505060405180910390a150505050620003d5565b600080823b905060008111915050919050565b828054600181600116156101000203166002900490600052602060002090601f016020900481019282601f106200036957805160ff19168380011785556200039a565b828001600101855582156200039a579182015b82811115620003995782518255916020019190600101906200037c565b5b509050620003a99190620003ad565b5090565b620003d291905b80821115620003ce576000816000905550600101620003b4565b5090565b90565b613aed80620003e56000396000f30060806040526004361062000157576000357c0100000000000000000000000000000000000000000000000000000000900463ffffffff16806302d05d3f146200015c5780630e1505e014620001b657806310a9de6014620001e45780631720781114620002145780631de67fb7146200026e578063294f7b96146200029c5780633197cbb614620002ca5780633c72b99414620002f8578063409e2205146200031257806356d9e7c414620003c957806363bd1d4a146200040d5780637ef83804146200043f578063824b881814620004d557806388149fb914620005075780639005c74914620005355780639f68989c1462000567578063a87430ba14620005fd578063b54e5e8f14620006d1578063ca91a7741462000703578063cab34c081462000779578063d56b288914620007a7578063d882d58d14620007c1578063df7b0d3a1462000831578063ee97f7f31462000881575b600080fd5b3480156200016957600080fd5b5062000174620008db565b604051808273ffffffffffffffffffffffffffffffffffffffff1673ffffffffffffffffffffffffffffffffffffffff16815260200191505060405180910390f35b348015620001c357600080fd5b50620001ce62000901565b6040518082815260200191505060405180910390f35b348015620001f157600080fd5b50620002126004803603810190808035906020019092919050505062000907565b005b3480156200022157600080fd5b506200022c62000b49565b604051808273ffffffffffffffffffffffffffffffffffffffff1673ffffffffffffffffffffffffffffffffffffffff16815260200191505060405180910390f35b3480156200027b57600080fd5b506200028662000b6f565b6040518082815260200191505060405180910390f35b348015620002a957600080fd5b50620002b462000b75565b6040518082815260200191505060405180910390f35b348015620002d757600080fd5b50620002e262000b7b565b6040518082815260200191505060405180910390f35b3480156200030557600080fd5b506200031062000b81565b005b3480156200031f57600080fd5b50620003406004803603810190808035906020019092919050505062000ead565b604051808315151515815260200180602001828103825283818151815260200191508051906020019080838360005b838110156200038c5780820151818401526020810190506200036f565b50505050905090810190601f168015620003ba5780820380516001836020036101000a031916815260200191505b50935050505060405180910390f35b348015620003d657600080fd5b506200040b60048036038101908080359060200190929190803590602001909291908035906020019092919050505062000f7a565b005b3480156200041a57600080fd5b506200042562001304565b604051808215151515815260200191505060405180910390f35b3480156200044c57600080fd5b506200045762001756565b6040518080602001828103825283818151815260200191508051906020019080838360005b83811015620004995780820151818401526020810190506200047c565b50505050905090810190601f168015620004c75780820380516001836020036101000a031916815260200191505b509250505060405180910390f35b348015620004e257600080fd5b50620004ed620017f8565b604051808215151515815260200191505060405180910390f35b3480156200051457600080fd5b506200051f6200180b565b6040518082815260200191505060405180910390f35b3480156200054257600080fd5b506200054d62001811565b604051808215151515815260200191505060405180910390f35b3480156200057457600080fd5b506200057f62001823565b6040518080602001828103825283818151815260200191508051906020019080838360005b83811015620005c1578082015181840152602081019050620005a4565b50505050905090810190601f168015620005ef5780820380516001836020036101000a031916815260200191505b509250505060405180910390f35b3480156200060a57600080fd5b5062000641600480360381019080803573ffffffffffffffffffffffffffffffffffffffff169060200190929190505050620018c5565b604051808415151515815260200180602001838152602001828103825284818151815260200191508051906020019080838360005b838110156200069357808201518184015260208101905062000676565b50505050905090810190601f168015620006c15780820380516001836020036101000a031916815260200191505b5094505050505060405180910390f35b348015620006de57600080fd5b50620006e962001998565b604051808215151515815260200191505060405180910390f35b3480156200071057600080fd5b506200077760048036038101908080359060200190929190803590602001908201803590602001908080601f0160208091040260200160405190810160405280939291908181526020018383808284378201915050505050509192919290505050620019ab565b005b3480156200078657600080fd5b506200079162001ca1565b6040518082815260200191505060405180910390f35b348015620007b457600080fd5b50620007bf62001ca7565b005b348015620007ce57600080fd5b50620007ef6004803603810190808035906020019092919050505062001d8a565b604051808273ffffffffffffffffffffffffffffffffffffffff1673ffffffffffffffffffffffffffffffffffffffff16815260200191505060405180910390f35b3480156200083e57600080fd5b506200087f600480360381019080803573ffffffffffffffffffffffffffffffffffffffff1690602001909291908035906020019092919050505062001dc9565b005b3480156200088e57600080fd5b506200089962002219565b604051808273ffffffffffffffffffffffffffffffffffffffff1673ffffffffffffffffffffffffffffffffffffffff16815260200191505060405180910390f35b600b60009054906101000a900473ffffffffffffffffffffffffffffffffffffffff1681565b60065481565b3373ffffffffffffffffffffffffffffffffffffffff16600c60009054906101000a900473ffffffffffffffffffffffffffffffffffffffff1673ffffffffffffffffffffffffffffffffffffffff16141515620009cd576040517f08c379a00000000000000000000000000000000000000000000000000000000081526004018080602001828103825260148152602001807f466f72206d61737465722075736573206f6e6c7900000000000000000000000081525060200191505060405180910390fd5b600060019054906101000a900460ff16151562000a78576040517f08c379a00000000000000000000000000000000000000000000000000000000081526004018080602001828103825260318152602001807f4f7261636c652063616e6e6f742062652063616c6c6564207574696c2074686581526020017f20666f726563617374206578706972656400000000000000000000000000000081525060400191505060405180910390fd5b600060029054906101000a900460ff1615151562000b24576040517f08c379a00000000000000000000000000000000000000000000000000000000081526004018080602001828103825260328152602001807f4f7261636c652063616e6e6f742062652063616c6c65643a204a756467656d6581526020017f6e74206170706c69656420616c7265616479000000000000000000000000000081525060400191505060405180910390fd5b806008819055506001600060026101000a81548160ff02191690831515021790555050565b600960009054906101000a900473ffffffffffffffffffffffffffffffffffffffff1681565b60045481565b60085481565b60035481565b60003373ffffffffffffffffffffffffffffffffffffffff16600c60009054906101000a900473ffffffffffffffffffffffffffffffffffffffff1673ffffffffffffffffffffffffffffffffffffffff1614151562000c49576040517f08c379a00000000000000000000000000000000000000000000000000000000081526004018080602001828103825260148152602001807f466f72206d61737465722075736573206f6e6c7900000000000000000000000081525060200191505060405180910390fd5b600960009054906101000a900473ffffffffffffffffffffffffffffffffffffffff1690508073ffffffffffffffffffffffffffffffffffffffff1663b54e5e8f6040518163ffffffff167c0100000000000000000000000000000000000000000000000000000000028152600401602060405180830381600087803b15801562000cd357600080fd5b505af115801562000ce8573d6000803e3d6000fd5b505050506040513d602081101562000cff57600080fd5b8101908080519060200190929190505050151562000dab576040517f08c379a000000000000000000000000000000000000000000000000000000000815260040180806020018281038252603d8152602001807f4a756467656d656e742063616e6e6f74206265206170706c69656420756e746981526020017f6c20636f6e73656e7375732072656163686564206f7220636f7572742000000081525060400191505060405180910390fd5b8073ffffffffffffffffffffffffffffffffffffffff1663294f7b966040518163ffffffff167c0100000000000000000000000000000000000000000000000000000000028152600401602060405180830381600087803b15801562000e1057600080fd5b505af115801562000e25573d6000803e3d6000fd5b505050506040513d602081101562000e3c57600080fd5b8101908080519060200190929190505050600881905550600e600060085481526020019081526020016000206001016007908054600181600116156101000203166002900462000e8e9291906200223f565b506001600060026101000a81548160ff02191690831515021790555050565b600e6020528060005260406000206000915090508060000160009054906101000a900460ff1690806001018054600181600116156101000203166002900480601f01602080910402602001604051908101604052809291908181526020018280546001816001161561010002031660029004801562000f705780601f1062000f445761010080835404028352916020019162000f70565b820191906000526020600020905b81548152906001019060200180831162000f5257829003601f168201915b5050505050905082565b3373ffffffffffffffffffffffffffffffffffffffff16600c60009054906101000a900473ffffffffffffffffffffffffffffffffffffffff1673ffffffffffffffffffffffffffffffffffffffff1614151562001040576040517f08c379a00000000000000000000000000000000000000000000000000000000081526004018080602001828103825260148152602001807f466f72206d61737465722075736573206f6e6c7900000000000000000000000081525060200191505060405180910390fd5b600060019054906101000a900460ff161515620010eb576040517f08c379a00000000000000000000000000000000000000000000000000000000081526004018080602001828103825260368152602001807f4a756467656d656e742063616e6e6f74206265206372656174656420756e746981526020017f6c2074686520666f72656361737420657870697265640000000000000000000081525060400191505060405180910390fd5b600060029054906101000a900460ff1615151562001197576040517f08c379a000000000000000000000000000000000000000000000000000000000815260040180806020018281038252602b8152602001807f54686520666f72656361737420697320616c7265616479206a7564676564206f81526020017f72206f7261636c697a656400000000000000000000000000000000000000000081525060400191505060405180910390fd5b600b60009054906101000a900473ffffffffffffffffffffffffffffffffffffffff166001848484620011c9620022cd565b808673ffffffffffffffffffffffffffffffffffffffff1673ffffffffffffffffffffffffffffffffffffffff16815260200180602001858152602001848152602001838152602001828103825286818154600181600116156101000203166002900481526020019150805460018160011615610100020316600290048015620012975780601f106200126b5761010080835404028352916020019162001297565b820191906000526020600020905b8154815290600101906020018083116200127957829003601f168201915b50509650505050505050604051809103906000f080158015620012be573d6000803e3d6000fd5b50600960006101000a81548173ffffffffffffffffffffffffffffffffffffffff021916908373ffffffffffffffffffffffffffffffffffffffff160217905550505050565b6000803373ffffffffffffffffffffffffffffffffffffffff16600c60009054906101000a900473ffffffffffffffffffffffffffffffffffffffff1673ffffffffffffffffffffffffffffffffffffffff16141515620013cd576040517f08c379a00000000000000000000000000000000000000000000000000000000081526004018080602001828103825260148152602001807f466f72206d61737465722075736573206f6e6c7900000000000000000000000081525060200191505060405180910390fd5b600060029054906101000a900460ff1615156200149e576040517f08c379a00000000000000000000000000000000000000000000000000000000081526004018080602001828103825260558152602001807f5061796f75742063616e2062652070726f63656564656420616674657220726581526020017f7665616c696e67207468652057494e4e494e475f4f5054494f4e5f494420766981526020017f61204f7261636c65206f72204a756467656d656e74000000000000000000000081525060600191505060405180910390fd5b6006546005541115620014b5576006546005819055505b600090505b600e60006008548152602001908152602001600020600201805490508110156200158657600e60006008548152602001908152602001600020600201818154811015156200150457fe5b9060005260206000200160009054906101000a900473ffffffffffffffffffffffffffffffffffffffff1673ffffffffffffffffffffffffffffffffffffffff166108fc6005549081150290604051600060405180830381858888f1935050505015801562001577573d6000803e3d6000fd5b508080600101915050620014ba565b600b60009054906101000a900473ffffffffffffffffffffffffffffffffffffffff1673ffffffffffffffffffffffffffffffffffffffff166108fc3073ffffffffffffffffffffffffffffffffffffffff16319081150290604051600060405180830381858888f1935050505015801562001606573d6000803e3d6000fd5b507f4cb7bf350a870d26c8c87ac21ac979ce443204d51755ee1cdfff3deec0d9e5a66001600554600a604051808060200184815260200180602001838103835286818154600181600116156101000203166002900481526020019150805460018160011615610100020316600290048015620016c65780601f106200169a57610100808354040283529160200191620016c6565b820191906000526020600020905b815481529060010190602001808311620016a857829003601f168201915b505083810382528481815481526020019150805480156200173d57602002820191906000526020600020905b8160009054906101000a900473ffffffffffffffffffffffffffffffffffffffff1673ffffffffffffffffffffffffffffffffffffffff1681526020019060010190808311620016f2575b50509550505050505060405180910390a1600191505090565b60018054600181600116156101000203166002900480601f016020809104026020016040519081016040528092919081815260200182805460018160011615610100020316600290048015620017f05780601f10620017c457610100808354040283529160200191620017f0565b820191906000526020600020905b815481529060010190602001808311620017d257829003601f168201915b505050505081565b600060029054906101000a900460ff1681565b60025481565b6000809054906101000a900460ff1681565b60078054600181600116156101000203166002900480601f016020809104026020016040519081016040528092919081815260200182805460018160011615610100020316600290048015620018bd5780601f106200189157610100808354040283529160200191620018bd565b820191906000526020600020905b8154815290600101906020018083116200189f57829003601f168201915b505050505081565b600d6020528060005260406000206000915090508060000160009054906101000a900460ff1690806001018054600181600116156101000203166002900480601f016020809104026020016040519081016040528092919081815260200182805460018160011615610100020316600290048015620019885780601f106200195c5761010080835404028352916020019162001988565b820191906000526020600020905b8154815290600101906020018083116200196a57829003601f168201915b5050505050908060020154905083565b600060019054906101000a900460ff1681565b3373ffffffffffffffffffffffffffffffffffffffff16600c60009054906101000a900473ffffffffffffffffffffffffffffffffffffffff1673ffffffffffffffffffffffffffffffffffffffff1614151562001a71576040517f08c379a00000000000000000000000000000000000000000000000000000000081526004018080602001828103825260148152602001807f466f72206d61737465722075736573206f6e6c7900000000000000000000000081525060200191505060405180910390fd5b600e600083815260200190815260200160002060000160009054906101000a900460ff1615151562001b0b576040517f08c379a000000000000000000000000000000000000000000000000000000000815260040180806020018281038252601c8152602001807f4f7074696f6e206973206465736372697074656420616c72656164790000000081525060200191505060405180910390fd5b80600e6000848152602001908152602001600020600101908051906020019062001b37929190620022de565b506001600e600084815260200190815260200160002060000160006101000a81548160ff0219169083151502179055507fa4bd90ecd8eca719a5867b5682b448ca871a8a961509aee119fd17f01e8d78016001838360405180806020018481526020018060200183810383528681815460018160011615610100020316600290048152602001915080546001816001161561010002031660029004801562001c235780601f1062001bf75761010080835404028352916020019162001c23565b820191906000526020600020905b81548152906001019060200180831162001c0557829003601f168201915b5050838103825284818151815260200191508051906020019080838360005b8381101562001c5f57808201518184015260208101905062001c42565b50505050905090810190601f16801562001c8d5780820380516001836020036101000a031916815260200191505b509550505050505060405180910390a15050565b60055481565b3373ffffffffffffffffffffffffffffffffffffffff16600c60009054906101000a900473ffffffffffffffffffffffffffffffffffffffff1673ffffffffffffffffffffffffffffffffffffffff1614151562001d6d576040517f08c379a00000000000000000000000000000000000000000000000000000000081526004018080602001828103825260148152602001807f466f72206d61737465722075736573206f6e6c7900000000000000000000000081525060200191505060405180910390fd5b6001600060016101000a81548160ff021916908315150217905550565b600a8181548110151562001d9a57fe5b906000526020600020016000915054906101000a900473ffffffffffffffffffffffffffffffffffffffff1681565b60006003544210801562001dea5750600060019054906101000a900460ff16155b151562001e5f576040517f08c379a000000000000000000000000000000000000000000000000000000000815260040180806020018281038252600c8152602001807f5175697a206973206f766572000000000000000000000000000000000000000081525060200191505060405180910390fd5b826000600d60008373ffffffffffffffffffffffffffffffffffffffff1673ffffffffffffffffffffffffffffffffffffffff16815260200190815260200160002090508060000160009054906101000a900460ff1615151562001f2b576040517f08c379a00000000000000000000000000000000000000000000000000000000081526004018080602001828103825260108152602001807f43616e607420766f74652074776963650000000000000000000000000000000081525060200191505060405180910390fd5b8473ffffffffffffffffffffffffffffffffffffffff16600b60009054906101000a900473ffffffffffffffffffffffffffffffffffffffff1673ffffffffffffffffffffffffffffffffffffffff161415151562001ff2576040517f08c379a000000000000000000000000000000000000000000000000000000000815260040180806020018281038252601a8152602001807f43726561746f722063616e6074207468726f7720766f7465732100000000000081525060200191505060405180910390fd5b600e600085815260200190815260200160002060000160009054906101000a900460ff161515620020b1576040517f08c379a00000000000000000000000000000000000000000000000000000000081526004018080602001828103825260228152602001807f4f7074696f6e206d75737420626520646573637269707465642066697273746c81526020017f792100000000000000000000000000000000000000000000000000000000000081525060400191505060405180910390fd5b600a8590806001815401808255809150509060018203906000526020600020016000909192909190916101000a81548173ffffffffffffffffffffffffffffffffffffffff021916908373ffffffffffffffffffffffffffffffffffffffff16021790555050600a805490506004548115156200212a57fe5b04600581905550600d60008673ffffffffffffffffffffffffffffffffffffffff1673ffffffffffffffffffffffffffffffffffffffff168152602001908152602001600020925060018360000160006101000a81548160ff021916908315150217905550838360020181905550600e60008581526020019081526020016000206002018590806001815401808255809150509060018203906000526020600020016000909192909190916101000a81548173ffffffffffffffffffffffffffffffffffffffff021916908373ffffffffffffffffffffffffffffffffffffffff160217905550505050505050565b600c60009054906101000a900473ffffffffffffffffffffffffffffffffffffffff1681565b828054600181600116156101000203166002900490600052602060002090601f016020900481019282601f106200227a5780548555620022ba565b82800160010185558215620022ba57600052602060002091601f016020900482015b82811115620022b95782548255916001019190600101906200229c565b5b509050620022c9919062002365565b5090565b604051611734806200238e83390190565b828054600181600116156101000203166002900490600052602060002090601f016020900481019282601f106200232157805160ff191683800117855562002352565b8280016001018555821562002352579182015b828111156200235157825182559160200191906001019062002334565b5b50905062002361919062002365565b5090565b6200238a91905b80821115620023865760008160009055506001016200236c565b5090565b90560060806040526040516200173438038062001734833981018060405281019080805190602001909291908051820192919060200180519060200190929190805190602001909291908051906020019092919050505042600281905550806002540160038190555084600a60006101000a81548173ffffffffffffffffffffffffffffffffffffffff021916908373ffffffffffffffffffffffffffffffffffffffff16021790555033600860006101000a81548173ffffffffffffffffffffffffffffffffffffffff021916908373ffffffffffffffffffffffffffffffffffffffff1602179055508360019080519060200190620000ff92919062000297565b5081600481905550826005819055507f3050a4d217fecd1a00be7ce928ed260c6ce042f0e21ab972c827042f1dfc4f75600860009054906101000a900473ffffffffffffffffffffffffffffffffffffffff166001600254600a60009054906101000a900473ffffffffffffffffffffffffffffffffffffffff16600554604051808673ffffffffffffffffffffffffffffffffffffffff1673ffffffffffffffffffffffffffffffffffffffff168152602001806020018581526020018473ffffffffffffffffffffffffffffffffffffffff1673ffffffffffffffffffffffffffffffffffffffff1681526020018381526020018281038252868181546001816001161561010002031660029004815260200191508054600181600116156101000203166002900480156200027a5780601f106200024e576101008083540402835291602001916200027a565b820191906000526020600020905b8154815290600101906020018083116200025c57829003601f168201915b5050965050505050505060405180910390a1505050505062000346565b828054600181600116156101000203166002900490600052602060002090601f016020900481019282601f10620002da57805160ff19168380011785556200030b565b828001600101855582156200030b579182015b828111156200030a578251825591602001919060010190620002ed565b5b5090506200031a91906200031e565b5090565b6200034391905b808211156200033f57600081600090555060010162000325565b5090565b90565b6113de80620003566000396000f3006080604052600436106100c5576000357c0100000000000000000000000000000000000000000000000000000000900463ffffffff16806302d05d3f146100ca578063294f7b96146101215780633197cbb61461014c5780637ef838041461017757806388149fb9146102075780639f68989c14610232578063b54e5e8f146102c2578063ca91a774146102f1578063cab34c0814610364578063d56b28891461038f578063df7b0d3a146103a6578063f3d6279b146103f3578063fa6ac13114610460575b600080fd5b3480156100d657600080fd5b506100df61048b565b604051808273ffffffffffffffffffffffffffffffffffffffff1673ffffffffffffffffffffffffffffffffffffffff16815260200191505060405180910390f35b34801561012d57600080fd5b506101366104b1565b6040518082815260200191505060405180910390f35b34801561015857600080fd5b506101616104b7565b6040518082815260200191505060405180910390f35b34801561018357600080fd5b5061018c6104bd565b6040518080602001828103825283818151815260200191508051906020019080838360005b838110156101cc5780820151818401526020810190506101b1565b50505050905090810190601f1680156101f95780820380516001836020036101000a031916815260200191505b509250505060405180910390f35b34801561021357600080fd5b5061021c61055b565b6040518082815260200191505060405180910390f35b34801561023e57600080fd5b50610247610561565b6040518080602001828103825283818151815260200191508051906020019080838360005b8381101561028757808201518184015260208101905061026c565b50505050905090810190601f1680156102b45780820380516001836020036101000a031916815260200191505b509250505060405180910390f35b3480156102ce57600080fd5b506102d76105ff565b604051808215151515815260200191505060405180910390f35b3480156102fd57600080fd5b5061036260048036038101908080359060200190929190803590602001908201803590602001908080601f0160208091040260200160405190810160405280939291908181526020018383808284378201915050505050509192919290505050610611565b005b34801561037057600080fd5b506103796107cd565b6040518082815260200191505060405180910390f35b34801561039b57600080fd5b506103a46107d3565b005b3480156103b257600080fd5b506103f1600480360381019080803573ffffffffffffffffffffffffffffffffffffffff16906020019092919080359060200190929190505050610dd7565b005b3480156103ff57600080fd5b5061041e60048036038101908080359060200190929190505050611242565b604051808273ffffffffffffffffffffffffffffffffffffffff1673ffffffffffffffffffffffffffffffffffffffff16815260200191505060405180910390f35b34801561046c57600080fd5b50610475611280565b6040518082815260200191505060405180910390f35b600a60009054906101000a900473ffffffffffffffffffffffffffffffffffffffff1681565b60065481565b60035481565b60018054600181600116156101000203166002900480601f0160208091040260200160405190810160405280929190818152602001828054600181600116156101000203166002900480156105535780601f1061052857610100808354040283529160200191610553565b820191906000526020600020905b81548152906001019060200180831161053657829003601f168201915b505050505081565b60025481565b60078054600181600116156101000203166002900480601f0160208091040260200160405190810160405280929190818152602001828054600181600116156101000203166002900480156105f75780601f106105cc576101008083540402835291602001916105f7565b820191906000526020600020905b8154815290600101906020018083116105da57829003601f168201915b505050505081565b6000809054906101000a900460ff1681565b3373ffffffffffffffffffffffffffffffffffffffff16600a60009054906101000a900473ffffffffffffffffffffffffffffffffffffffff1673ffffffffffffffffffffffffffffffffffffffff161415156106d6576040517f08c379a00000000000000000000000000000000000000000000000000000000081526004018080602001828103825260158152602001807f466f722063726561746f722075736573206f6e6c79000000000000000000000081525060200191505060405180910390fd5b600c600083815260200190815260200160002060030160009054906101000a900460ff1615151561076f576040517f08c379a000000000000000000000000000000000000000000000000000000000815260040180806020018281038252601c8152602001807f4f7074696f6e206973206465736372697074656420616c72656164790000000081525060200191505060405180910390fd5b80600c60008481526020019081526020016000206000019080519060200190610799929190611286565b506001600c600084815260200190815260200160002060030160006101000a81548160ff0219169083151502179055505050565b60045481565b6000806000803373ffffffffffffffffffffffffffffffffffffffff16600a60009054906101000a900473ffffffffffffffffffffffffffffffffffffffff1673ffffffffffffffffffffffffffffffffffffffff1614151561089e576040517f08c379a00000000000000000000000000000000000000000000000000000000081526004018080602001828103825260158152602001807f466f722063726561746f722075736573206f6e6c79000000000000000000000081525060200191505060405180910390fd5b60016000806101000a81548160ff021916908315150217905550600091505b6009805490508210156109595783600c600084815260200190815260200160002060020180549050111561090b57600c60008381526020019081526020016000206002018054905093508192505b82600681905550600c600060065481526020019081526020016000206000016007908054600181600116156101000203166002900461094b929190611306565b5081806001019250506108bd565b605f600c600085815260200190815260200160002060010154101515610b9a577fa1cba4d8261c709d7fe5d51630efc03050615dcf8226c0b508662e4bff0f0093600860009054906101000a900473ffffffffffffffffffffffffffffffffffffffff16600c600060065481526020019081526020016000206000014260405180806020018573ffffffffffffffffffffffffffffffffffffffff1673ffffffffffffffffffffffffffffffffffffffff16815260200180602001848152602001838103835260278152602001807f4e6f20436f6e73656e737573206265747765656e20746865206a75646765732081526020017f7265616368656400000000000000000000000000000000000000000000000000815250604001838103825285818154600181600116156101000203166002900481526020019150805460018160011615610100020316600290048015610af55780601f10610aca57610100808354040283529160200191610af5565b820191906000526020600020905b815481529060010190602001808311610ad857829003601f168201915b50509550505050505060405180910390a16040517f08c379a000000000000000000000000000000000000000000000000000000000815260040180806020018281038252602a8152602001807f436f6e73656e737573206e6f7420726561636865642e2044656c65676174696e81526020017f67206f6e2061646d696e0000000000000000000000000000000000000000000081525060400191505060405180910390fd5b7fa1cba4d8261c709d7fe5d51630efc03050615dcf8226c0b508662e4bff0f0093600860009054906101000a900473ffffffffffffffffffffffffffffffffffffffff16600c600060065481526020019081526020016000206000014260405180806020018573ffffffffffffffffffffffffffffffffffffffff1673ffffffffffffffffffffffffffffffffffffffff16815260200180602001848152602001838103835260128152602001807f436f6e73656e73757320726561636865642e0000000000000000000000000000815250602001838103825285818154600181600116156101000203166002900481526020019150805460018160011615610100020316600290048015610cf05780601f10610cc557610100808354040283529160200191610cf0565b820191906000526020600020905b815481529060010190602001808311610cd357829003601f168201915b50509550505050505060405180910390a1600c600060065481526020019081526020016000206002019050600091505b8080549050821015610dd157600c6000600654815260200190815260200160002060020182815481101515610d5157fe5b9060005260206000200160009054906101000a900473ffffffffffffffffffffffffffffffffffffffff1673ffffffffffffffffffffffffffffffffffffffff166108fc6004549081150290604051600060405180830381858888f19350505050158015610dc3573d6000803e3d6000fd5b508180600101925050610d20565b50505050565b6000806000809054906101000a900460ff16158015610df7575060035442105b1515610e0257600080fd5b6000600b60003373ffffffffffffffffffffffffffffffffffffffff1673ffffffffffffffffffffffffffffffffffffffff16815260200190815260200160002090508060000160009054906101000a900460ff16151515610ecc576040517f08c379a00000000000000000000000000000000000000000000000000000000081526004018080602001828103825260108152602001807f43616e607420766f74652074776963650000000000000000000000000000000081525060200191505060405180910390fd5b8473ffffffffffffffffffffffffffffffffffffffff16600a60009054906101000a900473ffffffffffffffffffffffffffffffffffffffff1673ffffffffffffffffffffffffffffffffffffffff1614151515610f92576040517f08c379a000000000000000000000000000000000000000000000000000000000815260040180806020018281038252601a8152602001807f43726561746f722063616e6074207468726f7720766f7465732100000000000081525060200191505060405180910390fd5b600554600980549050101515611010576040517f08c379a000000000000000000000000000000000000000000000000000000000815260040180806020018281038252601a8152602001807f4d6178696d756d206a756467657320636170207265616368656400000000000081525060200191505060405180910390fd5b600c600085815260200190815260200160002060030160009054906101000a900460ff1615156110ce576040517f08c379a00000000000000000000000000000000000000000000000000000000081526004018080602001828103825260228152602001807f4f7074696f6e206d75737420626520646573637269707465642066697273746c81526020017f792100000000000000000000000000000000000000000000000000000000000081525060400191505060405180910390fd5b600b60008673ffffffffffffffffffffffffffffffffffffffff1673ffffffffffffffffffffffffffffffffffffffff1681526020019081526020016000209250600c6000858152602001908152602001600020915060098590806001815401808255809150509060018203906000526020600020016000909192909190916101000a81548173ffffffffffffffffffffffffffffffffffffffff021916908373ffffffffffffffffffffffffffffffffffffffff1602179055505060018360000160006101000a81548160ff021916908315150217905550838360020181905550816002018590806001815401808255809150509060018203906000526020600020016000909192909190916101000a81548173ffffffffffffffffffffffffffffffffffffffff021916908373ffffffffffffffffffffffffffffffffffffffff160217905550506064600980549050836002018054905081151561123157fe5b040282600101819055505050505050565b60098181548110151561125157fe5b906000526020600020016000915054906101000a900473ffffffffffffffffffffffffffffffffffffffff1681565b60055481565b828054600181600116156101000203166002900490600052602060002090601f016020900481019282601f106112c757805160ff19168380011785556112f5565b828001600101855582156112f5579182015b828111156112f45782518255916020019190600101906112d9565b5b509050611302919061138d565b5090565b828054600181600116156101000203166002900490600052602060002090601f016020900481019282601f1061133f578054855561137c565b8280016001018555821561137c57600052602060002091601f016020900482015b8281111561137b578254825591600101919060010190611360565b5b509050611389919061138d565b5090565b6113af91905b808211156113ab576000816000905550600101611393565b5090565b905600a165627a7a72305820c4860ae3dbc5539d57d6f1a852bed403c60b5667de2485c638f3d8defd5072060029a165627a7a7230582087fb10f8ce2fd6479e40e0541c00dc2d9253f45ee66cc7ee5c590267c7f639480029",
  "source": "pragma solidity ^0.4.24;\nimport \"./Judgement.sol\";\ncontract Forecast {\n\n// \nbool public EXISTS = true;\n\n\tbool public FINISHED;\t\t\t\t// Shows whether the quiz is opened/closed;\n\tbool public JudgementApplied;\t\t// Shows if there was a court-round on the forecast;\n\t\n\tstring public TITLE; \n\n    uint256 public beginTime;\t\t\t//\tQuiz start time (block timestamp at the start)\n    uint256 public endTime;\t\t\t\t//\tQuiz finish time (\"beginTime\" + \"duration\" user input in the constructor)\n\n    uint256 public REWARD_FUNDS;\t\t//\tAll the funds to be splitted between participants as a reward\n    uint256 public REWARD;\t\t\t\t//\tDynamically calculated reward based on PARTICIPANTS.length\n    uint256 public MAX_REWARD;\n    \n    string public WINNING_OPTION;      \t//   ,    \n    uint256 public WINNING_OPTION_ID;\n    \n    address public judgesAddress;\n\n\n    address[] public PARTICIPANTS;\n\n    //\t :    (/), .,    ()\n\tstruct User {\t\n\t    bool already;\n\t\tstring email;\n\t\tuint256 choice;\n\t}\n\n\t//\t   ():  ,   \"\"\n\tstruct Option {\n\t\tbool descripted;\n\t\tstring text;\n\t\taddress[] voters;\n\t}\n\n\t//\t     Ethereum \n\t//\t(     )\n\taddress public creator;\n\taddress public master;\n\n\t//      Ethereum   \n\tmapping (address => User) public users;\n\n\t//\t  \n\tmapping (uint256 => Option) public options;\n\n// \n\n\t//\t    :\n\t//\t         \n\tmodifier isMaster() {\n\t\trequire(master == msg.sender, \"For master uses only\");\n\t\t_;\n\t}\n\n\t//\t , ,      \n\tmodifier still_on() {\n\t    require(now < endTime && !FINISHED, \"Quiz is over\");\n\t    _;\n\t}\n\t\n\t//\t   : \n\t//\t    throwVote   \n\tmodifier no_double_vote(address _from) {\n\t    User storage u = users[_from];\n\t    require(!u.already, \"Can`t vote twice\");\n\t    _;\n\t}\n\t\n\t\n\t//\t ,      \n\tconstructor\n\t(\n\t    address _creator,\n\t\tstring _title, \n\t\tuint256 duration, \n\t\tuint256 _reward\n\t) \n\tpublic\n\tpayable \n\t{\n\t    require(isContract(msg.sender));\n\t    require(msg.value > 0, \"Creator is to fullfill reward funds\");\n\t    beginTime = now;\n\t    endTime = beginTime + duration;\n\t    creator = _creator;\n\t    master = msg.sender;\n\t    TITLE = _title;\n\t    MAX_REWARD = _reward;\n\t    REWARD_FUNDS = msg.value;\n\n\t    emit Forecast_Created(TITLE, creator, beginTime, duration);\t\n\t}\n\t\n\t//\t      ()\n\tfunction throwVote(address _for, uint256 _choice) \n\tpublic\n\tstill_on\n\tno_double_vote(_for)\n\t{\n\t\trequire(creator != _for, \"Creator can`t throw votes!\");\n\t\trequire(options[_choice].descripted, \"Option must be descripted firstly!\");\n\n\t\tPARTICIPANTS.push(_for);\n\t\tREWARD = REWARD_FUNDS / PARTICIPANTS.length;\n\t\t\n\t\tUser storage u = users[_for];\t    \n\t    u.already = true;\n\t    u.choice = _choice;\n\n\t    options[_choice].voters.push(_for);\n\t}\n\n\tfunction finish() public isMaster {\n\t\tFINISHED = true;\n\t}\n\n\tfunction createJudgement(\n\t\tuint256 _numJudges,\n\t\tuint256 _reward, \n\t\tuint256 _duration\n\t) \n\tpublic \n\tisMaster \n\t{\n\t\trequire(FINISHED, \"Judgement cannot be created until the forecast expired\");\n\t\trequire(!JudgementApplied, \"The forecast is already judged or oraclized\");\n\t\tjudgesAddress = new Judgement(creator, TITLE, _numJudges, _reward, _duration);\n\t}\n\n\tfunction applyJudgement() public isMaster {\n\t\tJudgement judge = Judgement(judgesAddress);\n\t\t\n\t\trequire(\n\t\t\tjudge.FINISHED(), \n\t\t\t\"Judgement cannot be applied until consensus reached or court \"\n\t\t);\n\n\t\tWINNING_OPTION_ID = judge.WINNING_OPTION_ID();\n\t\tWINNING_OPTION = options[WINNING_OPTION_ID].text;\n\t\tJudgementApplied = true;\n\t}\n\n\tfunction getOracle(uint256 _choice) public isMaster {\n\t\trequire(FINISHED, \"Oracle cannot be called util the forecast expired\");\n\t\trequire(!JudgementApplied, \"Oracle cannot be called: Judgement applied already\");\n\t\tWINNING_OPTION_ID = _choice;\n\t\tJudgementApplied = true;\n\t}\n\n\n\t//\t  \n\tfunction payout() public isMaster returns (bool success) {\n\t\t//\t    ,  \n\t\t//\t   \n\t\trequire(\n\t\t\tJudgementApplied, \n\t\t\t\"Payout can be proceeded after revealing the WINNING_OPTION_ID via Oracle or Judgement\"\n\t\t);\n\t\t\n\t\tif (REWARD > MAX_REWARD)\n\t\t\tREWARD = MAX_REWARD;\n\n\t\tfor (uint256 i = 0; i < options[WINNING_OPTION_ID].voters.length; i++) {\n\t\t\toptions[WINNING_OPTION_ID].voters[i].transfer(REWARD);\n\t\t}\n\t\t//       \n\t\tcreator.transfer(address(this).balance);\n\t\temit Payout(TITLE, REWARD, PARTICIPANTS);\t\n\t\treturn true;\n\t}\n\t\n\t//\t     ( -> )\n\t//\t(        Solidity,\n\t//\t    )\n\tfunction assignDescription(uint256 _no, string memory _text) \n\tpublic \n\tisMaster \n\t{\n\t\trequire(!options[_no].descripted, \"Option is descripted already\");\n\t    options[_no].text = _text;\n\t    options[_no].descripted = true;\n\t    emit Option_Assigned(TITLE, _no, _text);\n\t}\n\n\t//\t  ,    \"not_contract()\":\n\t//\t      ,   -  ()\n\tfunction isContract(address addr) private view returns (bool) {\n  \t\tuint size;\n  \t\tassembly \n  \t\t{ \n  \t\t\tsize := extcodesize(addr)\n  \t\t}\n  \t\treturn size > 0;\n\t}\n\n\tevent Forecast_Created(\n\t\tstring title, \n\t\taddress creator, \n\t\tuint256 timestamp, \n\t\tuint256 duration\n\t);\n\tevent Option_Assigned(string title, uint256 no, string text);\n\tevent Payout(string title, uint256 amount, address[] participants);\n\tevent Forecast_Finished(string title, string winningOption, uint256 timestamp);\n}\n",
  "sourcePath": "/home/vlatt/Desktop/work/contracts/Service Based/Forecast.sol",
  "compiler": {
    "name": "solc",
    "version": "0.4.24+commit.e67f0147.Emscripten.clang"
  },
  "schemaVersion": "3.0.1",
  "updatedAt": "2019-02-07T09:52:01.709Z",
  "devdoc": {
    "methods": {}
  },
  "userdoc": {
    "methods": {}
  }
}