{
  "contractName": "Forecast_cli",
  "abi": [
    {
      "constant": true,
      "inputs": [],
      "name": "creator",
      "outputs": [
        {
          "name": "",
          "type": "address"
        }
      ],
      "payable": false,
      "stateMutability": "view",
      "type": "function"
    },
    {
      "constant": true,
      "inputs": [],
      "name": "MAX_REWARD",
      "outputs": [
        {
          "name": "",
          "type": "uint256"
        }
      ],
      "payable": false,
      "stateMutability": "view",
      "type": "function"
    },
    {
      "constant": true,
      "inputs": [],
      "name": "judgesAddress",
      "outputs": [
        {
          "name": "",
          "type": "address"
        }
      ],
      "payable": false,
      "stateMutability": "view",
      "type": "function"
    },
    {
      "constant": true,
      "inputs": [],
      "name": "REWARD_FUNDS",
      "outputs": [
        {
          "name": "",
          "type": "uint256"
        }
      ],
      "payable": false,
      "stateMutability": "view",
      "type": "function"
    },
    {
      "constant": true,
      "inputs": [],
      "name": "WINNING_OPTION_ID",
      "outputs": [
        {
          "name": "",
          "type": "uint256"
        }
      ],
      "payable": false,
      "stateMutability": "view",
      "type": "function"
    },
    {
      "constant": true,
      "inputs": [],
      "name": "endTime",
      "outputs": [
        {
          "name": "",
          "type": "uint256"
        }
      ],
      "payable": false,
      "stateMutability": "view",
      "type": "function"
    },
    {
      "constant": true,
      "inputs": [],
      "name": "NUM_OPTIONS",
      "outputs": [
        {
          "name": "",
          "type": "uint256"
        }
      ],
      "payable": false,
      "stateMutability": "view",
      "type": "function"
    },
    {
      "constant": true,
      "inputs": [
        {
          "name": "",
          "type": "uint256"
        }
      ],
      "name": "options",
      "outputs": [
        {
          "name": "descripted",
          "type": "bool"
        },
        {
          "name": "text",
          "type": "string"
        }
      ],
      "payable": false,
      "stateMutability": "view",
      "type": "function"
    },
    {
      "constant": true,
      "inputs": [],
      "name": "TITLE",
      "outputs": [
        {
          "name": "",
          "type": "string"
        }
      ],
      "payable": false,
      "stateMutability": "view",
      "type": "function"
    },
    {
      "constant": true,
      "inputs": [],
      "name": "JudgementApplied",
      "outputs": [
        {
          "name": "",
          "type": "bool"
        }
      ],
      "payable": false,
      "stateMutability": "view",
      "type": "function"
    },
    {
      "constant": true,
      "inputs": [],
      "name": "beginTime",
      "outputs": [
        {
          "name": "",
          "type": "uint256"
        }
      ],
      "payable": false,
      "stateMutability": "view",
      "type": "function"
    },
    {
      "constant": true,
      "inputs": [],
      "name": "WINNING_OPTION",
      "outputs": [
        {
          "name": "",
          "type": "string"
        }
      ],
      "payable": false,
      "stateMutability": "view",
      "type": "function"
    },
    {
      "constant": true,
      "inputs": [
        {
          "name": "",
          "type": "address"
        }
      ],
      "name": "users",
      "outputs": [
        {
          "name": "already",
          "type": "bool"
        },
        {
          "name": "email",
          "type": "string"
        },
        {
          "name": "choice",
          "type": "uint256"
        }
      ],
      "payable": false,
      "stateMutability": "view",
      "type": "function"
    },
    {
      "constant": true,
      "inputs": [],
      "name": "FINISHED",
      "outputs": [
        {
          "name": "",
          "type": "bool"
        }
      ],
      "payable": false,
      "stateMutability": "view",
      "type": "function"
    },
    {
      "constant": true,
      "inputs": [],
      "name": "REWARD",
      "outputs": [
        {
          "name": "",
          "type": "uint256"
        }
      ],
      "payable": false,
      "stateMutability": "view",
      "type": "function"
    },
    {
      "constant": true,
      "inputs": [
        {
          "name": "",
          "type": "uint256"
        }
      ],
      "name": "PARTICIPANTS",
      "outputs": [
        {
          "name": "",
          "type": "address"
        }
      ],
      "payable": false,
      "stateMutability": "view",
      "type": "function"
    },
    {
      "inputs": [
        {
          "name": "_title",
          "type": "string"
        },
        {
          "name": "duration",
          "type": "uint256"
        },
        {
          "name": "_reward",
          "type": "uint256"
        }
      ],
      "payable": true,
      "stateMutability": "payable",
      "type": "constructor"
    },
    {
      "anonymous": false,
      "inputs": [
        {
          "indexed": false,
          "name": "title",
          "type": "string"
        },
        {
          "indexed": false,
          "name": "creator",
          "type": "address"
        },
        {
          "indexed": false,
          "name": "timestamp",
          "type": "uint256"
        },
        {
          "indexed": false,
          "name": "duration",
          "type": "uint256"
        }
      ],
      "name": "Forecast_Created",
      "type": "event"
    },
    {
      "anonymous": false,
      "inputs": [
        {
          "indexed": false,
          "name": "title",
          "type": "string"
        },
        {
          "indexed": false,
          "name": "no",
          "type": "uint256"
        },
        {
          "indexed": false,
          "name": "text",
          "type": "string"
        }
      ],
      "name": "Option_Assigned",
      "type": "event"
    },
    {
      "anonymous": false,
      "inputs": [
        {
          "indexed": false,
          "name": "title",
          "type": "string"
        },
        {
          "indexed": false,
          "name": "amount",
          "type": "uint256"
        },
        {
          "indexed": false,
          "name": "participants",
          "type": "address[]"
        }
      ],
      "name": "Payout",
      "type": "event"
    },
    {
      "anonymous": false,
      "inputs": [
        {
          "indexed": false,
          "name": "title",
          "type": "string"
        },
        {
          "indexed": false,
          "name": "winningOption",
          "type": "string"
        },
        {
          "indexed": false,
          "name": "timestamp",
          "type": "uint256"
        }
      ],
      "name": "Forecast_Finished",
      "type": "event"
    },
    {
      "constant": false,
      "inputs": [
        {
          "name": "_choice",
          "type": "uint256"
        }
      ],
      "name": "throwVote",
      "outputs": [],
      "payable": false,
      "stateMutability": "nonpayable",
      "type": "function"
    },
    {
      "constant": false,
      "inputs": [],
      "name": "finish",
      "outputs": [],
      "payable": false,
      "stateMutability": "nonpayable",
      "type": "function"
    },
    {
      "constant": false,
      "inputs": [
        {
          "name": "_numJudges",
          "type": "uint256"
        },
        {
          "name": "_reward",
          "type": "uint256"
        },
        {
          "name": "_duration",
          "type": "uint256"
        }
      ],
      "name": "createJudgement",
      "outputs": [],
      "payable": false,
      "stateMutability": "nonpayable",
      "type": "function"
    },
    {
      "constant": false,
      "inputs": [],
      "name": "applyJudgement",
      "outputs": [],
      "payable": false,
      "stateMutability": "nonpayable",
      "type": "function"
    },
    {
      "constant": false,
      "inputs": [],
      "name": "payout",
      "outputs": [
        {
          "name": "success",
          "type": "bool"
        }
      ],
      "payable": false,
      "stateMutability": "nonpayable",
      "type": "function"
    },
    {
      "constant": false,
      "inputs": [
        {
          "name": "_no",
          "type": "uint256"
        },
        {
          "name": "_text",
          "type": "string"
        }
      ],
      "name": "assignDescription",
      "outputs": [],
      "payable": false,
      "stateMutability": "nonpayable",
      "type": "function"
    }
  ],
  "bytecode": "0x608060405260405162003b0238038062003b028339810180604052810190808051820192919060200180519060200190929190805190602001909291905050506200005933620002ae640100000000026401000000009004565b1515156200006657600080fd5b60003411151562000105576040517f08c379a00000000000000000000000000000000000000000000000000000000081526004018080602001828103825260238152602001807f43726561746f7220697320746f2066756c6c66696c6c2072657761726420667581526020017f6e6473000000000000000000000000000000000000000000000000000000000081525060400191505060405180910390fd5b42600281905550816002540160038190555033600c60006101000a81548173ffffffffffffffffffffffffffffffffffffffff021916908373ffffffffffffffffffffffffffffffffffffffff160217905550826001908051906020019062000170929190620002c1565b5080600681905550346004819055507fc16f8f3f52cdecb3b19faa29ca8b1a39db200aa089823bcfb881d14ef7c07d1e6001600c60009054906101000a900473ffffffffffffffffffffffffffffffffffffffff166002548560405180806020018573ffffffffffffffffffffffffffffffffffffffff1673ffffffffffffffffffffffffffffffffffffffff168152602001848152602001838152602001828103825286818154600181600116156101000203166002900481526020019150805460018160011615610100020316600290048015620002945780601f10620002685761010080835404028352916020019162000294565b820191906000526020600020905b8154815290600101906020018083116200027657829003601f168201915b50509550505050505060405180910390a150505062000370565b600080823b905060008111915050919050565b828054600181600116156101000203166002900490600052602060002090601f016020900481019282601f106200030457805160ff191683800117855562000335565b8280016001018555821562000335579182015b828111156200033457825182559160200191906001019062000317565b5b50905062000344919062000348565b5090565b6200036d91905b80821115620003695760008160009055506001016200034f565b5090565b90565b61378280620003806000396000f3006080604052600436106200013f576000357c0100000000000000000000000000000000000000000000000000000000900463ffffffff16806302d05d3f14620001445780630e1505e0146200019e5780631720781114620001cc5780631de67fb71462000226578063294f7b9614620002545780633197cbb614620002825780633c72b99414620002b05780633db62e2c14620002ca578063409e220514620002f857806356d9e7c414620003af57806363bd1d4a14620003f35780637ef838041462000425578063824b881814620004bb57806388149fb914620004ed5780639f68989c146200051b578063a87430ba14620005b1578063a97cb7c71462000685578063b54e5e8f14620006b5578063ca91a77414620006e7578063cab34c08146200075d578063d56b2889146200078b578063d882d58d14620007a5575b600080fd5b3480156200015157600080fd5b506200015c62000815565b604051808273ffffffffffffffffffffffffffffffffffffffff1673ffffffffffffffffffffffffffffffffffffffff16815260200191505060405180910390f35b348015620001ab57600080fd5b50620001b66200083b565b6040518082815260200191505060405180910390f35b348015620001d957600080fd5b50620001e462000841565b604051808273ffffffffffffffffffffffffffffffffffffffff1673ffffffffffffffffffffffffffffffffffffffff16815260200191505060405180910390f35b3480156200023357600080fd5b506200023e62000867565b6040518082815260200191505060405180910390f35b3480156200026157600080fd5b506200026c6200086d565b6040518082815260200191505060405180910390f35b3480156200028f57600080fd5b506200029a62000873565b6040518082815260200191505060405180910390f35b348015620002bd57600080fd5b50620002c862000879565b005b348015620002d757600080fd5b50620002e262000b69565b6040518082815260200191505060405180910390f35b3480156200030557600080fd5b50620003266004803603810190808035906020019092919050505062000b6f565b604051808315151515815260200180602001828103825283818151815260200191508051906020019080838360005b838110156200037257808201518184015260208101905062000355565b50505050905090810190601f168015620003a05780820380516001836020036101000a031916815260200191505b50935050505060405180910390f35b348015620003bc57600080fd5b50620003f160048036038101908080359060200190929190803590602001909291908035906020019092919050505062000c3c565b005b3480156200040057600080fd5b506200040b62000e34565b604051808215151515815260200191505060405180910390f35b3480156200043257600080fd5b506200043d6200121b565b6040518080602001828103825283818151815260200191508051906020019080838360005b838110156200047f57808201518184015260208101905062000462565b50505050905090810190601f168015620004ad5780820380516001836020036101000a031916815260200191505b509250505060405180910390f35b348015620004c857600080fd5b50620004d3620012bd565b604051808215151515815260200191505060405180910390f35b348015620004fa57600080fd5b5062000505620012d0565b6040518082815260200191505060405180910390f35b3480156200052857600080fd5b5062000533620012d6565b6040518080602001828103825283818151815260200191508051906020019080838360005b838110156200057557808201518184015260208101905062000558565b50505050905090810190601f168015620005a35780820380516001836020036101000a031916815260200191505b509250505060405180910390f35b348015620005be57600080fd5b50620005f5600480360381019080803573ffffffffffffffffffffffffffffffffffffffff16906020019092919050505062001378565b604051808415151515815260200180602001838152602001828103825284818151815260200191508051906020019080838360005b83811015620006475780820151818401526020810190506200062a565b50505050905090810190601f168015620006755780820380516001836020036101000a031916815260200191505b5094505050505060405180910390f35b3480156200069257600080fd5b50620006b3600480360381019080803590602001909291905050506200144b565b005b348015620006c257600080fd5b50620006cd62001918565b604051808215151515815260200191505060405180910390f35b348015620006f457600080fd5b506200075b60048036038101908080359060200190929190803590602001908201803590602001908080601f01602080910402602001604051908101604052809392919081815260200183838082843782019150505050505091929192905050506200192a565b005b3480156200076a57600080fd5b506200077562001c31565b6040518082815260200191505060405180910390f35b3480156200079857600080fd5b50620007a362001c37565b005b348015620007b257600080fd5b50620007d36004803603810190808035906020019092919050505062001d19565b604051808273ffffffffffffffffffffffffffffffffffffffff1673ffffffffffffffffffffffffffffffffffffffff16815260200191505060405180910390f35b600c60009054906101000a900473ffffffffffffffffffffffffffffffffffffffff1681565b60065481565b600a60009054906101000a900473ffffffffffffffffffffffffffffffffffffffff1681565b60045481565b60085481565b60035481565b60003373ffffffffffffffffffffffffffffffffffffffff16600c60009054906101000a900473ffffffffffffffffffffffffffffffffffffffff1673ffffffffffffffffffffffffffffffffffffffff1614151562000941576040517f08c379a00000000000000000000000000000000000000000000000000000000081526004018080602001828103825260158152602001807f466f722063726561746f722075736573206f6e6c79000000000000000000000081525060200191505060405180910390fd5b600a60009054906101000a900473ffffffffffffffffffffffffffffffffffffffff1690508073ffffffffffffffffffffffffffffffffffffffff1663b54e5e8f6040518163ffffffff167c0100000000000000000000000000000000000000000000000000000000028152600401602060405180830381600087803b158015620009cb57600080fd5b505af1158015620009e0573d6000803e3d6000fd5b505050506040513d6020811015620009f757600080fd5b8101908080519060200190929190505050151562000aa3576040517f08c379a000000000000000000000000000000000000000000000000000000000815260040180806020018281038252603d8152602001807f4a756467656d656e742063616e6e6f74206265206170706c69656420756e746981526020017f6c20636f6e73656e7375732072656163686564206f7220636f7572742000000081525060400191505060405180910390fd5b8073ffffffffffffffffffffffffffffffffffffffff1663294f7b966040518163ffffffff167c0100000000000000000000000000000000000000000000000000000000028152600401602060405180830381600087803b15801562000b0857600080fd5b505af115801562000b1d573d6000803e3d6000fd5b505050506040513d602081101562000b3457600080fd5b81019080805190602001909291905050506008819055506001600060016101000a81548160ff02191690831515021790555050565b60095481565b600e6020528060005260406000206000915090508060000160009054906101000a900460ff1690806001018054600181600116156101000203166002900480601f01602080910402602001604051908101604052809291908181526020018280546001816001161561010002031660029004801562000c325780601f1062000c065761010080835404028352916020019162000c32565b820191906000526020600020905b81548152906001019060200180831162000c1457829003601f168201915b5050505050905082565b3373ffffffffffffffffffffffffffffffffffffffff16600c60009054906101000a900473ffffffffffffffffffffffffffffffffffffffff1673ffffffffffffffffffffffffffffffffffffffff1614151562000d02576040517f08c379a00000000000000000000000000000000000000000000000000000000081526004018080602001828103825260158152602001807f466f722063726561746f722075736573206f6e6c79000000000000000000000081525060200191505060405180910390fd5b6000809054906101000a900460ff16151562000dac576040517f08c379a00000000000000000000000000000000000000000000000000000000081526004018080602001828103825260368152602001807f4a756467656d656e742063616e6e6f74206265206372656174656420756e746981526020017f6c2074686520666f72656361737420657870697265640000000000000000000081525060400191505060405180910390fd5b82828262000db962001d6b565b808481526020018381526020018281526020019350505050604051809103906000f08015801562000dee573d6000803e3d6000fd5b50600a60006101000a81548173ffffffffffffffffffffffffffffffffffffffff021916908373ffffffffffffffffffffffffffffffffffffffff160217905550505050565b60008062000e423362001d58565b15151562000eb8576040517f08c379a000000000000000000000000000000000000000000000000000000000815260040180806020018281038252601b8152602001807f436f6e747261637420696e6a656374696f6e206465746563746564000000000081525060200191505060405180910390fd5b600060019054906101000a900460ff16151562000f63576040517f08c379a000000000000000000000000000000000000000000000000000000000815260040180806020018281038252602c8152602001807f5061796f7574206d61792062652070726f636565646564206166746572204a7581526020017f6467656d656e74206f6e6c79000000000000000000000000000000000000000081525060400191505060405180910390fd5b600654600554111562000f7a576006546005819055505b600090505b600e60006008548152602001908152602001600020600201805490508110156200104b57600e600060085481526020019081526020016000206002018181548110151562000fc957fe5b9060005260206000200160009054906101000a900473ffffffffffffffffffffffffffffffffffffffff1673ffffffffffffffffffffffffffffffffffffffff166108fc6005549081150290604051600060405180830381858888f193505050501580156200103c573d6000803e3d6000fd5b50808060010191505062000f7f565b600c60009054906101000a900473ffffffffffffffffffffffffffffffffffffffff1673ffffffffffffffffffffffffffffffffffffffff166108fc3073ffffffffffffffffffffffffffffffffffffffff16319081150290604051600060405180830381858888f19350505050158015620010cb573d6000803e3d6000fd5b507f4cb7bf350a870d26c8c87ac21ac979ce443204d51755ee1cdfff3deec0d9e5a66001600554600b6040518080602001848152602001806020018381038352868181546001816001161561010002031660029004815260200191508054600181600116156101000203166002900480156200118b5780601f106200115f576101008083540402835291602001916200118b565b820191906000526020600020905b8154815290600101906020018083116200116d57829003601f168201915b505083810382528481815481526020019150805480156200120257602002820191906000526020600020905b8160009054906101000a900473ffffffffffffffffffffffffffffffffffffffff1673ffffffffffffffffffffffffffffffffffffffff1681526020019060010190808311620011b7575b50509550505050505060405180910390a1600191505090565b60018054600181600116156101000203166002900480601f016020809104026020016040519081016040528092919081815260200182805460018160011615610100020316600290048015620012b55780601f106200128957610100808354040283529160200191620012b5565b820191906000526020600020905b8154815290600101906020018083116200129757829003601f168201915b505050505081565b600060019054906101000a900460ff1681565b60025481565b60078054600181600116156101000203166002900480601f016020809104026020016040519081016040528092919081815260200182805460018160011615610100020316600290048015620013705780601f10620013445761010080835404028352916020019162001370565b820191906000526020600020905b8154815290600101906020018083116200135257829003601f168201915b505050505081565b600d6020528060005260406000206000915090508060000160009054906101000a900460ff1690806001018054600181600116156101000203166002900480601f0160208091040260200160405190810160405280929190818152602001828054600181600116156101000203166002900480156200143b5780601f106200140f576101008083540402835291602001916200143b565b820191906000526020600020905b8154815290600101906020018083116200141d57829003601f168201915b5050505050908060020154905083565b6000620014583362001d58565b151515620014ce576040517f08c379a000000000000000000000000000000000000000000000000000000000815260040180806020018281038252601b8152602001807f436f6e747261637420696e6a656374696f6e206465746563746564000000000081525060200191505060405180910390fd5b60035442108015620014ec57506000809054906101000a900460ff16155b151562001561576040517f08c379a00000000000000000000000000000000000000000000000000000000081526004018080602001828103825260108152602001807f466f726563617374206973206f7665720000000000000000000000000000000081525060200191505060405180910390fd5b6000600d60003373ffffffffffffffffffffffffffffffffffffffff1673ffffffffffffffffffffffffffffffffffffffff16815260200190815260200160002090508060000160009054906101000a900460ff161515156200162c576040517f08c379a00000000000000000000000000000000000000000000000000000000081526004018080602001828103825260108152602001807f43616e607420766f74652074776963650000000000000000000000000000000081525060200191505060405180910390fd5b3373ffffffffffffffffffffffffffffffffffffffff16600c60009054906101000a900473ffffffffffffffffffffffffffffffffffffffff1673ffffffffffffffffffffffffffffffffffffffff1614151515620016f3576040517f08c379a000000000000000000000000000000000000000000000000000000000815260040180806020018281038252601a8152602001807f43726561746f722063616e6074207468726f7720766f7465732100000000000081525060200191505060405180910390fd5b600e600084815260200190815260200160002060000160009054906101000a900460ff161515620017b2576040517f08c379a00000000000000000000000000000000000000000000000000000000081526004018080602001828103825260228152602001807f4f7074696f6e206d75737420626520646573637269707465642066697273746c81526020017f792100000000000000000000000000000000000000000000000000000000000081525060400191505060405180910390fd5b600d60003373ffffffffffffffffffffffffffffffffffffffff1673ffffffffffffffffffffffffffffffffffffffff1681526020019081526020016000209150600b3390806001815401808255809150509060018203906000526020600020016000909192909190916101000a81548173ffffffffffffffffffffffffffffffffffffffff021916908373ffffffffffffffffffffffffffffffffffffffff16021790555050600b805490506004548115156200186c57fe5b0460058190555060018260000160006101000a81548160ff021916908315150217905550600e60008481526020019081526020016000206002013390806001815401808255809150509060018203906000526020600020016000909192909190916101000a81548173ffffffffffffffffffffffffffffffffffffffff021916908373ffffffffffffffffffffffffffffffffffffffff16021790555050828260020181905550505050565b6000809054906101000a900460ff1681565b3373ffffffffffffffffffffffffffffffffffffffff16600c60009054906101000a900473ffffffffffffffffffffffffffffffffffffffff1673ffffffffffffffffffffffffffffffffffffffff16141515620019f0576040517f08c379a00000000000000000000000000000000000000000000000000000000081526004018080602001828103825260158152602001807f466f722063726561746f722075736573206f6e6c79000000000000000000000081525060200191505060405180910390fd5b600e600083815260200190815260200160002060000160009054906101000a900460ff1615151562001a8a576040517f08c379a000000000000000000000000000000000000000000000000000000000815260040180806020018281038252601c8152602001807f4f7074696f6e206973206465736372697074656420616c72656164790000000081525060200191505060405180910390fd5b80600e6000848152602001908152602001600020600101908051906020019062001ab692919062001d7c565b506001600e600084815260200190815260200160002060000160006101000a81548160ff02191690831515021790555060016009600082825401925050819055507fa4bd90ecd8eca719a5867b5682b448ca871a8a961509aee119fd17f01e8d78016001838360405180806020018481526020018060200183810383528681815460018160011615610100020316600290048152602001915080546001816001161561010002031660029004801562001bb35780601f1062001b875761010080835404028352916020019162001bb3565b820191906000526020600020905b81548152906001019060200180831162001b9557829003601f168201915b5050838103825284818151815260200191508051906020019080838360005b8381101562001bef57808201518184015260208101905062001bd2565b50505050905090810190601f16801562001c1d5780820380516001836020036101000a031916815260200191505b509550505050505060405180910390a15050565b60055481565b3373ffffffffffffffffffffffffffffffffffffffff16600c60009054906101000a900473ffffffffffffffffffffffffffffffffffffffff1673ffffffffffffffffffffffffffffffffffffffff1614151562001cfd576040517f08c379a00000000000000000000000000000000000000000000000000000000081526004018080602001828103825260158152602001807f466f722063726561746f722075736573206f6e6c79000000000000000000000081525060200191505060405180910390fd5b60016000806101000a81548160ff021916908315150217905550565b600b8181548110151562001d2957fe5b906000526020600020016000915054906101000a900473ffffffffffffffffffffffffffffffffffffffff1681565b600080823b905060008111915050919050565b60405161192b8062001e2c83390190565b828054600181600116156101000203166002900490600052602060002090601f016020900481019282601f1062001dbf57805160ff191683800117855562001df0565b8280016001018555821562001df0579182015b8281111562001def57825182559160200191906001019062001dd2565b5b50905062001dff919062001e03565b5090565b62001e2891905b8082111562001e2457600081600090555060010162001e0a565b5090565b90560060806040526040516060806200192b83398101806040528101908080519060200190929190805190602001909291908051906020019092919050505060003390504260028190555081600254016003819055508073ffffffffffffffffffffffffffffffffffffffff166302d05d3f6040518163ffffffff167c0100000000000000000000000000000000000000000000000000000000028152600401602060405180830381600087803b158015620000b757600080fd5b505af1158015620000cc573d6000803e3d6000fd5b505050506040513d6020811015620000e357600080fd5b8101908080519060200190929190505050600a60006101000a81548173ffffffffffffffffffffffffffffffffffffffff021916908373ffffffffffffffffffffffffffffffffffffffff16021790555033600860006101000a81548173ffffffffffffffffffffffffffffffffffffffff021916908373ffffffffffffffffffffffffffffffffffffffff1602179055508073ffffffffffffffffffffffffffffffffffffffff16637ef838046040518163ffffffff167c0100000000000000000000000000000000000000000000000000000000028152600401600060405180830381600087803b158015620001da57600080fd5b505af1158015620001ef573d6000803e3d6000fd5b505050506040513d6000823e3d601f19601f8201168201806040525060208110156200021a57600080fd5b8101908080516401000000008111156200023357600080fd5b828101905060208101848111156200024a57600080fd5b81518560018202830111640100000000821117156200026857600080fd5b505092919050505060019080519060200190620002879291906200041e565b5082600481905550836005819055507f3050a4d217fecd1a00be7ce928ed260c6ce042f0e21ab972c827042f1dfc4f75600860009054906101000a900473ffffffffffffffffffffffffffffffffffffffff166001600254600a60009054906101000a900473ffffffffffffffffffffffffffffffffffffffff16600554604051808673ffffffffffffffffffffffffffffffffffffffff1673ffffffffffffffffffffffffffffffffffffffff168152602001806020018581526020018473ffffffffffffffffffffffffffffffffffffffff1673ffffffffffffffffffffffffffffffffffffffff168152602001838152602001828103825286818154600181600116156101000203166002900481526020019150805460018160011615610100020316600290048015620004025780601f10620003d65761010080835404028352916020019162000402565b820191906000526020600020905b815481529060010190602001808311620003e457829003601f168201915b5050965050505050505060405180910390a150505050620004cd565b828054600181600116156101000203166002900490600052602060002090601f016020900481019282601f106200046157805160ff191683800117855562000492565b8280016001018555821562000492579182015b828111156200049157825182559160200191906001019062000474565b5b509050620004a19190620004a5565b5090565b620004ca91905b80821115620004c6576000816000905550600101620004ac565b5090565b90565b61144e80620004dd6000396000f3006080604052600436106100c5576000357c0100000000000000000000000000000000000000000000000000000000900463ffffffff16806302d05d3f146100ca578063294f7b96146101215780633197cbb61461014c5780637ef838041461017757806388149fb9146102075780639f68989c14610232578063a97cb7c7146102c2578063b54e5e8f146102ef578063ca91a7741461031e578063cab34c0814610391578063d56b2889146103bc578063f3d6279b146103d3578063fa6ac13114610440575b600080fd5b3480156100d657600080fd5b506100df61046b565b604051808273ffffffffffffffffffffffffffffffffffffffff1673ffffffffffffffffffffffffffffffffffffffff16815260200191505060405180910390f35b34801561012d57600080fd5b50610136610491565b6040518082815260200191505060405180910390f35b34801561015857600080fd5b50610161610497565b6040518082815260200191505060405180910390f35b34801561018357600080fd5b5061018c61049d565b6040518080602001828103825283818151815260200191508051906020019080838360005b838110156101cc5780820151818401526020810190506101b1565b50505050905090810190601f1680156101f95780820380516001836020036101000a031916815260200191505b509250505060405180910390f35b34801561021357600080fd5b5061021c61053b565b6040518082815260200191505060405180910390f35b34801561023e57600080fd5b50610247610541565b6040518080602001828103825283818151815260200191508051906020019080838360005b8381101561028757808201518184015260208101905061026c565b50505050905090810190601f1680156102b45780820380516001836020036101000a031916815260200191505b509250505060405180910390f35b3480156102ce57600080fd5b506102ed600480360381019080803590602001909291905050506105df565b005b3480156102fb57600080fd5b50610304610ac7565b604051808215151515815260200191505060405180910390f35b34801561032a57600080fd5b5061038f60048036038101908080359060200190929190803590602001908201803590602001908080601f0160208091040260200160405190810160405280939291908181526020018383808284378201915050505050509192919290505050610ad9565b005b34801561039d57600080fd5b506103a6610c95565b6040518082815260200191505060405180910390f35b3480156103c857600080fd5b506103d1610c9b565b005b3480156103df57600080fd5b506103fe6004803603810190808035906020019092919050505061129f565b604051808273ffffffffffffffffffffffffffffffffffffffff1673ffffffffffffffffffffffffffffffffffffffff16815260200191505060405180910390f35b34801561044c57600080fd5b506104556112dd565b6040518082815260200191505060405180910390f35b600a60009054906101000a900473ffffffffffffffffffffffffffffffffffffffff1681565b60065481565b60035481565b60018054600181600116156101000203166002900480601f0160208091040260200160405190810160405280929190818152602001828054600181600116156101000203166002900480156105335780601f1061050857610100808354040283529160200191610533565b820191906000526020600020905b81548152906001019060200180831161051657829003601f168201915b505050505081565b60025481565b60078054600181600116156101000203166002900480601f0160208091040260200160405190810160405280929190818152602001828054600181600116156101000203166002900480156105d75780601f106105ac576101008083540402835291602001916105d7565b820191906000526020600020905b8154815290600101906020018083116105ba57829003601f168201915b505050505081565b6000806105eb336112e3565b151515610660576040517f08c379a000000000000000000000000000000000000000000000000000000000815260040180806020018281038252601b8152602001807f436f6e747261637420696e6a656374696f6e206465746563746564000000000081525060200191505060405180910390fd5b6000809054906101000a900460ff1615801561067d575060035442105b151561068857600080fd5b6000600b60003373ffffffffffffffffffffffffffffffffffffffff1673ffffffffffffffffffffffffffffffffffffffff16815260200190815260200160002090508060000160009054906101000a900460ff16151515610752576040517f08c379a00000000000000000000000000000000000000000000000000000000081526004018080602001828103825260108152602001807f43616e607420766f74652074776963650000000000000000000000000000000081525060200191505060405180910390fd5b3373ffffffffffffffffffffffffffffffffffffffff16600a60009054906101000a900473ffffffffffffffffffffffffffffffffffffffff1673ffffffffffffffffffffffffffffffffffffffff1614151515610818576040517f08c379a000000000000000000000000000000000000000000000000000000000815260040180806020018281038252601a8152602001807f43726561746f722063616e6074207468726f7720766f7465732100000000000081525060200191505060405180910390fd5b600554600980549050101515610896576040517f08c379a000000000000000000000000000000000000000000000000000000000815260040180806020018281038252601a8152602001807f4d6178696d756d206a756467657320636170207265616368656400000000000081525060200191505060405180910390fd5b600c600085815260200190815260200160002060030160009054906101000a900460ff161515610954576040517f08c379a00000000000000000000000000000000000000000000000000000000081526004018080602001828103825260228152602001807f4f7074696f6e206d75737420626520646573637269707465642066697273746c81526020017f792100000000000000000000000000000000000000000000000000000000000081525060400191505060405180910390fd5b600b60003373ffffffffffffffffffffffffffffffffffffffff1673ffffffffffffffffffffffffffffffffffffffff1681526020019081526020016000209250600c6000858152602001908152602001600020915060093390806001815401808255809150509060018203906000526020600020016000909192909190916101000a81548173ffffffffffffffffffffffffffffffffffffffff021916908373ffffffffffffffffffffffffffffffffffffffff1602179055505060018360000160006101000a81548160ff021916908315150217905550838360020181905550816002013390806001815401808255809150509060018203906000526020600020016000909192909190916101000a81548173ffffffffffffffffffffffffffffffffffffffff021916908373ffffffffffffffffffffffffffffffffffffffff1602179055505060646009805490508360020180549050811515610ab757fe5b0402826001018190555050505050565b6000809054906101000a900460ff1681565b3373ffffffffffffffffffffffffffffffffffffffff16600a60009054906101000a900473ffffffffffffffffffffffffffffffffffffffff1673ffffffffffffffffffffffffffffffffffffffff16141515610b9e576040517f08c379a00000000000000000000000000000000000000000000000000000000081526004018080602001828103825260158152602001807f466f722063726561746f722075736573206f6e6c79000000000000000000000081525060200191505060405180910390fd5b600c600083815260200190815260200160002060030160009054906101000a900460ff16151515610c37576040517f08c379a000000000000000000000000000000000000000000000000000000000815260040180806020018281038252601c8152602001807f4f7074696f6e206973206465736372697074656420616c72656164790000000081525060200191505060405180910390fd5b80600c60008481526020019081526020016000206000019080519060200190610c619291906112f6565b506001600c600084815260200190815260200160002060030160006101000a81548160ff0219169083151502179055505050565b60045481565b6000806000803373ffffffffffffffffffffffffffffffffffffffff16600a60009054906101000a900473ffffffffffffffffffffffffffffffffffffffff1673ffffffffffffffffffffffffffffffffffffffff16141515610d66576040517f08c379a00000000000000000000000000000000000000000000000000000000081526004018080602001828103825260158152602001807f466f722063726561746f722075736573206f6e6c79000000000000000000000081525060200191505060405180910390fd5b60016000806101000a81548160ff021916908315150217905550600091505b600980549050821015610e215783600c6000848152602001908152602001600020600201805490501115610dd357600c60008381526020019081526020016000206002018054905093508192505b82600681905550600c6000600654815260200190815260200160002060000160079080546001816001161561010002031660029004610e13929190611376565b508180600101925050610d85565b605f600c600085815260200190815260200160002060010154101515611062577fa1cba4d8261c709d7fe5d51630efc03050615dcf8226c0b508662e4bff0f0093600860009054906101000a900473ffffffffffffffffffffffffffffffffffffffff16600c600060065481526020019081526020016000206000014260405180806020018573ffffffffffffffffffffffffffffffffffffffff1673ffffffffffffffffffffffffffffffffffffffff16815260200180602001848152602001838103835260278152602001807f4e6f20436f6e73656e737573206265747765656e20746865206a75646765732081526020017f7265616368656400000000000000000000000000000000000000000000000000815250604001838103825285818154600181600116156101000203166002900481526020019150805460018160011615610100020316600290048015610fbd5780601f10610f9257610100808354040283529160200191610fbd565b820191906000526020600020905b815481529060010190602001808311610fa057829003601f168201915b50509550505050505060405180910390a16040517f08c379a000000000000000000000000000000000000000000000000000000000815260040180806020018281038252602a8152602001807f436f6e73656e737573206e6f7420726561636865642e2044656c65676174696e81526020017f67206f6e2061646d696e0000000000000000000000000000000000000000000081525060400191505060405180910390fd5b7fa1cba4d8261c709d7fe5d51630efc03050615dcf8226c0b508662e4bff0f0093600860009054906101000a900473ffffffffffffffffffffffffffffffffffffffff16600c600060065481526020019081526020016000206000014260405180806020018573ffffffffffffffffffffffffffffffffffffffff1673ffffffffffffffffffffffffffffffffffffffff16815260200180602001848152602001838103835260128152602001807f436f6e73656e73757320726561636865642e00000000000000000000000000008152506020018381038252858181546001816001161561010002031660029004815260200191508054600181600116156101000203166002900480156111b85780601f1061118d576101008083540402835291602001916111b8565b820191906000526020600020905b81548152906001019060200180831161119b57829003601f168201915b50509550505050505060405180910390a1600c600060065481526020019081526020016000206002019050600091505b808054905082101561129957600c600060065481526020019081526020016000206002018281548110151561121957fe5b9060005260206000200160009054906101000a900473ffffffffffffffffffffffffffffffffffffffff1673ffffffffffffffffffffffffffffffffffffffff166108fc6004549081150290604051600060405180830381858888f1935050505015801561128b573d6000803e3d6000fd5b5081806001019250506111e8565b50505050565b6009818154811015156112ae57fe5b906000526020600020016000915054906101000a900473ffffffffffffffffffffffffffffffffffffffff1681565b60055481565b600080823b905060008111915050919050565b828054600181600116156101000203166002900490600052602060002090601f016020900481019282601f1061133757805160ff1916838001178555611365565b82800160010185558215611365579182015b82811115611364578251825591602001919060010190611349565b5b50905061137291906113fd565b5090565b828054600181600116156101000203166002900490600052602060002090601f016020900481019282601f106113af57805485556113ec565b828001600101855582156113ec57600052602060002091601f016020900482015b828111156113eb5782548255916001019190600101906113d0565b5b5090506113f991906113fd565b5090565b61141f91905b8082111561141b576000816000905550600101611403565b5090565b905600a165627a7a72305820fdeae3cd489edce990ee5bb704926933458d62cc52d531d34d426b1bad7569fe0029a165627a7a7230582034ac4e2ee3e6afadd039efc29d8f714411cdf6eab37637bc5d1091868a3f2d810029",
  "source": "pragma solidity ^0.4.24;\nimport \"./Judgement_cli.sol\";\ncontract Forecast_cli {\n\n// \n\n\tbool public FINISHED;\t\t\t\t// Shows whether the quiz is opened/closed;\n\tbool public JudgementApplied;\t\t// Shows if there was a court-round on the forecast;\n\t\n\tstring public TITLE; \n\n    uint256 public beginTime;\t\t\t//\tQuiz start time (block timestamp at the start)\n    uint256 public endTime;\t\t\t\t//\tQuiz finish time (\"beginTime\" + \"duration\" user input in the constructor)\n\n    uint256 public REWARD_FUNDS;\t\t//\tAll the funds to be splitted between participants as a reward\n    uint256 public REWARD;\t\t\t\t//\tDynamically calculated reward based on PARTICIPANTS.length\n    uint256 public MAX_REWARD;\n    \n    string public WINNING_OPTION;      \t//   ,    \n    uint256 public WINNING_OPTION_ID;\n    uint256 public NUM_OPTIONS;\n    \n    address public judgesAddress;\n\n\n    address[] public PARTICIPANTS;\n\n    //\t :    (/), .,    ()\n\tstruct User {\t\n\t    bool already;\n\t\tstring email;\n\t\tuint256 choice;\n\t}\n\n\t//\t   ():  ,   \"\"\n\tstruct Option {\n\t\tbool descripted;\n\t\tstring text;\n\t\taddress[] voters;\n\t}\n\n\t//\t     Ethereum \n\t//\t(     )\n\taddress public creator;\n\n\t//      Ethereum   \n\tmapping (address => User) public users;\n\n\t//\t  \n\tmapping (uint256 => Option) public options;\n\n// \n\n\t//\t    :\n\t//\t         \n\tmodifier isCreator() {\n\t\trequire(creator == msg.sender, \"For creator uses only\");\n\t\t_;\n\t}\n\n\t//\t , ,      \n\tmodifier still_on() {\n\t    require(now < endTime && !FINISHED, \"Forecast is over\");\n\t    _;\n\t}\n\t\n\t//\t   : \n\t//\t    throwVote   \n\tmodifier no_double_vote() {\n\t    User storage u = users[msg.sender];\n\t    require(!u.already, \"Can`t vote twice\");\n\t    _;\n\t}\n\t\n\t//\t      :\n\t//\t      -,\n\t//\t         \n\tmodifier not_contract() {\n\t\trequire(!isContract(msg.sender), \"Contract injection detected\");\n\t\t_;\n\t}\n\t\n\t//\t ,      \n\tconstructor\n\t(\n\t\tstring _title, \n\t\tuint256 duration, \n\t\tuint256 _reward\n\t) \n\tpublic\n\tpayable \n\t{\n\t    require(!isContract(msg.sender));\n\t    require(msg.value > 0, \"Creator is to fullfill reward funds\");\n\t    beginTime = now;\n\t    endTime = beginTime + duration;\n\t    creator = msg.sender;\n\t    TITLE = _title;\n\t    MAX_REWARD = _reward;\n\t    REWARD_FUNDS = msg.value;\n\n\t    emit Forecast_Created(TITLE, creator, beginTime, duration);\t\n\t}\n\t\n\t//\t      ()\n\tfunction throwVote(uint256 _choice) \n\tpublic\n\tnot_contract\n\tstill_on\n\tno_double_vote\n\t{\n\t\trequire(creator != msg.sender, \"Creator can`t throw votes!\");\n\t\trequire(options[_choice].descripted, \"Option must be descripted firstly!\");\n\t\tUser storage u = users[msg.sender];\n\t\tPARTICIPANTS.push(msg.sender);\n\t\tREWARD = REWARD_FUNDS / PARTICIPANTS.length;\n\t    u.already = true;\n\t    options[_choice].voters.push(msg.sender);\n\t    u.choice = _choice;\n\t}\n\n\n\tfunction finish() public isCreator {\n\t\tFINISHED = true;\n\t}\n\n\tfunction createJudgement(\n\t\tuint256 _numJudges, \n\t\tuint256 _reward, \n\t\tuint256 _duration\n\t\t) \n\tpublic \n\tisCreator {\n\t\trequire(FINISHED, \"Judgement cannot be created until the forecast expired\");\n\t\tjudgesAddress = new Judgement_cli(_numJudges, _reward, _duration);\n\t}\n\n\tfunction applyJudgement() public isCreator {\n\t\tJudgement_cli judge = Judgement_cli(judgesAddress);\n\t\trequire(judge.FINISHED(), \"Judgement cannot be applied until consensus reached or court \");\n\t\tWINNING_OPTION_ID = judge.WINNING_OPTION_ID();\n\t\tJudgementApplied = true;\n\t}\n\n\n\t//\t  \n\tfunction payout() public not_contract returns (bool success) {\n\t\t//\t    ,  \n\t\t//\t   \n\t\trequire(JudgementApplied, \"Payout may be proceeded after Judgement only\");\n\t\tif (REWARD > MAX_REWARD)\n\t\t\tREWARD = MAX_REWARD;\n\n\t\tfor (uint256 i = 0; i < options[WINNING_OPTION_ID].voters.length; i++) {\n\t\t\toptions[WINNING_OPTION_ID].voters[i].transfer(REWARD);\n\t\t}\n\t\t//       \n\t\tcreator.transfer(address(this).balance);\n\t\temit Payout(TITLE, REWARD, PARTICIPANTS);\t\n\t\treturn true;\n\t}\n\t\n\t//\t     ( -> )\n\t//\t(        Solidity,\n\t//\t    )\n\tfunction assignDescription(uint256 _no, string memory _text) \n\tpublic \n\tisCreator \n\t{\n\t\trequire(!options[_no].descripted, \"Option is descripted already\");\n\t    options[_no].text = _text;\n\t    options[_no].descripted = true;\n\t    NUM_OPTIONS += 1;\n\t    emit Option_Assigned(TITLE, _no, _text);\n\t}\n\n\t//\t  ,    \"not_contract()\":\n\t//\t      ,   -  ()\n\tfunction isContract(address addr) private view returns (bool) {\n  \t\tuint size;\n  \t\tassembly \n  \t\t{ \n  \t\t\tsize := extcodesize(addr)\n  \t\t}\n  \t\treturn size > 0;\n\t}\n\n\tevent Forecast_Created(string title, address creator, uint256 timestamp, uint256 duration);\n\tevent Option_Assigned(string title, uint256 no, string text);\n\tevent Payout(string title, uint256 amount, address[] participants);\n\tevent Forecast_Finished(string title, string winningOption, uint256 timestamp);\n}\n",
  "sourcePath": "/home/vlatt/Desktop/work/contracts/Client Side/Forecast_cli.sol",
  "compiler": {
    "name": "solc",
    "version": "0.4.24+commit.e67f0147.Emscripten.clang"
  },
  "schemaVersion": "3.0.1",
  "updatedAt": "2019-02-08T13:25:04.987Z",
  "devdoc": {
    "methods": {}
  },
  "userdoc": {
    "methods": {}
  }
}