{
  "contractName": "Judgement_cli",
  "abi": [
    {
      "constant": true,
      "inputs": [],
      "name": "creator",
      "outputs": [
        {
          "name": "",
          "type": "address"
        }
      ],
      "payable": false,
      "stateMutability": "view",
      "type": "function"
    },
    {
      "constant": true,
      "inputs": [],
      "name": "WINNING_OPTION_ID",
      "outputs": [
        {
          "name": "",
          "type": "uint256"
        }
      ],
      "payable": false,
      "stateMutability": "view",
      "type": "function"
    },
    {
      "constant": true,
      "inputs": [],
      "name": "endTime",
      "outputs": [
        {
          "name": "",
          "type": "uint256"
        }
      ],
      "payable": false,
      "stateMutability": "view",
      "type": "function"
    },
    {
      "constant": true,
      "inputs": [],
      "name": "TITLE",
      "outputs": [
        {
          "name": "",
          "type": "string"
        }
      ],
      "payable": false,
      "stateMutability": "view",
      "type": "function"
    },
    {
      "constant": true,
      "inputs": [],
      "name": "beginTime",
      "outputs": [
        {
          "name": "",
          "type": "uint256"
        }
      ],
      "payable": false,
      "stateMutability": "view",
      "type": "function"
    },
    {
      "constant": true,
      "inputs": [],
      "name": "WINNING_OPTION",
      "outputs": [
        {
          "name": "",
          "type": "string"
        }
      ],
      "payable": false,
      "stateMutability": "view",
      "type": "function"
    },
    {
      "constant": true,
      "inputs": [],
      "name": "FINISHED",
      "outputs": [
        {
          "name": "",
          "type": "bool"
        }
      ],
      "payable": false,
      "stateMutability": "view",
      "type": "function"
    },
    {
      "constant": true,
      "inputs": [],
      "name": "REWARD",
      "outputs": [
        {
          "name": "",
          "type": "uint256"
        }
      ],
      "payable": false,
      "stateMutability": "view",
      "type": "function"
    },
    {
      "constant": true,
      "inputs": [
        {
          "name": "",
          "type": "uint256"
        }
      ],
      "name": "JUDGES",
      "outputs": [
        {
          "name": "",
          "type": "address"
        }
      ],
      "payable": false,
      "stateMutability": "view",
      "type": "function"
    },
    {
      "constant": true,
      "inputs": [],
      "name": "MAX_USERS",
      "outputs": [
        {
          "name": "",
          "type": "uint256"
        }
      ],
      "payable": false,
      "stateMutability": "view",
      "type": "function"
    },
    {
      "inputs": [
        {
          "name": "_maxJudges",
          "type": "uint256"
        },
        {
          "name": "_reward",
          "type": "uint256"
        },
        {
          "name": "_duration",
          "type": "uint256"
        }
      ],
      "payable": true,
      "stateMutability": "payable",
      "type": "constructor"
    },
    {
      "anonymous": false,
      "inputs": [
        {
          "indexed": false,
          "name": "Forecast_on_Court",
          "type": "address"
        },
        {
          "indexed": false,
          "name": "title",
          "type": "string"
        },
        {
          "indexed": false,
          "name": "timestamp",
          "type": "uint256"
        },
        {
          "indexed": false,
          "name": "Creator",
          "type": "address"
        },
        {
          "indexed": false,
          "name": "reward",
          "type": "uint256"
        }
      ],
      "name": "Judgement_Created",
      "type": "event"
    },
    {
      "anonymous": false,
      "inputs": [
        {
          "indexed": false,
          "name": "reason",
          "type": "string"
        },
        {
          "indexed": false,
          "name": "Forecast_on_Court",
          "type": "address"
        },
        {
          "indexed": false,
          "name": "winning_Option",
          "type": "string"
        },
        {
          "indexed": false,
          "name": "timestamp",
          "type": "uint256"
        }
      ],
      "name": "Judgement_Finished",
      "type": "event"
    },
    {
      "anonymous": false,
      "inputs": [
        {
          "indexed": false,
          "name": "title",
          "type": "string"
        },
        {
          "indexed": false,
          "name": "amount",
          "type": "uint256"
        },
        {
          "indexed": false,
          "name": "judges",
          "type": "address[]"
        },
        {
          "indexed": false,
          "name": "timestamp",
          "type": "uint256"
        }
      ],
      "name": "Payout",
      "type": "event"
    },
    {
      "constant": false,
      "inputs": [
        {
          "name": "_choice",
          "type": "uint256"
        }
      ],
      "name": "throwVote",
      "outputs": [],
      "payable": false,
      "stateMutability": "nonpayable",
      "type": "function"
    },
    {
      "constant": false,
      "inputs": [],
      "name": "finish",
      "outputs": [],
      "payable": false,
      "stateMutability": "nonpayable",
      "type": "function"
    },
    {
      "constant": false,
      "inputs": [
        {
          "name": "_no",
          "type": "uint256"
        },
        {
          "name": "_text",
          "type": "string"
        }
      ],
      "name": "assignDescription",
      "outputs": [],
      "payable": false,
      "stateMutability": "nonpayable",
      "type": "function"
    }
  ],
  "bytecode": "0x60806040526040516060806200192b83398101806040528101908080519060200190929190805190602001909291908051906020019092919050505060003390504260028190555081600254016003819055508073ffffffffffffffffffffffffffffffffffffffff166302d05d3f6040518163ffffffff167c0100000000000000000000000000000000000000000000000000000000028152600401602060405180830381600087803b158015620000b757600080fd5b505af1158015620000cc573d6000803e3d6000fd5b505050506040513d6020811015620000e357600080fd5b8101908080519060200190929190505050600a60006101000a81548173ffffffffffffffffffffffffffffffffffffffff021916908373ffffffffffffffffffffffffffffffffffffffff16021790555033600860006101000a81548173ffffffffffffffffffffffffffffffffffffffff021916908373ffffffffffffffffffffffffffffffffffffffff1602179055508073ffffffffffffffffffffffffffffffffffffffff16637ef838046040518163ffffffff167c0100000000000000000000000000000000000000000000000000000000028152600401600060405180830381600087803b158015620001da57600080fd5b505af1158015620001ef573d6000803e3d6000fd5b505050506040513d6000823e3d601f19601f8201168201806040525060208110156200021a57600080fd5b8101908080516401000000008111156200023357600080fd5b828101905060208101848111156200024a57600080fd5b81518560018202830111640100000000821117156200026857600080fd5b505092919050505060019080519060200190620002879291906200041e565b5082600481905550836005819055507f3050a4d217fecd1a00be7ce928ed260c6ce042f0e21ab972c827042f1dfc4f75600860009054906101000a900473ffffffffffffffffffffffffffffffffffffffff166001600254600a60009054906101000a900473ffffffffffffffffffffffffffffffffffffffff16600554604051808673ffffffffffffffffffffffffffffffffffffffff1673ffffffffffffffffffffffffffffffffffffffff168152602001806020018581526020018473ffffffffffffffffffffffffffffffffffffffff1673ffffffffffffffffffffffffffffffffffffffff168152602001838152602001828103825286818154600181600116156101000203166002900481526020019150805460018160011615610100020316600290048015620004025780601f10620003d65761010080835404028352916020019162000402565b820191906000526020600020905b815481529060010190602001808311620003e457829003601f168201915b5050965050505050505060405180910390a150505050620004cd565b828054600181600116156101000203166002900490600052602060002090601f016020900481019282601f106200046157805160ff191683800117855562000492565b8280016001018555821562000492579182015b828111156200049157825182559160200191906001019062000474565b5b509050620004a19190620004a5565b5090565b620004ca91905b80821115620004c6576000816000905550600101620004ac565b5090565b90565b61144e80620004dd6000396000f3006080604052600436106100c5576000357c0100000000000000000000000000000000000000000000000000000000900463ffffffff16806302d05d3f146100ca578063294f7b96146101215780633197cbb61461014c5780637ef838041461017757806388149fb9146102075780639f68989c14610232578063a97cb7c7146102c2578063b54e5e8f146102ef578063ca91a7741461031e578063cab34c0814610391578063d56b2889146103bc578063f3d6279b146103d3578063fa6ac13114610440575b600080fd5b3480156100d657600080fd5b506100df61046b565b604051808273ffffffffffffffffffffffffffffffffffffffff1673ffffffffffffffffffffffffffffffffffffffff16815260200191505060405180910390f35b34801561012d57600080fd5b50610136610491565b6040518082815260200191505060405180910390f35b34801561015857600080fd5b50610161610497565b6040518082815260200191505060405180910390f35b34801561018357600080fd5b5061018c61049d565b6040518080602001828103825283818151815260200191508051906020019080838360005b838110156101cc5780820151818401526020810190506101b1565b50505050905090810190601f1680156101f95780820380516001836020036101000a031916815260200191505b509250505060405180910390f35b34801561021357600080fd5b5061021c61053b565b6040518082815260200191505060405180910390f35b34801561023e57600080fd5b50610247610541565b6040518080602001828103825283818151815260200191508051906020019080838360005b8381101561028757808201518184015260208101905061026c565b50505050905090810190601f1680156102b45780820380516001836020036101000a031916815260200191505b509250505060405180910390f35b3480156102ce57600080fd5b506102ed600480360381019080803590602001909291905050506105df565b005b3480156102fb57600080fd5b50610304610ac7565b604051808215151515815260200191505060405180910390f35b34801561032a57600080fd5b5061038f60048036038101908080359060200190929190803590602001908201803590602001908080601f0160208091040260200160405190810160405280939291908181526020018383808284378201915050505050509192919290505050610ad9565b005b34801561039d57600080fd5b506103a6610c95565b6040518082815260200191505060405180910390f35b3480156103c857600080fd5b506103d1610c9b565b005b3480156103df57600080fd5b506103fe6004803603810190808035906020019092919050505061129f565b604051808273ffffffffffffffffffffffffffffffffffffffff1673ffffffffffffffffffffffffffffffffffffffff16815260200191505060405180910390f35b34801561044c57600080fd5b506104556112dd565b6040518082815260200191505060405180910390f35b600a60009054906101000a900473ffffffffffffffffffffffffffffffffffffffff1681565b60065481565b60035481565b60018054600181600116156101000203166002900480601f0160208091040260200160405190810160405280929190818152602001828054600181600116156101000203166002900480156105335780601f1061050857610100808354040283529160200191610533565b820191906000526020600020905b81548152906001019060200180831161051657829003601f168201915b505050505081565b60025481565b60078054600181600116156101000203166002900480601f0160208091040260200160405190810160405280929190818152602001828054600181600116156101000203166002900480156105d75780601f106105ac576101008083540402835291602001916105d7565b820191906000526020600020905b8154815290600101906020018083116105ba57829003601f168201915b505050505081565b6000806105eb336112e3565b151515610660576040517f08c379a000000000000000000000000000000000000000000000000000000000815260040180806020018281038252601b8152602001807f436f6e747261637420696e6a656374696f6e206465746563746564000000000081525060200191505060405180910390fd5b6000809054906101000a900460ff1615801561067d575060035442105b151561068857600080fd5b6000600b60003373ffffffffffffffffffffffffffffffffffffffff1673ffffffffffffffffffffffffffffffffffffffff16815260200190815260200160002090508060000160009054906101000a900460ff16151515610752576040517f08c379a00000000000000000000000000000000000000000000000000000000081526004018080602001828103825260108152602001807f43616e607420766f74652074776963650000000000000000000000000000000081525060200191505060405180910390fd5b3373ffffffffffffffffffffffffffffffffffffffff16600a60009054906101000a900473ffffffffffffffffffffffffffffffffffffffff1673ffffffffffffffffffffffffffffffffffffffff1614151515610818576040517f08c379a000000000000000000000000000000000000000000000000000000000815260040180806020018281038252601a8152602001807f43726561746f722063616e6074207468726f7720766f7465732100000000000081525060200191505060405180910390fd5b600554600980549050101515610896576040517f08c379a000000000000000000000000000000000000000000000000000000000815260040180806020018281038252601a8152602001807f4d6178696d756d206a756467657320636170207265616368656400000000000081525060200191505060405180910390fd5b600c600085815260200190815260200160002060030160009054906101000a900460ff161515610954576040517f08c379a00000000000000000000000000000000000000000000000000000000081526004018080602001828103825260228152602001807f4f7074696f6e206d75737420626520646573637269707465642066697273746c81526020017f792100000000000000000000000000000000000000000000000000000000000081525060400191505060405180910390fd5b600b60003373ffffffffffffffffffffffffffffffffffffffff1673ffffffffffffffffffffffffffffffffffffffff1681526020019081526020016000209250600c6000858152602001908152602001600020915060093390806001815401808255809150509060018203906000526020600020016000909192909190916101000a81548173ffffffffffffffffffffffffffffffffffffffff021916908373ffffffffffffffffffffffffffffffffffffffff1602179055505060018360000160006101000a81548160ff021916908315150217905550838360020181905550816002013390806001815401808255809150509060018203906000526020600020016000909192909190916101000a81548173ffffffffffffffffffffffffffffffffffffffff021916908373ffffffffffffffffffffffffffffffffffffffff1602179055505060646009805490508360020180549050811515610ab757fe5b0402826001018190555050505050565b6000809054906101000a900460ff1681565b3373ffffffffffffffffffffffffffffffffffffffff16600a60009054906101000a900473ffffffffffffffffffffffffffffffffffffffff1673ffffffffffffffffffffffffffffffffffffffff16141515610b9e576040517f08c379a00000000000000000000000000000000000000000000000000000000081526004018080602001828103825260158152602001807f466f722063726561746f722075736573206f6e6c79000000000000000000000081525060200191505060405180910390fd5b600c600083815260200190815260200160002060030160009054906101000a900460ff16151515610c37576040517f08c379a000000000000000000000000000000000000000000000000000000000815260040180806020018281038252601c8152602001807f4f7074696f6e206973206465736372697074656420616c72656164790000000081525060200191505060405180910390fd5b80600c60008481526020019081526020016000206000019080519060200190610c619291906112f6565b506001600c600084815260200190815260200160002060030160006101000a81548160ff0219169083151502179055505050565b60045481565b6000806000803373ffffffffffffffffffffffffffffffffffffffff16600a60009054906101000a900473ffffffffffffffffffffffffffffffffffffffff1673ffffffffffffffffffffffffffffffffffffffff16141515610d66576040517f08c379a00000000000000000000000000000000000000000000000000000000081526004018080602001828103825260158152602001807f466f722063726561746f722075736573206f6e6c79000000000000000000000081525060200191505060405180910390fd5b60016000806101000a81548160ff021916908315150217905550600091505b600980549050821015610e215783600c6000848152602001908152602001600020600201805490501115610dd357600c60008381526020019081526020016000206002018054905093508192505b82600681905550600c6000600654815260200190815260200160002060000160079080546001816001161561010002031660029004610e13929190611376565b508180600101925050610d85565b605f600c600085815260200190815260200160002060010154101515611062577fa1cba4d8261c709d7fe5d51630efc03050615dcf8226c0b508662e4bff0f0093600860009054906101000a900473ffffffffffffffffffffffffffffffffffffffff16600c600060065481526020019081526020016000206000014260405180806020018573ffffffffffffffffffffffffffffffffffffffff1673ffffffffffffffffffffffffffffffffffffffff16815260200180602001848152602001838103835260278152602001807f4e6f20436f6e73656e737573206265747765656e20746865206a75646765732081526020017f7265616368656400000000000000000000000000000000000000000000000000815250604001838103825285818154600181600116156101000203166002900481526020019150805460018160011615610100020316600290048015610fbd5780601f10610f9257610100808354040283529160200191610fbd565b820191906000526020600020905b815481529060010190602001808311610fa057829003601f168201915b50509550505050505060405180910390a16040517f08c379a000000000000000000000000000000000000000000000000000000000815260040180806020018281038252602a8152602001807f436f6e73656e737573206e6f7420726561636865642e2044656c65676174696e81526020017f67206f6e2061646d696e0000000000000000000000000000000000000000000081525060400191505060405180910390fd5b7fa1cba4d8261c709d7fe5d51630efc03050615dcf8226c0b508662e4bff0f0093600860009054906101000a900473ffffffffffffffffffffffffffffffffffffffff16600c600060065481526020019081526020016000206000014260405180806020018573ffffffffffffffffffffffffffffffffffffffff1673ffffffffffffffffffffffffffffffffffffffff16815260200180602001848152602001838103835260128152602001807f436f6e73656e73757320726561636865642e00000000000000000000000000008152506020018381038252858181546001816001161561010002031660029004815260200191508054600181600116156101000203166002900480156111b85780601f1061118d576101008083540402835291602001916111b8565b820191906000526020600020905b81548152906001019060200180831161119b57829003601f168201915b50509550505050505060405180910390a1600c600060065481526020019081526020016000206002019050600091505b808054905082101561129957600c600060065481526020019081526020016000206002018281548110151561121957fe5b9060005260206000200160009054906101000a900473ffffffffffffffffffffffffffffffffffffffff1673ffffffffffffffffffffffffffffffffffffffff166108fc6004549081150290604051600060405180830381858888f1935050505015801561128b573d6000803e3d6000fd5b5081806001019250506111e8565b50505050565b6009818154811015156112ae57fe5b906000526020600020016000915054906101000a900473ffffffffffffffffffffffffffffffffffffffff1681565b60055481565b600080823b905060008111915050919050565b828054600181600116156101000203166002900490600052602060002090601f016020900481019282601f1061133757805160ff1916838001178555611365565b82800160010185558215611365579182015b82811115611364578251825591602001919060010190611349565b5b50905061137291906113fd565b5090565b828054600181600116156101000203166002900490600052602060002090601f016020900481019282601f106113af57805485556113ec565b828001600101855582156113ec57600052602060002091601f016020900482015b828111156113eb5782548255916001019190600101906113d0565b5b5090506113f991906113fd565b5090565b61141f91905b8082111561141b576000816000905550600101611403565b5090565b905600a165627a7a72305820fdeae3cd489edce990ee5bb704926933458d62cc52d531d34d426b1bad7569fe0029",
  "source": "pragma solidity ^0.4.24;\nimport \"./Forecast_cli.sol\";\ncontract Judgement_cli {\n\n//ГЛОБАЛЬНЫЕ ПЕРЕМЕННЫЕ\n\n\tbool public FINISHED;\t\t// Shows whether the quiz is opened/closed;\n\n\tstring public TITLE; \n\n    uint256 public beginTime;\t//\tQuiz start time (block timestamp at the start)\n    uint256 public endTime;\n    \n    uint256 public REWARD;\t\t//\tDynamically calculated reward based on JUDGES.length\n    uint256 public MAX_USERS;\t//  Maximal quiantity of judges specified by creator\t\n\n\n    uint256 public WINNING_OPTION_ID;      //  Текст варианта, набравшего наибольшее количество голосов\n    string public WINNING_OPTION;\n\n    address FORECAST_ON_COURT;\n\n    address[] public JUDGES;\n\n    //\tСтруктура пользователя: голосовал ли ранее (да/нет), эл.почта, выбранный вариант ответа (номер)\n\tstruct Judge {\t\n\t    bool already;\n\t\tstring email;\n\t\tuint256 choice;\n\t}\n\n\t//\tСтруктура варианта ответа (опции): текстовое описание, число проголосовавших \"За\"\n\tstruct Option {\n\t\tstring text;\n\t\tuint256 percent;\n\t\taddress[] voters;\n\t\tbool descripted;\n\t}\n\n\t//\tАдрес создателя опроса в сети Ethereum \n\t//\t(определяется непосредственно при создании контракта опроса)\n\taddress public creator;\n\n\t// Соответствие между адресами в сети Ethereum и Пользователями опроса\n\tmapping (address => Judge) judges;\n\n\t//\tМассив вариантов ответа\n\tmapping (uint256 => Option) options;\n\n//ФУНКЦИОНАЛЬНАЯ ЧАСТЬ\n\n\t//\tКлассический модификатор проверки исполнителя функции:\n\t//\tСерия выплат может быть инициирована только с контракта создателя опроса\n\tmodifier isCreator() {\n\t\trequire(creator == msg.sender, \"For creator uses only\");\n\t\t_;\n\t}\n\n\t//\tМодификатор функции, проверяющий, проходит ли опрос до сих пор\n\tmodifier still_on() {\n\t    require(!FINISHED && now < endTime);\n\t    _;\n\t}\n\t\n\t//\tМодификатор проверки двойного голосования: \n\t//\tпользователь может обратиться к throwVote лишь один раз\n\tmodifier no_double_vote() {\n\t    Judge storage u = judges[msg.sender];\n\t    require(!u.already, \"Can`t vote twice\");\n\t    _;\n\t}\n\n\t//\tМодификатор проверки адреса на наличие исполняемого кода:\n\t//\tНельзя допустить попадания в список участников АККАУНТОВ-КОНТРАКТОВ,\n\t//\tпоскольку именно при помощи последних могут быть произведены попытки взлома\n\tmodifier not_contract() {\n\t\trequire(!isContract(msg.sender), \"Contract injection detected\");\n\t\t_;\n\t}\n\t\n\t//\tКонструктор контракта, создающий опрос с определенным количеством варианта\n\tconstructor\n\t(\n\t\tuint256 _maxJudges, \n\t\tuint256 _reward,\n\t\tuint256 _duration\n\t) \n\tpublic\n\tpayable \n\t{\n\t\tForecast_cli fc = Forecast_cli(msg.sender);\n\t    beginTime = now;\n\t    endTime = beginTime + _duration;\n\t    creator = fc.creator();\n\t    FORECAST_ON_COURT = msg.sender;\n\t    TITLE = fc.TITLE();\n\t    REWARD = _reward;\n\t    MAX_USERS = _maxJudges;\n\n\t    emit Judgement_Created(\n\t    \tFORECAST_ON_COURT ,\n\t    \tTITLE,\n\t    \tbeginTime, \n\t    \tcreator,\n\t    \tMAX_USERS\n\t    );\t\n\t}\n\t\n\t//\tФункция отправки голоса за определенный вариант (номер)\n\tfunction throwVote(uint256 _choice) \n\tpublic\n\tnot_contract\n\tstill_on\n\tno_double_vote\n\t{\n\t\trequire(creator != msg.sender, \"Creator can`t throw votes!\");\n\t\trequire(JUDGES.length < MAX_USERS, \"Maximum judges cap reached\");\n\t\trequire(options[_choice].descripted, \"Option must be descripted firstly!\");\n\n\t\tJudge storage u = judges[msg.sender];\n\t\tOption storage op = options[_choice];\n\n\t\tJUDGES.push(msg.sender);\n\n\t    u.already = true;\n\t    u.choice = _choice;\n\n\t    op.voters.push(msg.sender);\n\t    op.percent = op.voters.length / JUDGES.length * 100;\n\t}\n\n\tfunction finish() isCreator public {\n\t\tFINISHED = true;\n\t\tuint256 max;\n\t    uint256 winner;\n\t    for (uint256 i = 0; i < JUDGES.length; i++) {\n\t        if (options[i].voters.length > max) {\n\t            max = options[i].voters.length;\n\t            winner = i;\n\t        }\n\t        WINNING_OPTION_ID = winner;\n\t        WINNING_OPTION = options[WINNING_OPTION_ID].text;\n\t    }\n\t    if (options[winner].percent >= 95) {\n\t    \temit Judgement_Finished(\n\t    \t    \"No Consensus between the judges reached\",\n\t    \t    FORECAST_ON_COURT,\n\t    \t    options[WINNING_OPTION_ID].text,\n\t    \t    now\n\t    \t);\n\t    \trevert(\"Consensus not reached. Delegating on admin\");\n\t    }\n\t    emit Judgement_Finished(\n\t        \"Consensus reached.\", \n\t        FORECAST_ON_COURT, \n\t        options[WINNING_OPTION_ID].text,\n\t        now\n\t    );\n        \n        address[] storage guessed = options[WINNING_OPTION_ID].voters ;\n\t    for (i = 0; i < guessed.length; i++) {\n\t\t\toptions[WINNING_OPTION_ID].voters[i].transfer(REWARD);\n\t\t}\n\t}\n\t\n\t//\tВспомогательная функция описания вариантов ответов (номер -> описание)\n\t//\t(Нужна ввиду отсутствия поддержки многомерных динамических массивов в Solidity,\n\t//\tкоим и является массив строк)\n\tfunction assignDescription(uint256 _no, string memory _text) \n\tpublic \n\tisCreator \n\t{\n\t\trequire(!options[_no].descripted, \"Option is descripted already\");\n\t    options[_no].text = _text;\n\t    options[_no].descripted = true;\n\t}\n\n\t//\tФункция проверки адреса, используемая в модификаторе \"not_contract()\":\n\t//\tЕсли объем исполняемого кода адреса больше нуля, значит отправитель - контракт (жулик)\n\tfunction isContract(address addr) private view returns (bool) {\n  \t\tuint size;\n  \t\tassembly \n  \t\t{ \n  \t\t\tsize := extcodesize(addr)\n  \t\t}\n  \t\treturn size > 0;\n\t}\n\n\tevent Judgement_Created(\n\t\taddress Forecast_on_Court, \n\t\tstring title, \n\t\tuint256 timestamp, \n\t\taddress Creator, \n\t\tuint256 reward\n\t);\n\t\n\tevent Judgement_Finished(\n\t\tstring reason, \n\t\taddress Forecast_on_Court,\n\t\tstring winning_Option,\n\t\tuint256 timestamp\n\t);\n\t\n\tevent Payout(string title, uint256 amount, address[] judges, uint256 timestamp);\n}\n",
  "sourcePath": "/home/vlatt/Desktop/work/contracts/Client Side/Judgement_cli.sol",
  "compiler": {
    "name": "solc",
    "version": "0.4.24+commit.e67f0147.Emscripten.clang"
  },
  "schemaVersion": "3.0.1",
  "updatedAt": "2019-02-08T13:25:04.971Z",
  "devdoc": {
    "methods": {}
  },
  "userdoc": {
    "methods": {}
  }
}