{
  "contractName": "Judgement",
  "abi": [
    {
      "constant": true,
      "inputs": [],
      "name": "creator",
      "outputs": [
        {
          "name": "",
          "type": "address"
        }
      ],
      "payable": false,
      "stateMutability": "view",
      "type": "function"
    },
    {
      "constant": true,
      "inputs": [],
      "name": "WINNING_OPTION_ID",
      "outputs": [
        {
          "name": "",
          "type": "uint256"
        }
      ],
      "payable": false,
      "stateMutability": "view",
      "type": "function"
    },
    {
      "constant": true,
      "inputs": [],
      "name": "endTime",
      "outputs": [
        {
          "name": "",
          "type": "uint256"
        }
      ],
      "payable": false,
      "stateMutability": "view",
      "type": "function"
    },
    {
      "constant": true,
      "inputs": [],
      "name": "TITLE",
      "outputs": [
        {
          "name": "",
          "type": "string"
        }
      ],
      "payable": false,
      "stateMutability": "view",
      "type": "function"
    },
    {
      "constant": true,
      "inputs": [],
      "name": "beginTime",
      "outputs": [
        {
          "name": "",
          "type": "uint256"
        }
      ],
      "payable": false,
      "stateMutability": "view",
      "type": "function"
    },
    {
      "constant": true,
      "inputs": [],
      "name": "WINNING_OPTION",
      "outputs": [
        {
          "name": "",
          "type": "string"
        }
      ],
      "payable": false,
      "stateMutability": "view",
      "type": "function"
    },
    {
      "constant": true,
      "inputs": [],
      "name": "FINISHED",
      "outputs": [
        {
          "name": "",
          "type": "bool"
        }
      ],
      "payable": false,
      "stateMutability": "view",
      "type": "function"
    },
    {
      "constant": true,
      "inputs": [],
      "name": "REWARD",
      "outputs": [
        {
          "name": "",
          "type": "uint256"
        }
      ],
      "payable": false,
      "stateMutability": "view",
      "type": "function"
    },
    {
      "constant": true,
      "inputs": [
        {
          "name": "",
          "type": "uint256"
        }
      ],
      "name": "JUDGES",
      "outputs": [
        {
          "name": "",
          "type": "address"
        }
      ],
      "payable": false,
      "stateMutability": "view",
      "type": "function"
    },
    {
      "constant": true,
      "inputs": [],
      "name": "MAX_USERS",
      "outputs": [
        {
          "name": "",
          "type": "uint256"
        }
      ],
      "payable": false,
      "stateMutability": "view",
      "type": "function"
    },
    {
      "inputs": [
        {
          "name": "_creator",
          "type": "address"
        },
        {
          "name": "_title",
          "type": "string"
        },
        {
          "name": "_maxJudges",
          "type": "uint256"
        },
        {
          "name": "_reward",
          "type": "uint256"
        },
        {
          "name": "_duration",
          "type": "uint256"
        }
      ],
      "payable": true,
      "stateMutability": "payable",
      "type": "constructor"
    },
    {
      "anonymous": false,
      "inputs": [
        {
          "indexed": false,
          "name": "Forecast_on_Court",
          "type": "address"
        },
        {
          "indexed": false,
          "name": "title",
          "type": "string"
        },
        {
          "indexed": false,
          "name": "timestamp",
          "type": "uint256"
        },
        {
          "indexed": false,
          "name": "Creator",
          "type": "address"
        },
        {
          "indexed": false,
          "name": "reward",
          "type": "uint256"
        }
      ],
      "name": "Judgement_Created",
      "type": "event"
    },
    {
      "anonymous": false,
      "inputs": [
        {
          "indexed": false,
          "name": "reason",
          "type": "string"
        },
        {
          "indexed": false,
          "name": "Forecast_on_Court",
          "type": "address"
        },
        {
          "indexed": false,
          "name": "winning_Option",
          "type": "string"
        },
        {
          "indexed": false,
          "name": "timestamp",
          "type": "uint256"
        }
      ],
      "name": "Judgement_Finished",
      "type": "event"
    },
    {
      "anonymous": false,
      "inputs": [
        {
          "indexed": false,
          "name": "title",
          "type": "string"
        },
        {
          "indexed": false,
          "name": "amount",
          "type": "uint256"
        },
        {
          "indexed": false,
          "name": "judges",
          "type": "address[]"
        },
        {
          "indexed": false,
          "name": "timestamp",
          "type": "uint256"
        }
      ],
      "name": "Payout",
      "type": "event"
    },
    {
      "constant": false,
      "inputs": [
        {
          "name": "_for",
          "type": "address"
        },
        {
          "name": "_choice",
          "type": "uint256"
        }
      ],
      "name": "throwVote",
      "outputs": [],
      "payable": false,
      "stateMutability": "nonpayable",
      "type": "function"
    },
    {
      "constant": false,
      "inputs": [],
      "name": "finish",
      "outputs": [],
      "payable": false,
      "stateMutability": "nonpayable",
      "type": "function"
    },
    {
      "constant": false,
      "inputs": [
        {
          "name": "_no",
          "type": "uint256"
        },
        {
          "name": "_text",
          "type": "string"
        }
      ],
      "name": "assignDescription",
      "outputs": [],
      "payable": false,
      "stateMutability": "nonpayable",
      "type": "function"
    }
  ],
  "bytecode": "0x60806040526040516200173438038062001734833981018060405281019080805190602001909291908051820192919060200180519060200190929190805190602001909291908051906020019092919050505042600281905550806002540160038190555084600a60006101000a81548173ffffffffffffffffffffffffffffffffffffffff021916908373ffffffffffffffffffffffffffffffffffffffff16021790555033600860006101000a81548173ffffffffffffffffffffffffffffffffffffffff021916908373ffffffffffffffffffffffffffffffffffffffff1602179055508360019080519060200190620000ff92919062000297565b5081600481905550826005819055507f3050a4d217fecd1a00be7ce928ed260c6ce042f0e21ab972c827042f1dfc4f75600860009054906101000a900473ffffffffffffffffffffffffffffffffffffffff166001600254600a60009054906101000a900473ffffffffffffffffffffffffffffffffffffffff16600554604051808673ffffffffffffffffffffffffffffffffffffffff1673ffffffffffffffffffffffffffffffffffffffff168152602001806020018581526020018473ffffffffffffffffffffffffffffffffffffffff1673ffffffffffffffffffffffffffffffffffffffff1681526020018381526020018281038252868181546001816001161561010002031660029004815260200191508054600181600116156101000203166002900480156200027a5780601f106200024e576101008083540402835291602001916200027a565b820191906000526020600020905b8154815290600101906020018083116200025c57829003601f168201915b5050965050505050505060405180910390a1505050505062000346565b828054600181600116156101000203166002900490600052602060002090601f016020900481019282601f10620002da57805160ff19168380011785556200030b565b828001600101855582156200030b579182015b828111156200030a578251825591602001919060010190620002ed565b5b5090506200031a91906200031e565b5090565b6200034391905b808211156200033f57600081600090555060010162000325565b5090565b90565b6113de80620003566000396000f3006080604052600436106100c5576000357c0100000000000000000000000000000000000000000000000000000000900463ffffffff16806302d05d3f146100ca578063294f7b96146101215780633197cbb61461014c5780637ef838041461017757806388149fb9146102075780639f68989c14610232578063b54e5e8f146102c2578063ca91a774146102f1578063cab34c0814610364578063d56b28891461038f578063df7b0d3a146103a6578063f3d6279b146103f3578063fa6ac13114610460575b600080fd5b3480156100d657600080fd5b506100df61048b565b604051808273ffffffffffffffffffffffffffffffffffffffff1673ffffffffffffffffffffffffffffffffffffffff16815260200191505060405180910390f35b34801561012d57600080fd5b506101366104b1565b6040518082815260200191505060405180910390f35b34801561015857600080fd5b506101616104b7565b6040518082815260200191505060405180910390f35b34801561018357600080fd5b5061018c6104bd565b6040518080602001828103825283818151815260200191508051906020019080838360005b838110156101cc5780820151818401526020810190506101b1565b50505050905090810190601f1680156101f95780820380516001836020036101000a031916815260200191505b509250505060405180910390f35b34801561021357600080fd5b5061021c61055b565b6040518082815260200191505060405180910390f35b34801561023e57600080fd5b50610247610561565b6040518080602001828103825283818151815260200191508051906020019080838360005b8381101561028757808201518184015260208101905061026c565b50505050905090810190601f1680156102b45780820380516001836020036101000a031916815260200191505b509250505060405180910390f35b3480156102ce57600080fd5b506102d76105ff565b604051808215151515815260200191505060405180910390f35b3480156102fd57600080fd5b5061036260048036038101908080359060200190929190803590602001908201803590602001908080601f0160208091040260200160405190810160405280939291908181526020018383808284378201915050505050509192919290505050610611565b005b34801561037057600080fd5b506103796107cd565b6040518082815260200191505060405180910390f35b34801561039b57600080fd5b506103a46107d3565b005b3480156103b257600080fd5b506103f1600480360381019080803573ffffffffffffffffffffffffffffffffffffffff16906020019092919080359060200190929190505050610dd7565b005b3480156103ff57600080fd5b5061041e60048036038101908080359060200190929190505050611242565b604051808273ffffffffffffffffffffffffffffffffffffffff1673ffffffffffffffffffffffffffffffffffffffff16815260200191505060405180910390f35b34801561046c57600080fd5b50610475611280565b6040518082815260200191505060405180910390f35b600a60009054906101000a900473ffffffffffffffffffffffffffffffffffffffff1681565b60065481565b60035481565b60018054600181600116156101000203166002900480601f0160208091040260200160405190810160405280929190818152602001828054600181600116156101000203166002900480156105535780601f1061052857610100808354040283529160200191610553565b820191906000526020600020905b81548152906001019060200180831161053657829003601f168201915b505050505081565b60025481565b60078054600181600116156101000203166002900480601f0160208091040260200160405190810160405280929190818152602001828054600181600116156101000203166002900480156105f75780601f106105cc576101008083540402835291602001916105f7565b820191906000526020600020905b8154815290600101906020018083116105da57829003601f168201915b505050505081565b6000809054906101000a900460ff1681565b3373ffffffffffffffffffffffffffffffffffffffff16600a60009054906101000a900473ffffffffffffffffffffffffffffffffffffffff1673ffffffffffffffffffffffffffffffffffffffff161415156106d6576040517f08c379a00000000000000000000000000000000000000000000000000000000081526004018080602001828103825260158152602001807f466f722063726561746f722075736573206f6e6c79000000000000000000000081525060200191505060405180910390fd5b600c600083815260200190815260200160002060030160009054906101000a900460ff1615151561076f576040517f08c379a000000000000000000000000000000000000000000000000000000000815260040180806020018281038252601c8152602001807f4f7074696f6e206973206465736372697074656420616c72656164790000000081525060200191505060405180910390fd5b80600c60008481526020019081526020016000206000019080519060200190610799929190611286565b506001600c600084815260200190815260200160002060030160006101000a81548160ff0219169083151502179055505050565b60045481565b6000806000803373ffffffffffffffffffffffffffffffffffffffff16600a60009054906101000a900473ffffffffffffffffffffffffffffffffffffffff1673ffffffffffffffffffffffffffffffffffffffff1614151561089e576040517f08c379a00000000000000000000000000000000000000000000000000000000081526004018080602001828103825260158152602001807f466f722063726561746f722075736573206f6e6c79000000000000000000000081525060200191505060405180910390fd5b60016000806101000a81548160ff021916908315150217905550600091505b6009805490508210156109595783600c600084815260200190815260200160002060020180549050111561090b57600c60008381526020019081526020016000206002018054905093508192505b82600681905550600c600060065481526020019081526020016000206000016007908054600181600116156101000203166002900461094b929190611306565b5081806001019250506108bd565b605f600c600085815260200190815260200160002060010154101515610b9a577fa1cba4d8261c709d7fe5d51630efc03050615dcf8226c0b508662e4bff0f0093600860009054906101000a900473ffffffffffffffffffffffffffffffffffffffff16600c600060065481526020019081526020016000206000014260405180806020018573ffffffffffffffffffffffffffffffffffffffff1673ffffffffffffffffffffffffffffffffffffffff16815260200180602001848152602001838103835260278152602001807f4e6f20436f6e73656e737573206265747765656e20746865206a75646765732081526020017f7265616368656400000000000000000000000000000000000000000000000000815250604001838103825285818154600181600116156101000203166002900481526020019150805460018160011615610100020316600290048015610af55780601f10610aca57610100808354040283529160200191610af5565b820191906000526020600020905b815481529060010190602001808311610ad857829003601f168201915b50509550505050505060405180910390a16040517f08c379a000000000000000000000000000000000000000000000000000000000815260040180806020018281038252602a8152602001807f436f6e73656e737573206e6f7420726561636865642e2044656c65676174696e81526020017f67206f6e2061646d696e0000000000000000000000000000000000000000000081525060400191505060405180910390fd5b7fa1cba4d8261c709d7fe5d51630efc03050615dcf8226c0b508662e4bff0f0093600860009054906101000a900473ffffffffffffffffffffffffffffffffffffffff16600c600060065481526020019081526020016000206000014260405180806020018573ffffffffffffffffffffffffffffffffffffffff1673ffffffffffffffffffffffffffffffffffffffff16815260200180602001848152602001838103835260128152602001807f436f6e73656e73757320726561636865642e0000000000000000000000000000815250602001838103825285818154600181600116156101000203166002900481526020019150805460018160011615610100020316600290048015610cf05780601f10610cc557610100808354040283529160200191610cf0565b820191906000526020600020905b815481529060010190602001808311610cd357829003601f168201915b50509550505050505060405180910390a1600c600060065481526020019081526020016000206002019050600091505b8080549050821015610dd157600c6000600654815260200190815260200160002060020182815481101515610d5157fe5b9060005260206000200160009054906101000a900473ffffffffffffffffffffffffffffffffffffffff1673ffffffffffffffffffffffffffffffffffffffff166108fc6004549081150290604051600060405180830381858888f19350505050158015610dc3573d6000803e3d6000fd5b508180600101925050610d20565b50505050565b6000806000809054906101000a900460ff16158015610df7575060035442105b1515610e0257600080fd5b6000600b60003373ffffffffffffffffffffffffffffffffffffffff1673ffffffffffffffffffffffffffffffffffffffff16815260200190815260200160002090508060000160009054906101000a900460ff16151515610ecc576040517f08c379a00000000000000000000000000000000000000000000000000000000081526004018080602001828103825260108152602001807f43616e607420766f74652074776963650000000000000000000000000000000081525060200191505060405180910390fd5b8473ffffffffffffffffffffffffffffffffffffffff16600a60009054906101000a900473ffffffffffffffffffffffffffffffffffffffff1673ffffffffffffffffffffffffffffffffffffffff1614151515610f92576040517f08c379a000000000000000000000000000000000000000000000000000000000815260040180806020018281038252601a8152602001807f43726561746f722063616e6074207468726f7720766f7465732100000000000081525060200191505060405180910390fd5b600554600980549050101515611010576040517f08c379a000000000000000000000000000000000000000000000000000000000815260040180806020018281038252601a8152602001807f4d6178696d756d206a756467657320636170207265616368656400000000000081525060200191505060405180910390fd5b600c600085815260200190815260200160002060030160009054906101000a900460ff1615156110ce576040517f08c379a00000000000000000000000000000000000000000000000000000000081526004018080602001828103825260228152602001807f4f7074696f6e206d75737420626520646573637269707465642066697273746c81526020017f792100000000000000000000000000000000000000000000000000000000000081525060400191505060405180910390fd5b600b60008673ffffffffffffffffffffffffffffffffffffffff1673ffffffffffffffffffffffffffffffffffffffff1681526020019081526020016000209250600c6000858152602001908152602001600020915060098590806001815401808255809150509060018203906000526020600020016000909192909190916101000a81548173ffffffffffffffffffffffffffffffffffffffff021916908373ffffffffffffffffffffffffffffffffffffffff1602179055505060018360000160006101000a81548160ff021916908315150217905550838360020181905550816002018590806001815401808255809150509060018203906000526020600020016000909192909190916101000a81548173ffffffffffffffffffffffffffffffffffffffff021916908373ffffffffffffffffffffffffffffffffffffffff160217905550506064600980549050836002018054905081151561123157fe5b040282600101819055505050505050565b60098181548110151561125157fe5b906000526020600020016000915054906101000a900473ffffffffffffffffffffffffffffffffffffffff1681565b60055481565b828054600181600116156101000203166002900490600052602060002090601f016020900481019282601f106112c757805160ff19168380011785556112f5565b828001600101855582156112f5579182015b828111156112f45782518255916020019190600101906112d9565b5b509050611302919061138d565b5090565b828054600181600116156101000203166002900490600052602060002090601f016020900481019282601f1061133f578054855561137c565b8280016001018555821561137c57600052602060002091601f016020900482015b8281111561137b578254825591600101919060010190611360565b5b509050611389919061138d565b5090565b6113af91905b808211156113ab576000816000905550600101611393565b5090565b905600a165627a7a72305820c4860ae3dbc5539d57d6f1a852bed403c60b5667de2485c638f3d8defd5072060029",
  "source": "pragma solidity ^0.4.24;\nimport \"./Forecast.sol\";\ncontract Judgement {\n\n//ГЛОБАЛЬНЫЕ ПЕРЕМЕННЫЕ\n\n\tbool public FINISHED;\t\t// Shows whether the quiz is opened/closed;\n\n\tstring public TITLE; \n\n    uint256 public beginTime;\t//\tQuiz start time (block timestamp at the start)\n    uint256 public endTime;\n    \n    uint256 public REWARD;\t\t//\tDynamically calculated reward based on JUDGES.length\n    uint256 public MAX_USERS;\t//  Maximal quiantity of judges specified by creator\t\n\n\n    uint256 public WINNING_OPTION_ID;      //  Текст варианта, набравшего наибольшее количество голосов\n    string public WINNING_OPTION;\n\n    address FORECAST_ON_COURT;\n\n    address[] public JUDGES;\n\n    //\tСтруктура пользователя: голосовал ли ранее (да/нет), эл.почта, выбранный вариант ответа (номер)\n\tstruct Judge {\t\n\t    bool already;\n\t\tstring email;\n\t\tuint256 choice;\n\t}\n\n\t//\tСтруктура варианта ответа (опции): текстовое описание, число проголосовавших \"За\"\n\tstruct Option {\n\t\tstring text;\n\t\tuint256 percent;\n\t\taddress[] voters;\n\t\tbool descripted;\n\t}\n\n\t//\tАдрес создателя опроса в сети Ethereum \n\t//\t(определяется непосредственно при создании контракта опроса)\n\taddress public creator;\n\n\t// Соответствие между адресами в сети Ethereum и Пользователями опроса\n\tmapping (address => Judge) judges;\n\n\t//\tМассив вариантов ответа\n\tmapping (uint256 => Option) options;\n\n//ФУНКЦИОНАЛЬНАЯ ЧАСТЬ\n\n\t//\tКлассический модификатор проверки исполнителя функции:\n\t//\tСерия выплат может быть инициирована только с контракта создателя опроса\n\tmodifier isCreator() {\n\t\trequire(creator == msg.sender, \"For creator uses only\");\n\t\t_;\n\t}\n\n\t//\tМодификатор функции, проверяющий, проходит ли опрос до сих пор\n\tmodifier still_on() {\n\t    require(!FINISHED && now < endTime);\n\t    _;\n\t}\n\t\n\t//\tМодификатор проверки двойного голосования: \n\t//\tпользователь может обратиться к throwVote лишь один раз\n\tmodifier no_double_vote() {\n\t    Judge storage u = judges[msg.sender];\n\t    require(!u.already, \"Can`t vote twice\");\n\t    _;\n\t}\n\n\t//\tМодификатор проверки адреса на наличие исполняемого кода:\n\t//\tНельзя допустить попадания в список участников АККАУНТОВ-КОНТРАКТОВ,\n\t//\tпоскольку именно при помощи последних могут быть произведены попытки взлома\n\tmodifier not_contract() {\n\t\trequire(!isContract(msg.sender), \"Contract injection detected\");\n\t\t_;\n\t}\n\t\n\t//\tКонструктор контракта, создающий опрос с определенным количеством варианта\n\tconstructor\n\t(\n\t    address _creator,\n\t\tstring _title, \n\t\tuint256 _maxJudges, \n\t\tuint256 _reward,\n\t\tuint256 _duration\n\t) \n\tpublic\n\tpayable \n\t{\n\t    beginTime = now;\n\t    endTime = beginTime + _duration;\n\t    creator = _creator;\n\t    FORECAST_ON_COURT = msg.sender;\n\t    TITLE = _title;\n\t    REWARD = _reward;\n\t    MAX_USERS = _maxJudges;\n\n\t    emit Judgement_Created(\n\t    \tFORECAST_ON_COURT ,\n\t    \tTITLE,\n\t    \tbeginTime, \n\t    \tcreator,\n\t    \tMAX_USERS\n\t    );\t\n\t}\n\t\n\t//\tФункция отправки голоса за определенный вариант (номер)\n\tfunction throwVote(address _for, uint256 _choice) \n\tpublic\n\tstill_on\n\tno_double_vote\n\t{\n\t\trequire(creator != _for, \"Creator can`t throw votes!\");\n\t\trequire(JUDGES.length < MAX_USERS, \"Maximum judges cap reached\");\n\t\trequire(options[_choice].descripted, \"Option must be descripted firstly!\");\n\n\t\tJudge storage u = judges[_for];\n\t\tOption storage op = options[_choice];\n\n\t\tJUDGES.push(_for);\n\n\t    u.already = true;\n\t    u.choice = _choice;\n\n\t    op.voters.push(_for);\n\t    op.percent = op.voters.length / JUDGES.length * 100;\n\t}\n\n\tfunction finish() isCreator public {\n\t\tFINISHED = true;\n\t\tuint256 max;\n\t    uint256 winner;\n\t    for (uint256 i = 0; i < JUDGES.length; i++) {\n\t        if (options[i].voters.length > max) {\n\t            max = options[i].voters.length;\n\t            winner = i;\n\t        }\n\t        WINNING_OPTION_ID = winner;\n\t        WINNING_OPTION = options[WINNING_OPTION_ID].text;\n\t    }\n\t    if (options[winner].percent >= 95) {\n\t    \temit Judgement_Finished(\n\t    \t    \"No Consensus between the judges reached\",\n\t    \t    FORECAST_ON_COURT,\n\t    \t    options[WINNING_OPTION_ID].text,\n\t    \t    now\n\t    \t);\n\t    \trevert(\"Consensus not reached. Delegating on admin\");\n\t    }\n\t    emit Judgement_Finished(\n\t        \"Consensus reached.\", \n\t        FORECAST_ON_COURT, \n\t        options[WINNING_OPTION_ID].text,\n\t        now\n\t    );\n        \n        address[] storage guessed = options[WINNING_OPTION_ID].voters ;\n\t    for (i = 0; i < guessed.length; i++) {\n\t\t\toptions[WINNING_OPTION_ID].voters[i].transfer(REWARD);\n\t\t}\n\t}\n\t\n\t//\tВспомогательная функция описания вариантов ответов (номер -> описание)\n\t//\t(Нужна ввиду отсутствия поддержки многомерных динамических массивов в Solidity,\n\t//\tкоим и является массив строк)\n\tfunction assignDescription(uint256 _no, string memory _text) \n\tpublic \n\tisCreator \n\t{\n\t\trequire(!options[_no].descripted, \"Option is descripted already\");\n\t    options[_no].text = _text;\n\t    options[_no].descripted = true;\n\t}\n\n\t//\tФункция проверки адреса, используемая в модификаторе \"not_contract()\":\n\t//\tЕсли объем исполняемого кода адреса больше нуля, значит отправитель - контракт (жулик)\n\tfunction isContract(address addr) private view returns (bool) {\n  \t\tuint size;\n  \t\tassembly \n  \t\t{ \n  \t\t\tsize := extcodesize(addr)\n  \t\t}\n  \t\treturn size > 0;\n\t}\n\n\tevent Judgement_Created(\n\t\taddress Forecast_on_Court, \n\t\tstring title, \n\t\tuint256 timestamp, \n\t\taddress Creator, \n\t\tuint256 reward\n\t);\n\t\n\tevent Judgement_Finished(\n\t\tstring reason, \n\t\taddress Forecast_on_Court,\n\t\tstring winning_Option,\n\t\tuint256 timestamp\n\t);\n\t\n\tevent Payout(string title, uint256 amount, address[] judges, uint256 timestamp);\n}\n\t",
  "sourcePath": "/home/vlatt/Desktop/work/contracts/Service Based/Judgement.sol",
  "compiler": {
    "name": "solc",
    "version": "0.4.24+commit.e67f0147.Emscripten.clang"
  },
  "schemaVersion": "3.0.1",
  "updatedAt": "2019-02-07T09:52:01.691Z",
  "devdoc": {
    "methods": {}
  },
  "userdoc": {
    "methods": {}
  }
}