{
  "contractName": "OPI_Token",
  "abi": [
    {
      "constant": true,
      "inputs": [],
      "name": "name",
      "outputs": [
        {
          "name": "",
          "type": "string"
        }
      ],
      "payable": false,
      "stateMutability": "view",
      "type": "function"
    },
    {
      "constant": true,
      "inputs": [],
      "name": "decimals",
      "outputs": [
        {
          "name": "",
          "type": "uint8"
        }
      ],
      "payable": false,
      "stateMutability": "view",
      "type": "function"
    },
    {
      "constant": true,
      "inputs": [],
      "name": "symbol",
      "outputs": [
        {
          "name": "",
          "type": "string"
        }
      ],
      "payable": false,
      "stateMutability": "view",
      "type": "function"
    }
  ],
  "bytecode": "0x608060405260126000806101000a81548160ff021916908360ff1602179055506040805190810160405280600e81526020017f4f50495f746573745f746f6b656e0000000000000000000000000000000000008152506001908051906020019061006a9291906100c9565b506040805190810160405280600381526020017f4f50540000000000000000000000000000000000000000000000000000000000815250600290805190602001906100b69291906100c9565b503480156100c357600080fd5b5061016e565b828054600181600116156101000203166002900490600052602060002090601f016020900481019282601f1061010a57805160ff1916838001178555610138565b82800160010185558215610138579182015b8281111561013757825182559160200191906001019061011c565b5b5090506101459190610149565b5090565b61016b91905b8082111561016757600081600090555060010161014f565b5090565b90565b6103278061017d6000396000f300608060405260043610610057576000357c0100000000000000000000000000000000000000000000000000000000900463ffffffff16806306fdde031461005c578063313ce567146100ec57806395d89b411461011d575b600080fd5b34801561006857600080fd5b506100716101ad565b6040518080602001828103825283818151815260200191508051906020019080838360005b838110156100b1578082015181840152602081019050610096565b50505050905090810190601f1680156100de5780820380516001836020036101000a031916815260200191505b509250505060405180910390f35b3480156100f857600080fd5b5061010161024b565b604051808260ff1660ff16815260200191505060405180910390f35b34801561012957600080fd5b5061013261025d565b6040518080602001828103825283818151815260200191508051906020019080838360005b83811015610172578082015181840152602081019050610157565b50505050905090810190601f16801561019f5780820380516001836020036101000a031916815260200191505b509250505060405180910390f35b60018054600181600116156101000203166002900480601f0160208091040260200160405190810160405280929190818152602001828054600181600116156101000203166002900480156102435780601f1061021857610100808354040283529160200191610243565b820191906000526020600020905b81548152906001019060200180831161022657829003601f168201915b505050505081565b6000809054906101000a900460ff1681565b60028054600181600116156101000203166002900480601f0160208091040260200160405190810160405280929190818152602001828054600181600116156101000203166002900480156102f35780601f106102c8576101008083540402835291602001916102f3565b820191906000526020600020905b8154815290600101906020018083116102d657829003601f168201915b5050505050815600a165627a7a72305820889782644aaf65bbffbabd18fc2dc5a52d7accc078ed2c22edd028c51378096d0029",
  "source": "pragma solidity ^0.4.24;\nimport \"../node_modules/openzeppelin-solidity/contracts/token/ERC20/ERC20.sol\";\n\ncontract OPI_Token {\n\n\tuint8 public decimals = 18;\n\tstring public name = \"OPI_test_token\";\n\tstring public symbol = \"OPT\";\n\n}\n\n\n",
  "sourcePath": "/home/vlatt/Desktop/work/contracts/OPI_Token.sol",
  "compiler": {
    "name": "solc",
    "version": "0.4.24+commit.e67f0147.Emscripten.clang"
  },
  "schemaVersion": "3.0.1",
  "updatedAt": "2019-02-08T13:25:04.961Z",
  "devdoc": {
    "methods": {}
  },
  "userdoc": {
    "methods": {}
  }
}