{
  "contractName": "Quiz_Person_Limited",
  "abi": [
    {
      "constant": true,
      "inputs": [],
      "name": "creator",
      "outputs": [
        {
          "name": "",
          "type": "address"
        }
      ],
      "payable": false,
      "stateMutability": "view",
      "type": "function"
    },
    {
      "constant": true,
      "inputs": [],
      "name": "NUM_OPTIONS",
      "outputs": [
        {
          "name": "",
          "type": "uint256"
        }
      ],
      "payable": false,
      "stateMutability": "view",
      "type": "function"
    },
    {
      "constant": true,
      "inputs": [
        {
          "name": "",
          "type": "uint256"
        }
      ],
      "name": "options",
      "outputs": [
        {
          "name": "text",
          "type": "string"
        },
        {
          "name": "totalVotes",
          "type": "uint256"
        },
        {
          "name": "descripted",
          "type": "bool"
        }
      ],
      "payable": false,
      "stateMutability": "view",
      "type": "function"
    },
    {
      "constant": true,
      "inputs": [],
      "name": "TITLE",
      "outputs": [
        {
          "name": "",
          "type": "string"
        }
      ],
      "payable": false,
      "stateMutability": "view",
      "type": "function"
    },
    {
      "constant": true,
      "inputs": [],
      "name": "beginTime",
      "outputs": [
        {
          "name": "",
          "type": "uint256"
        }
      ],
      "payable": false,
      "stateMutability": "view",
      "type": "function"
    },
    {
      "constant": true,
      "inputs": [],
      "name": "EXISTS",
      "outputs": [
        {
          "name": "",
          "type": "bool"
        }
      ],
      "payable": false,
      "stateMutability": "view",
      "type": "function"
    },
    {
      "constant": true,
      "inputs": [],
      "name": "WINNING_OPTION",
      "outputs": [
        {
          "name": "",
          "type": "string"
        }
      ],
      "payable": false,
      "stateMutability": "view",
      "type": "function"
    },
    {
      "constant": true,
      "inputs": [
        {
          "name": "",
          "type": "address"
        }
      ],
      "name": "users",
      "outputs": [
        {
          "name": "already",
          "type": "bool"
        },
        {
          "name": "email",
          "type": "string"
        },
        {
          "name": "choice",
          "type": "uint256"
        }
      ],
      "payable": false,
      "stateMutability": "view",
      "type": "function"
    },
    {
      "constant": true,
      "inputs": [],
      "name": "FINISHED",
      "outputs": [
        {
          "name": "",
          "type": "bool"
        }
      ],
      "payable": false,
      "stateMutability": "view",
      "type": "function"
    },
    {
      "constant": true,
      "inputs": [],
      "name": "REWARD",
      "outputs": [
        {
          "name": "",
          "type": "uint256"
        }
      ],
      "payable": false,
      "stateMutability": "view",
      "type": "function"
    },
    {
      "constant": true,
      "inputs": [
        {
          "name": "",
          "type": "uint256"
        }
      ],
      "name": "PARTICIPANTS",
      "outputs": [
        {
          "name": "",
          "type": "address"
        }
      ],
      "payable": false,
      "stateMutability": "view",
      "type": "function"
    },
    {
      "constant": true,
      "inputs": [],
      "name": "master",
      "outputs": [
        {
          "name": "",
          "type": "address"
        }
      ],
      "payable": false,
      "stateMutability": "view",
      "type": "function"
    },
    {
      "constant": true,
      "inputs": [],
      "name": "MAX_USERS",
      "outputs": [
        {
          "name": "",
          "type": "uint256"
        }
      ],
      "payable": false,
      "stateMutability": "view",
      "type": "function"
    },
    {
      "inputs": [
        {
          "name": "_creator",
          "type": "address"
        },
        {
          "name": "_title",
          "type": "string"
        },
        {
          "name": "_maxUsers",
          "type": "uint256"
        },
        {
          "name": "_reward",
          "type": "uint256"
        }
      ],
      "payable": true,
      "stateMutability": "payable",
      "type": "constructor"
    },
    {
      "anonymous": false,
      "inputs": [
        {
          "indexed": false,
          "name": "title",
          "type": "string"
        },
        {
          "indexed": false,
          "name": "_type",
          "type": "string"
        },
        {
          "indexed": false,
          "name": "creator",
          "type": "address"
        },
        {
          "indexed": false,
          "name": "timestamp",
          "type": "uint256"
        },
        {
          "indexed": false,
          "name": "duration",
          "type": "uint256"
        }
      ],
      "name": "Quiz_Created",
      "type": "event"
    },
    {
      "anonymous": false,
      "inputs": [
        {
          "indexed": false,
          "name": "reason",
          "type": "string"
        },
        {
          "indexed": false,
          "name": "title",
          "type": "string"
        },
        {
          "indexed": false,
          "name": "winningOption",
          "type": "string"
        },
        {
          "indexed": false,
          "name": "timestamp",
          "type": "uint256"
        }
      ],
      "name": "Quiz_Finished",
      "type": "event"
    },
    {
      "anonymous": false,
      "inputs": [
        {
          "indexed": false,
          "name": "title",
          "type": "string"
        },
        {
          "indexed": false,
          "name": "no",
          "type": "uint256"
        },
        {
          "indexed": false,
          "name": "text",
          "type": "string"
        }
      ],
      "name": "Option_Assigned",
      "type": "event"
    },
    {
      "anonymous": false,
      "inputs": [
        {
          "indexed": false,
          "name": "amount",
          "type": "uint256"
        },
        {
          "indexed": false,
          "name": "participants",
          "type": "address[]"
        },
        {
          "indexed": false,
          "name": "timestamp",
          "type": "uint256"
        }
      ],
      "name": "Payout",
      "type": "event"
    },
    {
      "constant": false,
      "inputs": [
        {
          "name": "_voter",
          "type": "address"
        },
        {
          "name": "_choice",
          "type": "uint256"
        }
      ],
      "name": "throwVote",
      "outputs": [],
      "payable": true,
      "stateMutability": "payable",
      "type": "function"
    },
    {
      "constant": false,
      "inputs": [],
      "name": "finish",
      "outputs": [],
      "payable": false,
      "stateMutability": "nonpayable",
      "type": "function"
    },
    {
      "constant": false,
      "inputs": [
        {
          "name": "_no",
          "type": "uint256"
        },
        {
          "name": "_text",
          "type": "string"
        }
      ],
      "name": "assignDescription",
      "outputs": [],
      "payable": false,
      "stateMutability": "nonpayable",
      "type": "function"
    }
  ],
  "bytecode": "0x608060405260016000806101000a81548160ff02191690831515021790555060405162001a4338038062001a43833981018060405281019080805190602001909291908051820192919060200180519060200190929190805190602001909291905050506200007d3362000343640100000000026401000000009004565b15156200008957600080fd5b60003411151562000128576040517f08c379a00000000000000000000000000000000000000000000000000000000081526004018080602001828103825260238152602001807f43726561746f7220697320746f2066756c6c66696c6c2072657761726420667581526020017f6e6473000000000000000000000000000000000000000000000000000000000081525060400191505060405180910390fd5b4260028190555083600860006101000a81548173ffffffffffffffffffffffffffffffffffffffff021916908373ffffffffffffffffffffffffffffffffffffffff16021790555033600960006101000a81548173ffffffffffffffffffffffffffffffffffffffff021916908373ffffffffffffffffffffffffffffffffffffffff1602179055508260019080519060200190620001c992919062000356565b5080600381905550816004819055507f10e57665fe994201835fb016de57f84a3da48a56b093ac34dfb3d0a39c69c3646001600860009054906101000a900473ffffffffffffffffffffffffffffffffffffffff166002546004546040518080602001806020018673ffffffffffffffffffffffffffffffffffffffff1673ffffffffffffffffffffffffffffffffffffffff168152602001858152602001848152602001838103835287818154600181600116156101000203166002900481526020019150805460018160011615610100020316600290048015620002f35780601f10620002c757610100808354040283529160200191620002f3565b820191906000526020600020905b815481529060010190602001808311620002d557829003601f168201915b50508381038252600e8152602001807f506572736f6e204c696d69746564000000000000000000000000000000000000815250602001965050505050505060405180910390a15050505062000405565b600080823b905060008111915050919050565b828054600181600116156101000203166002900490600052602060002090601f016020900481019282601f106200039957805160ff1916838001178555620003ca565b82800160010185558215620003ca579182015b82811115620003c9578251825591602001919060010190620003ac565b5b509050620003d99190620003dd565b5090565b6200040291905b80821115620003fe576000816000905550600101620003e4565b5090565b90565b61162e80620004156000396000f3006080604052600436106100e6576000357c0100000000000000000000000000000000000000000000000000000000900463ffffffff16806302d05d3f146100eb5780633db62e2c14610142578063409e22051461016d5780637ef838041461022557806388149fb9146102b55780639005c749146102e05780639f68989c1461030f578063a87430ba1461039f578063b54e5e8f1461046d578063ca91a7741461049c578063cab34c081461050f578063d56b28891461053a578063d882d58d14610551578063df7b0d3a146105be578063ee97f7f3146105fe578063fa6ac13114610655575b600080fd5b3480156100f757600080fd5b50610100610680565b604051808273ffffffffffffffffffffffffffffffffffffffff1673ffffffffffffffffffffffffffffffffffffffff16815260200191505060405180910390f35b34801561014e57600080fd5b506101576106a6565b6040518082815260200191505060405180910390f35b34801561017957600080fd5b50610198600480360381019080803590602001909291905050506106ac565b604051808060200184815260200183151515158152602001828103825285818151815260200191508051906020019080838360005b838110156101e85780820151818401526020810190506101cd565b50505050905090810190601f1680156102155780820380516001836020036101000a031916815260200191505b5094505050505060405180910390f35b34801561023157600080fd5b5061023a61077b565b6040518080602001828103825283818151815260200191508051906020019080838360005b8381101561027a57808201518184015260208101905061025f565b50505050905090810190601f1680156102a75780820380516001836020036101000a031916815260200191505b509250505060405180910390f35b3480156102c157600080fd5b506102ca610819565b6040518082815260200191505060405180910390f35b3480156102ec57600080fd5b506102f561081f565b604051808215151515815260200191505060405180910390f35b34801561031b57600080fd5b50610324610831565b6040518080602001828103825283818151815260200191508051906020019080838360005b83811015610364578082015181840152602081019050610349565b50505050905090810190601f1680156103915780820380516001836020036101000a031916815260200191505b509250505060405180910390f35b3480156103ab57600080fd5b506103e0600480360381019080803573ffffffffffffffffffffffffffffffffffffffff1690602001909291905050506108cf565b604051808415151515815260200180602001838152602001828103825284818151815260200191508051906020019080838360005b83811015610430578082015181840152602081019050610415565b50505050905090810190601f16801561045d5780820380516001836020036101000a031916815260200191505b5094505050505060405180910390f35b34801561047957600080fd5b5061048261099e565b604051808215151515815260200191505060405180910390f35b3480156104a857600080fd5b5061050d60048036038101908080359060200190929190803590602001908201803590602001908080601f01602080910402602001604051908101604052809392919081815260200183838082843782019150505050505091929192905050506109b1565b005b34801561051b57600080fd5b50610524610cad565b6040518082815260200191505060405180910390f35b34801561054657600080fd5b5061054f610cb3565b005b34801561055d57600080fd5b5061057c60048036038101908080359060200190929190505050610fb2565b604051808273ffffffffffffffffffffffffffffffffffffffff1673ffffffffffffffffffffffffffffffffffffffff16815260200191505060405180910390f35b6105fc600480360381019080803573ffffffffffffffffffffffffffffffffffffffff16906020019092919080359060200190929190505050610ff0565b005b34801561060a57600080fd5b506106136114aa565b604051808273ffffffffffffffffffffffffffffffffffffffff1673ffffffffffffffffffffffffffffffffffffffff16815260200191505060405180910390f35b34801561066157600080fd5b5061066a6114d0565b6040518082815260200191505060405180910390f35b600860009054906101000a900473ffffffffffffffffffffffffffffffffffffffff1681565b60055481565b600b602052806000526040600020600091509050806000018054600181600116156101000203166002900480601f0160208091040260200160405190810160405280929190818152602001828054600181600116156101000203166002900480156107585780601f1061072d57610100808354040283529160200191610758565b820191906000526020600020905b81548152906001019060200180831161073b57829003601f168201915b5050505050908060010154908060020160009054906101000a900460ff16905083565b60018054600181600116156101000203166002900480601f0160208091040260200160405190810160405280929190818152602001828054600181600116156101000203166002900480156108115780601f106107e657610100808354040283529160200191610811565b820191906000526020600020905b8154815290600101906020018083116107f457829003601f168201915b505050505081565b60025481565b6000809054906101000a900460ff1681565b60068054600181600116156101000203166002900480601f0160208091040260200160405190810160405280929190818152602001828054600181600116156101000203166002900480156108c75780601f1061089c576101008083540402835291602001916108c7565b820191906000526020600020905b8154815290600101906020018083116108aa57829003601f168201915b505050505081565b600a6020528060005260406000206000915090508060000160009054906101000a900460ff1690806001018054600181600116156101000203166002900480601f01602080910402602001604051908101604052809291908181526020018280546001816001161561010002031660029004801561098e5780601f106109635761010080835404028352916020019161098e565b820191906000526020600020905b81548152906001019060200180831161097157829003601f168201915b5050505050908060020154905083565b600060019054906101000a900460ff1681565b3373ffffffffffffffffffffffffffffffffffffffff16600960009054906101000a900473ffffffffffffffffffffffffffffffffffffffff1673ffffffffffffffffffffffffffffffffffffffff16141515610a76576040517f08c379a00000000000000000000000000000000000000000000000000000000081526004018080602001828103825260148152602001807f466f72206d61737465722075736573206f6e6c7900000000000000000000000081525060200191505060405180910390fd5b600b600083815260200190815260200160002060020160009054906101000a900460ff16151515610b0f576040517f08c379a000000000000000000000000000000000000000000000000000000000815260040180806020018281038252601c8152602001807f4f7074696f6e206973206465736372697074656420616c72656164790000000081525060200191505060405180910390fd5b80600b60008481526020019081526020016000206000019080519060200190610b399291906114d6565b506001600b600084815260200190815260200160002060020160006101000a81548160ff02191690831515021790555060016005600082825401925050819055507fa4bd90ecd8eca719a5867b5682b448ca871a8a961509aee119fd17f01e8d780160018383604051808060200184815260200180602001838103835286818154600181600116156101000203166002900481526020019150805460018160011615610100020316600290048015610c325780601f10610c0757610100808354040283529160200191610c32565b820191906000526020600020905b815481529060010190602001808311610c1557829003601f168201915b5050838103825284818151815260200191508051906020019080838360005b83811015610c6c578082015181840152602081019050610c51565b50505050905090810190601f168015610c995780820380516001836020036101000a031916815260200191505b509550505050505060405180910390a15050565b60035481565b60008060003373ffffffffffffffffffffffffffffffffffffffff16600960009054906101000a900473ffffffffffffffffffffffffffffffffffffffff1673ffffffffffffffffffffffffffffffffffffffff16141515610d7d576040517f08c379a00000000000000000000000000000000000000000000000000000000081526004018080602001828103825260148152602001807f466f72206d61737465722075736573206f6e6c7900000000000000000000000081525060200191505060405180910390fd5b6001600060016101000a81548160ff021916908315150217905550600090505b600554811015610def5782600b6000838152602001908152602001600020600101541115610de257600b60008281526020019081526020016000206001015492508091505b8080600101915050610d9d565b600b600083815260200190815260200160002060000160069080546001816001161561010002031660029004610e26929190611556565b507f2f8afdcf307095d6035a455bde5c5a37f187558b91bb7cbcc595cfbfd0958462600160064260405180806020018060200180602001858152602001848103845260198152602001807f43726561746f722066696e697368656420746865207175697a00000000000000815250602001848103835287818154600181600116156101000203166002900481526020019150805460018160011615610100020316600290048015610f185780601f10610eed57610100808354040283529160200191610f18565b820191906000526020600020905b815481529060010190602001808311610efb57829003601f168201915b5050848103825286818154600181600116156101000203166002900481526020019150805460018160011615610100020316600290048015610f9b5780601f10610f7057610100808354040283529160200191610f9b565b820191906000526020600020905b815481529060010190602001808311610f7e57829003601f168201915b5050965050505050505060405180910390a1505050565b600781815481101515610fc157fe5b906000526020600020016000915054906101000a900473ffffffffffffffffffffffffffffffffffffffff1681565b60006003543073ffffffffffffffffffffffffffffffffffffffff16311180156110275750600060019054906101000a900460ff16155b151561109b576040517f08c379a000000000000000000000000000000000000000000000000000000000815260040180806020018281038252600c8152602001807f5175697a206973206f766572000000000000000000000000000000000000000081525060200191505060405180910390fd5b826000600a60008373ffffffffffffffffffffffffffffffffffffffff1673ffffffffffffffffffffffffffffffffffffffff16815260200190815260200160002090508060000160009054906101000a900460ff16151515611166576040517f08c379a00000000000000000000000000000000000000000000000000000000081526004018080602001828103825260108152602001807f43616e607420766f74652074776963650000000000000000000000000000000081525060200191505060405180910390fd5b8473ffffffffffffffffffffffffffffffffffffffff16600860009054906101000a900473ffffffffffffffffffffffffffffffffffffffff1673ffffffffffffffffffffffffffffffffffffffff161415151561122c576040517f08c379a000000000000000000000000000000000000000000000000000000000815260040180806020018281038252601a8152602001807f43726561746f722063616e6074207468726f7720766f7465732100000000000081525060200191505060405180910390fd5b6004546007805490501015156112aa576040517f08c379a00000000000000000000000000000000000000000000000000000000081526004018080602001828103825260198152602001807f4d6178696d756d2075736572732063617020726561636865640000000000000081525060200191505060405180910390fd5b600b600085815260200190815260200160002060020160009054906101000a900460ff161515611368576040517f08c379a00000000000000000000000000000000000000000000000000000000081526004018080602001828103825260218152602001807f4f7074696f6e206d75737420626520646573637269707465642066697273747981526020017f210000000000000000000000000000000000000000000000000000000000000081525060400191505060405180910390fd5b60078590806001815401808255809150509060018203906000526020600020016000909192909190916101000a81548173ffffffffffffffffffffffffffffffffffffffff021916908373ffffffffffffffffffffffffffffffffffffffff16021790555050600a60008673ffffffffffffffffffffffffffffffffffffffff1673ffffffffffffffffffffffffffffffffffffffff168152602001908152602001600020925060018360000160006101000a81548160ff0219169083151502179055508383600201819055506001600b6000868152602001908152602001600020600101600082825401925050819055508473ffffffffffffffffffffffffffffffffffffffff166108fc6003549081150290604051600060405180830381858888f193505050501580156114a2573d6000803e3d6000fd5b505050505050565b600960009054906101000a900473ffffffffffffffffffffffffffffffffffffffff1681565b60045481565b828054600181600116156101000203166002900490600052602060002090601f016020900481019282601f1061151757805160ff1916838001178555611545565b82800160010185558215611545579182015b82811115611544578251825591602001919060010190611529565b5b50905061155291906115dd565b5090565b828054600181600116156101000203166002900490600052602060002090601f016020900481019282601f1061158f57805485556115cc565b828001600101855582156115cc57600052602060002091601f016020900482015b828111156115cb5782548255916001019190600101906115b0565b5b5090506115d991906115dd565b5090565b6115ff91905b808211156115fb5760008160009055506001016115e3565b5090565b905600a165627a7a72305820b7434ab60801002abc135b5d2a3ff77afb1c4363a6f77ef27a8064942402e5500029",
  "source": "pragma solidity ^0.4.24;\n\ncontract Quiz_Person_Limited {\n\n//ГЛОБАЛЬНЫЕ ПЕРЕМЕННЫЕ\nbool public EXISTS = true;\n\n\tbool public FINISHED;\t\t// Shows whether the quiz is opened/closed;\n\n\tstring public TITLE; \n\n    uint256 public beginTime;\t//\tQuiz start time (block timestamp at the start)\n    uint256 public REWARD;\t\t//\tDynamically calculated reward based on PARTICIPANTS.length\n    uint256 public MAX_USERS;\t//  Maximal quiantity of users specified by creator\t\n    uint256 public NUM_OPTIONS;\n\n    string public WINNING_OPTION;      //  Текст варианта, набравшего наибольшее количество голосов\n\n    address[] public PARTICIPANTS;\n\n    //\tСтруктура пользователя: голосовал ли ранее (да/нет), эл.почта, выбранный вариант ответа (номер)\n\tstruct User {\t\n\t    bool already;\n\t\tstring email;\n\t\tuint256 choice;\n\t}\n\n\t//\tСтруктура варианта ответа (опции): текстовое описание, число проголосовавших \"За\",\n\t//\tсостояние опции \"Описана\": Да/Нет\n\tstruct Option {\n\t\tstring text;\n\t\tuint256 totalVotes;\n\t\tbool descripted;\n\t}\n\n\t//\tАдрес создателя опроса в сети Ethereum \n\t//\t(определяется непосредственно при создании контракта опроса)\n\taddress public creator;\n\taddress public master;\n\n\t// Соответствие между адресами в сети Ethereum и Пользователями опроса\n\tmapping (address => User) public users;\n\n\t//\tМассив вариантов ответа\n\tmapping (uint256 => Option) public options;\n\n//ФУНКЦИОНАЛЬНАЯ ЧАСТЬ\n\n\t//\tКлассический модификатор проверки исполнителя функции:\n\t//\tСерия выплат может быть инициирована только с контракта создателя опроса\n\tmodifier isMaster() {\n\t\trequire(master == msg.sender, \"For master uses only\");\n\t\t_;\n\t}\n\n\t//\tМодификатор функции, проверяющий, проходит ли опрос до сих пор\n\tmodifier still_on() {\n\t    require(address(this).balance > REWARD && !FINISHED, \"Quiz is over\");\n\t    _;\n\t}\n\t\n\t//\tМодификатор проверки двойного голосования: \n\t//\tпользователь может обратиться к throwVote лишь один раз\n\tmodifier no_double_vote(address _from) {\n\t    User storage u = users[_from];\n\t    require(!u.already, \"Can`t vote twice\");\n\t    _;\n\t}\n\t\n\t//\tКонструктор контракта, создающий опрос с определенным количеством варианта\n\tconstructor\n\t(\n\t\taddress _creator,\n\t\tstring _title, \n\t\tuint256 _maxUsers, \n\t\tuint256 _reward\n\t) \n\tpublic\n\tpayable \n\t{\n\t    require(isContract(msg.sender));\n\t    require(msg.value > 0, \"Creator is to fullfill reward funds\");\n\t    beginTime = now;\n\t    creator = _creator;\n\t    master = msg.sender;\n\t    TITLE = _title;\n\t    REWARD = _reward;\n\t    MAX_USERS = _maxUsers;\n\n\t    emit Quiz_Created(TITLE, \"Person Limited\", creator, beginTime, MAX_USERS);\t\n\t}\n\t\n\t//\tФункция отправки голоса за определенный вариант (номер)\n\tfunction throwVote(address _voter, uint256 _choice) \n\tpublic\n\tpayable\n\tstill_on\n\tno_double_vote(_voter)\n\t{\n\t\trequire(creator != _voter, \"Creator can`t throw votes!\");\n\t\trequire(PARTICIPANTS.length < MAX_USERS, \"Maximum users cap reached\");\n\t\trequire(options[_choice].descripted, \"Option must be descripted firsty!\");\n\n\t\tPARTICIPANTS.push(_voter);\n\n\t\tUser storage u = users[_voter];\n\t\tu.already = true;\n\t\tu.choice = _choice;\n\t    \n\t    options[_choice].totalVotes += 1;\n\t    \n\t    _voter.transfer(REWARD);\n\t}\n\n\tfunction finish() isMaster public {\n\t\tFINISHED = true;\n\t\tuint256 max;\n\t    uint256 winner;\n\t    for (uint256 i = 0; i < NUM_OPTIONS; i++) {\n\t        if (options[i].totalVotes > max) {\n\t            max = options[i].totalVotes;\n\t            winner = i;\n\t        }\n\t    }\n\t    WINNING_OPTION = options[winner].text;\n\t    emit Quiz_Finished(\"Creator finished the quiz\", TITLE, WINNING_OPTION, now);\n\t}\n\t\n\t//\tВспомогательная функция описания вариантов ответов (номер -> описание)\n\t//\t(Нужна ввиду отсутствия поддержки многомерных динамических массивов в Solidity,\n\t//\tкоим и является массив строк)\n\tfunction assignDescription(uint256 _no, string memory _text) \n\tpublic \n\tisMaster \n\t{\n\t\trequire(!options[_no].descripted, \"Option is descripted already\");\n\t    options[_no].text = _text;\n\t    options[_no].descripted = true;\n\t    NUM_OPTIONS += 1;\n\t    emit Option_Assigned(TITLE, _no, _text);\n\t}\n\n\t//\tФункция проверки адреса, используемая в модификаторе \"not_contract()\":\n\t//\tЕсли объем исполняемого кода адреса больше нуля, значит отправитель - контракт (жулик)\n\tfunction isContract(address addr) private view returns (bool) {\n  \t\tuint size;\n  \t\tassembly \n  \t\t{ \n  \t\t\tsize := extcodesize(addr)\n  \t\t}\n  \t\treturn size > 0;\n\t}\n\n\tevent Quiz_Created(\n\t\tstring title, \n\t\tstring _type, \n\t\taddress creator, \n\t\tuint256 timestamp, \n\t\tuint256 duration\n\t);\n\tevent Quiz_Finished(\n\t\tstring reason, \n\t\tstring title, \n\t\tstring winningOption, \n\t\tuint256 timestamp\n\t);\n\t\n\tevent Option_Assigned(string title, uint256 no, string text);\n\tevent Payout(uint256 amount, address[] participants, uint256 timestamp);\n}\n",
  "sourcePath": "/home/vlatt/Desktop/work/contracts/Service Based/Quiz_Person_Limited.sol",
  "compiler": {
    "name": "solc",
    "version": "0.4.24+commit.e67f0147.Emscripten.clang"
  },
  "schemaVersion": "3.0.1",
  "updatedAt": "2019-02-07T09:52:01.682Z",
  "devdoc": {
    "methods": {}
  },
  "userdoc": {
    "methods": {}
  }
}