{
  "contractName": "Quiz_Person_Limited_cli",
  "abi": [
    {
      "constant": true,
      "inputs": [],
      "name": "creator",
      "outputs": [
        {
          "name": "",
          "type": "address"
        }
      ],
      "payable": false,
      "stateMutability": "view",
      "type": "function"
    },
    {
      "constant": true,
      "inputs": [],
      "name": "NUM_OPTIONS",
      "outputs": [
        {
          "name": "",
          "type": "uint256"
        }
      ],
      "payable": false,
      "stateMutability": "view",
      "type": "function"
    },
    {
      "constant": true,
      "inputs": [
        {
          "name": "",
          "type": "uint256"
        }
      ],
      "name": "options",
      "outputs": [
        {
          "name": "text",
          "type": "string"
        },
        {
          "name": "totalVotes",
          "type": "uint256"
        },
        {
          "name": "descripted",
          "type": "bool"
        }
      ],
      "payable": false,
      "stateMutability": "view",
      "type": "function"
    },
    {
      "constant": true,
      "inputs": [],
      "name": "TITLE",
      "outputs": [
        {
          "name": "",
          "type": "string"
        }
      ],
      "payable": false,
      "stateMutability": "view",
      "type": "function"
    },
    {
      "constant": true,
      "inputs": [],
      "name": "beginTime",
      "outputs": [
        {
          "name": "",
          "type": "uint256"
        }
      ],
      "payable": false,
      "stateMutability": "view",
      "type": "function"
    },
    {
      "constant": true,
      "inputs": [],
      "name": "WINNING_OPTION",
      "outputs": [
        {
          "name": "",
          "type": "string"
        }
      ],
      "payable": false,
      "stateMutability": "view",
      "type": "function"
    },
    {
      "constant": true,
      "inputs": [
        {
          "name": "",
          "type": "address"
        }
      ],
      "name": "users",
      "outputs": [
        {
          "name": "already",
          "type": "bool"
        },
        {
          "name": "email",
          "type": "string"
        },
        {
          "name": "choice",
          "type": "uint256"
        }
      ],
      "payable": false,
      "stateMutability": "view",
      "type": "function"
    },
    {
      "constant": true,
      "inputs": [],
      "name": "FINISHED",
      "outputs": [
        {
          "name": "",
          "type": "bool"
        }
      ],
      "payable": false,
      "stateMutability": "view",
      "type": "function"
    },
    {
      "constant": true,
      "inputs": [],
      "name": "REWARD",
      "outputs": [
        {
          "name": "",
          "type": "uint256"
        }
      ],
      "payable": false,
      "stateMutability": "view",
      "type": "function"
    },
    {
      "constant": true,
      "inputs": [
        {
          "name": "",
          "type": "uint256"
        }
      ],
      "name": "PARTICIPANTS",
      "outputs": [
        {
          "name": "",
          "type": "address"
        }
      ],
      "payable": false,
      "stateMutability": "view",
      "type": "function"
    },
    {
      "constant": true,
      "inputs": [],
      "name": "MAX_USERS",
      "outputs": [
        {
          "name": "",
          "type": "uint256"
        }
      ],
      "payable": false,
      "stateMutability": "view",
      "type": "function"
    },
    {
      "inputs": [
        {
          "name": "_title",
          "type": "string"
        },
        {
          "name": "_maxUsers",
          "type": "uint256"
        },
        {
          "name": "_reward",
          "type": "uint256"
        }
      ],
      "payable": true,
      "stateMutability": "payable",
      "type": "constructor"
    },
    {
      "anonymous": false,
      "inputs": [
        {
          "indexed": false,
          "name": "title",
          "type": "string"
        },
        {
          "indexed": false,
          "name": "_type",
          "type": "string"
        },
        {
          "indexed": false,
          "name": "creator",
          "type": "address"
        },
        {
          "indexed": false,
          "name": "timestamp",
          "type": "uint256"
        },
        {
          "indexed": false,
          "name": "duration",
          "type": "uint256"
        }
      ],
      "name": "Quiz_Created",
      "type": "event"
    },
    {
      "anonymous": false,
      "inputs": [
        {
          "indexed": false,
          "name": "reason",
          "type": "string"
        },
        {
          "indexed": false,
          "name": "title",
          "type": "string"
        },
        {
          "indexed": false,
          "name": "winningOption",
          "type": "string"
        },
        {
          "indexed": false,
          "name": "timestamp",
          "type": "uint256"
        }
      ],
      "name": "Quiz_Finished",
      "type": "event"
    },
    {
      "anonymous": false,
      "inputs": [
        {
          "indexed": false,
          "name": "title",
          "type": "string"
        },
        {
          "indexed": false,
          "name": "no",
          "type": "uint256"
        },
        {
          "indexed": false,
          "name": "text",
          "type": "string"
        }
      ],
      "name": "Option_Assigned",
      "type": "event"
    },
    {
      "anonymous": false,
      "inputs": [
        {
          "indexed": false,
          "name": "amount",
          "type": "uint256"
        },
        {
          "indexed": false,
          "name": "participants",
          "type": "address[]"
        },
        {
          "indexed": false,
          "name": "timestamp",
          "type": "uint256"
        }
      ],
      "name": "Payout",
      "type": "event"
    },
    {
      "constant": false,
      "inputs": [
        {
          "name": "_choice",
          "type": "uint256"
        }
      ],
      "name": "throwVote",
      "outputs": [],
      "payable": true,
      "stateMutability": "payable",
      "type": "function"
    },
    {
      "constant": false,
      "inputs": [],
      "name": "finish",
      "outputs": [],
      "payable": false,
      "stateMutability": "nonpayable",
      "type": "function"
    },
    {
      "constant": false,
      "inputs": [
        {
          "name": "_no",
          "type": "uint256"
        },
        {
          "name": "_text",
          "type": "string"
        }
      ],
      "name": "assignDescription",
      "outputs": [],
      "payable": false,
      "stateMutability": "nonpayable",
      "type": "function"
    }
  ],
  "bytecode": "0x608060405260405162001975380380620019758339810180604052810190808051820192919060200180519060200190929190805190602001909291905050506200005933620002de640100000000026401000000009004565b1515156200006657600080fd5b60003411151562000105576040517f08c379a00000000000000000000000000000000000000000000000000000000081526004018080602001828103825260238152602001807f43726561746f7220697320746f2066756c6c66696c6c2072657761726420667581526020017f6e6473000000000000000000000000000000000000000000000000000000000081525060400191505060405180910390fd5b4260028190555033600860006101000a81548173ffffffffffffffffffffffffffffffffffffffff021916908373ffffffffffffffffffffffffffffffffffffffff160217905550826001908051906020019062000165929190620002f1565b5080600381905550816004819055507f10e57665fe994201835fb016de57f84a3da48a56b093ac34dfb3d0a39c69c3646001600860009054906101000a900473ffffffffffffffffffffffffffffffffffffffff166002546004546040518080602001806020018673ffffffffffffffffffffffffffffffffffffffff1673ffffffffffffffffffffffffffffffffffffffff1681526020018581526020018481526020018381038352878181546001816001161561010002031660029004815260200191508054600181600116156101000203166002900480156200028f5780601f1062000263576101008083540402835291602001916200028f565b820191906000526020600020905b8154815290600101906020018083116200027157829003601f168201915b50508381038252600e8152602001807f506572736f6e204c696d69746564000000000000000000000000000000000000815250602001965050505050505060405180910390a1505050620003a0565b600080823b905060008111915050919050565b828054600181600116156101000203166002900490600052602060002090601f016020900481019282601f106200033457805160ff191683800117855562000365565b8280016001018555821562000365579182015b828111156200036457825182559160200191906001019062000347565b5b50905062000374919062000378565b5090565b6200039d91905b80821115620003995760008160009055506001016200037f565b5090565b90565b6115c580620003b06000396000f3006080604052600436106100d0576000357c0100000000000000000000000000000000000000000000000000000000900463ffffffff16806302d05d3f146100d55780633db62e2c1461012c578063409e2205146101575780637ef838041461020f57806388149fb91461029f5780639f68989c146102ca578063a87430ba1461035a578063a97cb7c714610428578063b54e5e8f14610448578063ca91a77414610477578063cab34c08146104ea578063d56b288914610515578063d882d58d1461052c578063fa6ac13114610599575b600080fd5b3480156100e157600080fd5b506100ea6105c4565b604051808273ffffffffffffffffffffffffffffffffffffffff1673ffffffffffffffffffffffffffffffffffffffff16815260200191505060405180910390f35b34801561013857600080fd5b506101416105ea565b6040518082815260200191505060405180910390f35b34801561016357600080fd5b50610182600480360381019080803590602001909291905050506105f0565b604051808060200184815260200183151515158152602001828103825285818151815260200191508051906020019080838360005b838110156101d25780820151818401526020810190506101b7565b50505050905090810190601f1680156101ff5780820380516001836020036101000a031916815260200191505b5094505050505060405180910390f35b34801561021b57600080fd5b506102246106bf565b6040518080602001828103825283818151815260200191508051906020019080838360005b83811015610264578082015181840152602081019050610249565b50505050905090810190601f1680156102915780820380516001836020036101000a031916815260200191505b509250505060405180910390f35b3480156102ab57600080fd5b506102b461075d565b6040518082815260200191505060405180910390f35b3480156102d657600080fd5b506102df610763565b6040518080602001828103825283818151815260200191508051906020019080838360005b8381101561031f578082015181840152602081019050610304565b50505050905090810190601f16801561034c5780820380516001836020036101000a031916815260200191505b509250505060405180910390f35b34801561036657600080fd5b5061039b600480360381019080803573ffffffffffffffffffffffffffffffffffffffff169060200190929190505050610801565b604051808415151515815260200180602001838152602001828103825284818151815260200191508051906020019080838360005b838110156103eb5780820151818401526020810190506103d0565b50505050905090810190601f1680156104185780820380516001836020036101000a031916815260200191505b5094505050505060405180910390f35b610446600480360381019080803590602001909291905050506108d0565b005b34801561045457600080fd5b5061045d610e04565b604051808215151515815260200191505060405180910390f35b34801561048357600080fd5b506104e860048036038101908080359060200190929190803590602001908201803590602001908080601f0160208091040260200160405190810160405280939291908181526020018383808284378201915050505050509192919290505050610e16565b005b3480156104f657600080fd5b506104ff611112565b6040518082815260200191505060405180910390f35b34801561052157600080fd5b5061052a611118565b005b34801561053857600080fd5b5061055760048036038101908080359060200190929190505050611416565b604051808273ffffffffffffffffffffffffffffffffffffffff1673ffffffffffffffffffffffffffffffffffffffff16815260200191505060405180910390f35b3480156105a557600080fd5b506105ae611454565b6040518082815260200191505060405180910390f35b600860009054906101000a900473ffffffffffffffffffffffffffffffffffffffff1681565b60055481565b600a602052806000526040600020600091509050806000018054600181600116156101000203166002900480601f01602080910402602001604051908101604052809291908181526020018280546001816001161561010002031660029004801561069c5780601f106106715761010080835404028352916020019161069c565b820191906000526020600020905b81548152906001019060200180831161067f57829003601f168201915b5050505050908060010154908060020160009054906101000a900460ff16905083565b60018054600181600116156101000203166002900480601f0160208091040260200160405190810160405280929190818152602001828054600181600116156101000203166002900480156107555780601f1061072a57610100808354040283529160200191610755565b820191906000526020600020905b81548152906001019060200180831161073857829003601f168201915b505050505081565b60025481565b60068054600181600116156101000203166002900480601f0160208091040260200160405190810160405280929190818152602001828054600181600116156101000203166002900480156107f95780601f106107ce576101008083540402835291602001916107f9565b820191906000526020600020905b8154815290600101906020018083116107dc57829003601f168201915b505050505081565b60096020528060005260406000206000915090508060000160009054906101000a900460ff1690806001018054600181600116156101000203166002900480601f0160208091040260200160405190810160405280929190818152602001828054600181600116156101000203166002900480156108c05780601f10610895576101008083540402835291602001916108c0565b820191906000526020600020905b8154815290600101906020018083116108a357829003601f168201915b5050505050908060020154905083565b60006108db3361145a565b151515610950576040517f08c379a000000000000000000000000000000000000000000000000000000000815260040180806020018281038252601b8152602001807f436f6e747261637420696e6a656374696f6e206465746563746564000000000081525060200191505060405180910390fd5b6003543073ffffffffffffffffffffffffffffffffffffffff163111801561098457506000809054906101000a900460ff16155b15156109f8576040517f08c379a000000000000000000000000000000000000000000000000000000000815260040180806020018281038252600c8152602001807f5175697a206973206f766572000000000000000000000000000000000000000081525060200191505060405180910390fd5b6000600960003373ffffffffffffffffffffffffffffffffffffffff1673ffffffffffffffffffffffffffffffffffffffff16815260200190815260200160002090508060000160009054906101000a900460ff16151515610ac2576040517f08c379a00000000000000000000000000000000000000000000000000000000081526004018080602001828103825260108152602001807f43616e607420766f74652074776963650000000000000000000000000000000081525060200191505060405180910390fd5b3373ffffffffffffffffffffffffffffffffffffffff16600860009054906101000a900473ffffffffffffffffffffffffffffffffffffffff1673ffffffffffffffffffffffffffffffffffffffff1614151515610b88576040517f08c379a000000000000000000000000000000000000000000000000000000000815260040180806020018281038252601a8152602001807f43726561746f722063616e6074207468726f7720766f7465732100000000000081525060200191505060405180910390fd5b600454600780549050101515610c06576040517f08c379a00000000000000000000000000000000000000000000000000000000081526004018080602001828103825260198152602001807f4d6178696d756d2075736572732063617020726561636865640000000000000081525060200191505060405180910390fd5b600a600084815260200190815260200160002060020160009054906101000a900460ff161515610cc4576040517f08c379a00000000000000000000000000000000000000000000000000000000081526004018080602001828103825260218152602001807f4f7074696f6e206d75737420626520646573637269707465642066697273747981526020017f210000000000000000000000000000000000000000000000000000000000000081525060400191505060405180910390fd5b60073390806001815401808255809150509060018203906000526020600020016000909192909190916101000a81548173ffffffffffffffffffffffffffffffffffffffff021916908373ffffffffffffffffffffffffffffffffffffffff16021790555050600960003373ffffffffffffffffffffffffffffffffffffffff1673ffffffffffffffffffffffffffffffffffffffff168152602001908152602001600020915060018260000160006101000a81548160ff0219169083151502179055508282600201819055506001600a6000858152602001908152602001600020600101600082825401925050819055503373ffffffffffffffffffffffffffffffffffffffff166108fc6003549081150290604051600060405180830381858888f19350505050158015610dfe573d6000803e3d6000fd5b50505050565b6000809054906101000a900460ff1681565b3373ffffffffffffffffffffffffffffffffffffffff16600860009054906101000a900473ffffffffffffffffffffffffffffffffffffffff1673ffffffffffffffffffffffffffffffffffffffff16141515610edb576040517f08c379a00000000000000000000000000000000000000000000000000000000081526004018080602001828103825260158152602001807f466f722063726561746f722075736573206f6e6c79000000000000000000000081525060200191505060405180910390fd5b600a600083815260200190815260200160002060020160009054906101000a900460ff16151515610f74576040517f08c379a000000000000000000000000000000000000000000000000000000000815260040180806020018281038252601c8152602001807f4f7074696f6e206973206465736372697074656420616c72656164790000000081525060200191505060405180910390fd5b80600a60008481526020019081526020016000206000019080519060200190610f9e92919061146d565b506001600a600084815260200190815260200160002060020160006101000a81548160ff02191690831515021790555060016005600082825401925050819055507fa4bd90ecd8eca719a5867b5682b448ca871a8a961509aee119fd17f01e8d7801600183836040518080602001848152602001806020018381038352868181546001816001161561010002031660029004815260200191508054600181600116156101000203166002900480156110975780601f1061106c57610100808354040283529160200191611097565b820191906000526020600020905b81548152906001019060200180831161107a57829003601f168201915b5050838103825284818151815260200191508051906020019080838360005b838110156110d15780820151818401526020810190506110b6565b50505050905090810190601f1680156110fe5780820380516001836020036101000a031916815260200191505b509550505050505060405180910390a15050565b60035481565b60008060003373ffffffffffffffffffffffffffffffffffffffff16600860009054906101000a900473ffffffffffffffffffffffffffffffffffffffff1673ffffffffffffffffffffffffffffffffffffffff161415156111e2576040517f08c379a00000000000000000000000000000000000000000000000000000000081526004018080602001828103825260158152602001807f466f722063726561746f722075736573206f6e6c79000000000000000000000081525060200191505060405180910390fd5b60016000806101000a81548160ff021916908315150217905550600090505b6005548110156112535782600a600083815260200190815260200160002060010154111561124657600a60008281526020019081526020016000206001015492508091505b8080600101915050611201565b600a60008381526020019081526020016000206000016006908054600181600116156101000203166002900461128a9291906114ed565b507f2f8afdcf307095d6035a455bde5c5a37f187558b91bb7cbcc595cfbfd0958462600160064260405180806020018060200180602001858152602001848103845260198152602001807f43726561746f722066696e697368656420746865207175697a0000000000000081525060200184810383528781815460018160011615610100020316600290048152602001915080546001816001161561010002031660029004801561137c5780601f106113515761010080835404028352916020019161137c565b820191906000526020600020905b81548152906001019060200180831161135f57829003601f168201915b50508481038252868181546001816001161561010002031660029004815260200191508054600181600116156101000203166002900480156113ff5780601f106113d4576101008083540402835291602001916113ff565b820191906000526020600020905b8154815290600101906020018083116113e257829003601f168201915b5050965050505050505060405180910390a1505050565b60078181548110151561142557fe5b906000526020600020016000915054906101000a900473ffffffffffffffffffffffffffffffffffffffff1681565b60045481565b600080823b905060008111915050919050565b828054600181600116156101000203166002900490600052602060002090601f016020900481019282601f106114ae57805160ff19168380011785556114dc565b828001600101855582156114dc579182015b828111156114db5782518255916020019190600101906114c0565b5b5090506114e99190611574565b5090565b828054600181600116156101000203166002900490600052602060002090601f016020900481019282601f106115265780548555611563565b8280016001018555821561156357600052602060002091601f016020900482015b82811115611562578254825591600101919060010190611547565b5b5090506115709190611574565b5090565b61159691905b8082111561159257600081600090555060010161157a565b5090565b905600a165627a7a72305820713ea1ad3e33bd7eb2d8fc919b5e383f9babb831f7c87c62236820040fbbf55b0029",
  "source": "pragma solidity ^0.4.24;\n\ncontract Quiz_Person_Limited_cli {\n\n//ГЛОБАЛЬНЫЕ ПЕРЕМЕННЫЕ\n\n\tbool public FINISHED;\t\t// Shows whether the quiz is opened/closed;\n\n\tstring public TITLE; \n\n    uint256 public beginTime;\t//\tQuiz start time (block timestamp at the start)\n    uint256 public REWARD;\t\t//\tDynamically calculated reward based on PARTICIPANTS.length\n    uint256 public MAX_USERS;\t//  Maximal quiantity of users specified by creator\t\n    uint256 public NUM_OPTIONS;\n\n    string public WINNING_OPTION;      //  Текст варианта, набравшего наибольшее количество голосов\n\n    address[] public PARTICIPANTS;\n\n    //\tСтруктура пользователя: голосовал ли ранее (да/нет), эл.почта, выбранный вариант ответа (номер)\n\tstruct User {\t\n\t    bool already;\n\t\tstring email;\n\t\tuint256 choice;\n\t}\n\n\t//\tСтруктура варианта ответа (опции): текстовое описание, число проголосовавших \"За\",\n\t//\tсостояние опции \"Описана\": Да/Нет\n\tstruct Option {\n\t\tstring text;\n\t\tuint256 totalVotes;\n\t\tbool descripted;\n\t}\n\n\t//\tАдрес создателя опроса в сети Ethereum \n\t//\t(определяется непосредственно при создании контракта опроса)\n\taddress public creator;\n\n\t// Соответствие между адресами в сети Ethereum и Пользователями опроса\n\tmapping (address => User) public users;\n\n\t//\tМассив вариантов ответа\n\tmapping (uint256 => Option) public options;\n\n//ФУНКЦИОНАЛЬНАЯ ЧАСТЬ\n\n\t//\tКлассический модификатор проверки исполнителя функции:\n\t//\tСерия выплат может быть инициирована только с контракта создателя опроса\n\tmodifier isCreator() {\n\t\trequire(creator == msg.sender, \"For creator uses only\");\n\t\t_;\n\t}\n\n\t//\tМодификатор функции, проверяющий, проходит ли опрос до сих пор\n\tmodifier still_on() {\n\t    require(address(this).balance > REWARD && !FINISHED, \"Quiz is over\");\n\t    _;\n\t}\n\t\n\t//\tМодификатор проверки двойного голосования: \n\t//\tпользователь может обратиться к throwVote лишь один раз\n\tmodifier no_double_vote() {\n\t    User storage u = users[msg.sender];\n\t    require(!u.already, \"Can`t vote twice\");\n\t    _;\n\t}\n\n\t//\tМодификатор проверки адреса на наличие исполняемого кода:\n\t//\tНельзя допустить попадания в список участников АККАУНТОВ-КОНТРАКТОВ,\n\t//\tпоскольку именно при помощи последних могут быть произведены попытки взлома\n\tmodifier not_contract() {\n\t\trequire(!isContract(msg.sender), \"Contract injection detected\");\n\t\t_;\n\t}\n\t\n\t//\tКонструктор контракта, создающий опрос с определенным количеством варианта\n\tconstructor\n\t(\n\t\tstring _title, \n\t\tuint256 _maxUsers, \n\t\tuint256 _reward\n\t) \n\tpublic\n\tpayable \n\t{\n\t    require(!isContract(msg.sender));\n\t    require(msg.value > 0, \"Creator is to fullfill reward funds\");\n\t    beginTime = now;\n\t    creator = msg.sender;\n\t    TITLE = _title;\n\t    REWARD = _reward;\n\t    MAX_USERS = _maxUsers;\n\n\t    emit Quiz_Created(TITLE, \"Person Limited\", creator, beginTime, MAX_USERS);\t\n\t}\n\t\n\t//\tФункция отправки голоса за определенный вариант (номер)\n\tfunction throwVote(uint256 _choice) \n\tpublic\n\tpayable\n\tnot_contract\n\tstill_on\n\tno_double_vote\n\t{\n\t\trequire(creator != msg.sender, \"Creator can`t throw votes!\");\n\t\trequire(PARTICIPANTS.length < MAX_USERS, \"Maximum users cap reached\");\n\t\trequire(options[_choice].descripted, \"Option must be descripted firsty!\");\n\n\t\tPARTICIPANTS.push(msg.sender);\n\n\t\tUser storage u = users[msg.sender];\n\t    u.already = true;\n\t    u.choice = _choice;\n\n\t    options[_choice].totalVotes += 1;\n\t    msg.sender.transfer(REWARD);\n\t}\n\n\tfunction finish() isCreator public {\n\t\tFINISHED = true;\n\t\tuint256 max;\n\t    uint256 winner;\n\t    for (uint256 i = 0; i < NUM_OPTIONS; i++) {\n\t        if (options[i].totalVotes > max) {\n\t            max = options[i].totalVotes;\n\t            winner = i;\n\t        }\n\t    }\n\t    WINNING_OPTION = options[winner].text;\n\t    emit Quiz_Finished(\"Creator finished the quiz\", TITLE, WINNING_OPTION, now);\n\t}\n\t\n\t//\tВспомогательная функция описания вариантов ответов (номер -> описание)\n\t//\t(Нужна ввиду отсутствия поддержки многомерных динамических массивов в Solidity,\n\t//\tкоим и является массив строк)\n\tfunction assignDescription(uint256 _no, string memory _text) \n\tpublic \n\tisCreator \n\t{\n\t\trequire(!options[_no].descripted, \"Option is descripted already\");\n\t    options[_no].text = _text;\n\t    options[_no].descripted = true;\n\t    NUM_OPTIONS += 1;\n\t    emit Option_Assigned(TITLE, _no, _text);\n\t}\n\n\t//\tФункция проверки адреса, используемая в модификаторе \"not_contract()\":\n\t//\tЕсли объем исполняемого кода адреса больше нуля, значит отправитель - контракт (жулик)\n\tfunction isContract(address addr) private view returns (bool) {\n  \t\tuint size;\n  \t\tassembly \n  \t\t{ \n  \t\t\tsize := extcodesize(addr)\n  \t\t}\n  \t\treturn size > 0;\n\t}\n\n\tevent Quiz_Created(\n\t\tstring title, \n\t\tstring _type, \n\t\taddress creator, \n\t\tuint256 timestamp, \n\t\tuint256 duration\n\t);\n\tevent Quiz_Finished(\n\t\tstring reason, \n\t\tstring title, \n\t\tstring winningOption, \n\t\tuint256 timestamp\n\t);\n\t\n\tevent Option_Assigned(string title, uint256 no, string text);\n\tevent Payout(uint256 amount, address[] participants, uint256 timestamp);\n}\n",
  "sourcePath": "/home/vlatt/Desktop/work/contracts/Client Side/Quiz_Person_Limited_cli.sol",
  "compiler": {
    "name": "solc",
    "version": "0.4.24+commit.e67f0147.Emscripten.clang"
  },
  "schemaVersion": "3.0.1",
  "updatedAt": "2019-02-08T07:31:29.421Z",
  "devdoc": {
    "methods": {}
  },
  "userdoc": {
    "methods": {}
  }
}