{
  "contractName": "Quiz_Time_Bounded_cli",
  "abi": [
    {
      "constant": true,
      "inputs": [],
      "name": "creator",
      "outputs": [
        {
          "name": "",
          "type": "address"
        }
      ],
      "payable": false,
      "stateMutability": "view",
      "type": "function"
    },
    {
      "constant": true,
      "inputs": [],
      "name": "MAX_REWARD",
      "outputs": [
        {
          "name": "",
          "type": "uint256"
        }
      ],
      "payable": false,
      "stateMutability": "view",
      "type": "function"
    },
    {
      "constant": true,
      "inputs": [],
      "name": "REWARD_FUNDS",
      "outputs": [
        {
          "name": "",
          "type": "uint256"
        }
      ],
      "payable": false,
      "stateMutability": "view",
      "type": "function"
    },
    {
      "constant": true,
      "inputs": [],
      "name": "endTime",
      "outputs": [
        {
          "name": "",
          "type": "uint256"
        }
      ],
      "payable": false,
      "stateMutability": "view",
      "type": "function"
    },
    {
      "constant": true,
      "inputs": [],
      "name": "NUM_OPTIONS",
      "outputs": [
        {
          "name": "",
          "type": "uint256"
        }
      ],
      "payable": false,
      "stateMutability": "view",
      "type": "function"
    },
    {
      "constant": true,
      "inputs": [],
      "name": "TITLE",
      "outputs": [
        {
          "name": "",
          "type": "string"
        }
      ],
      "payable": false,
      "stateMutability": "view",
      "type": "function"
    },
    {
      "constant": true,
      "inputs": [],
      "name": "beginTime",
      "outputs": [
        {
          "name": "",
          "type": "uint256"
        }
      ],
      "payable": false,
      "stateMutability": "view",
      "type": "function"
    },
    {
      "constant": true,
      "inputs": [],
      "name": "WINNING_OPTION",
      "outputs": [
        {
          "name": "",
          "type": "string"
        }
      ],
      "payable": false,
      "stateMutability": "view",
      "type": "function"
    },
    {
      "constant": true,
      "inputs": [],
      "name": "FINISHED",
      "outputs": [
        {
          "name": "",
          "type": "bool"
        }
      ],
      "payable": false,
      "stateMutability": "view",
      "type": "function"
    },
    {
      "constant": true,
      "inputs": [],
      "name": "REWARD",
      "outputs": [
        {
          "name": "",
          "type": "uint256"
        }
      ],
      "payable": false,
      "stateMutability": "view",
      "type": "function"
    },
    {
      "constant": true,
      "inputs": [
        {
          "name": "",
          "type": "uint256"
        }
      ],
      "name": "PARTICIPANTS",
      "outputs": [
        {
          "name": "",
          "type": "address"
        }
      ],
      "payable": false,
      "stateMutability": "view",
      "type": "function"
    },
    {
      "inputs": [
        {
          "name": "_title",
          "type": "string"
        },
        {
          "name": "duration",
          "type": "uint256"
        },
        {
          "name": "_maxReward",
          "type": "uint256"
        }
      ],
      "payable": true,
      "stateMutability": "payable",
      "type": "constructor"
    },
    {
      "anonymous": false,
      "inputs": [
        {
          "indexed": false,
          "name": "title",
          "type": "string"
        },
        {
          "indexed": false,
          "name": "_type",
          "type": "string"
        },
        {
          "indexed": false,
          "name": "creator",
          "type": "address"
        },
        {
          "indexed": false,
          "name": "timestamp",
          "type": "uint256"
        },
        {
          "indexed": false,
          "name": "duration",
          "type": "uint256"
        }
      ],
      "name": "Quiz_Created",
      "type": "event"
    },
    {
      "anonymous": false,
      "inputs": [
        {
          "indexed": false,
          "name": "reason",
          "type": "string"
        },
        {
          "indexed": false,
          "name": "title",
          "type": "string"
        },
        {
          "indexed": false,
          "name": "winningOption",
          "type": "string"
        },
        {
          "indexed": false,
          "name": "timestamp",
          "type": "uint256"
        }
      ],
      "name": "Quiz_Finished",
      "type": "event"
    },
    {
      "anonymous": false,
      "inputs": [
        {
          "indexed": false,
          "name": "title",
          "type": "string"
        },
        {
          "indexed": false,
          "name": "no",
          "type": "uint256"
        },
        {
          "indexed": false,
          "name": "text",
          "type": "string"
        }
      ],
      "name": "Option_Assigned",
      "type": "event"
    },
    {
      "anonymous": false,
      "inputs": [
        {
          "indexed": false,
          "name": "amount",
          "type": "uint256"
        },
        {
          "indexed": false,
          "name": "participants",
          "type": "address[]"
        },
        {
          "indexed": false,
          "name": "timestamp",
          "type": "uint256"
        }
      ],
      "name": "Payout",
      "type": "event"
    },
    {
      "constant": false,
      "inputs": [
        {
          "name": "_choice",
          "type": "uint256"
        }
      ],
      "name": "throwVote",
      "outputs": [],
      "payable": false,
      "stateMutability": "nonpayable",
      "type": "function"
    },
    {
      "constant": false,
      "inputs": [],
      "name": "finish",
      "outputs": [],
      "payable": false,
      "stateMutability": "nonpayable",
      "type": "function"
    },
    {
      "constant": false,
      "inputs": [
        {
          "name": "_no",
          "type": "uint256"
        },
        {
          "name": "_text",
          "type": "string"
        }
      ],
      "name": "assignDescription",
      "outputs": [],
      "payable": false,
      "stateMutability": "nonpayable",
      "type": "function"
    }
  ],
  "bytecode": "0x6080604052604051620018e1380380620018e18339810180604052810190808051820192919060200180519060200190929190805190602001909291905050506200005933620002f4640100000000026401000000009004565b1515156200006657600080fd5b60003411151562000105576040517f08c379a00000000000000000000000000000000000000000000000000000000081526004018080602001828103825260238152602001807f43726561746f7220697320746f2066756c6c66696c6c2072657761726420667581526020017f6e6473000000000000000000000000000000000000000000000000000000000081525060400191505060405180910390fd5b42600381905550816003540160048190555033600a60006101000a81548173ffffffffffffffffffffffffffffffffffffffff021916908373ffffffffffffffffffffffffffffffffffffffff16021790555082600190805190602001906200017092919062000307565b50806007819055506002348115156200018557fe5b046005819055507f10e57665fe994201835fb016de57f84a3da48a56b093ac34dfb3d0a39c69c3646001600a60009054906101000a900473ffffffffffffffffffffffffffffffffffffffff16600354856040518080602001806020018673ffffffffffffffffffffffffffffffffffffffff1673ffffffffffffffffffffffffffffffffffffffff168152602001858152602001848152602001838103835287818154600181600116156101000203166002900481526020019150805460018160011615610100020316600290048015620002a55780601f106200027957610100808354040283529160200191620002a5565b820191906000526020600020905b8154815290600101906020018083116200028757829003601f168201915b50508381038252600e8152602001807f506572736f6e204c696d69746564000000000000000000000000000000000000815250602001965050505050505060405180910390a1505050620003b6565b600080823b905060008111915050919050565b828054600181600116156101000203166002900490600052602060002090601f016020900481019282601f106200034a57805160ff19168380011785556200037b565b828001600101855582156200037b579182015b828111156200037a5782518255916020019190600101906200035d565b5b5090506200038a91906200038e565b5090565b620003b391905b80821115620003af57600081600090555060010162000395565b5090565b90565b61151b80620003c66000396000f3006080604052600436106100d0576000357c0100000000000000000000000000000000000000000000000000000000900463ffffffff16806302d05d3f146100d55780630e1505e01461012c5780631de67fb7146101575780633197cbb6146101825780633db62e2c146101ad5780637ef83804146101d857806388149fb9146102685780639f68989c14610293578063a97cb7c714610323578063b54e5e8f14610350578063ca91a7741461037f578063cab34c08146103f2578063d56b28891461041d578063d882d58d14610434575b600080fd5b3480156100e157600080fd5b506100ea6104a1565b604051808273ffffffffffffffffffffffffffffffffffffffff1673ffffffffffffffffffffffffffffffffffffffff16815260200191505060405180910390f35b34801561013857600080fd5b506101416104c7565b6040518082815260200191505060405180910390f35b34801561016357600080fd5b5061016c6104cd565b6040518082815260200191505060405180910390f35b34801561018e57600080fd5b506101976104d3565b6040518082815260200191505060405180910390f35b3480156101b957600080fd5b506101c26104d9565b6040518082815260200191505060405180910390f35b3480156101e457600080fd5b506101ed6104df565b6040518080602001828103825283818151815260200191508051906020019080838360005b8381101561022d578082015181840152602081019050610212565b50505050905090810190601f16801561025a5780820380516001836020036101000a031916815260200191505b509250505060405180910390f35b34801561027457600080fd5b5061027d61057d565b6040518082815260200191505060405180910390f35b34801561029f57600080fd5b506102a8610583565b6040518080602001828103825283818151815260200191508051906020019080838360005b838110156102e85780820151818401526020810190506102cd565b50505050905090810190601f1680156103155780820380516001836020036101000a031916815260200191505b509250505060405180910390f35b34801561032f57600080fd5b5061034e60048036038101908080359060200190929190505050610621565b005b34801561035c57600080fd5b50610365610a90565b604051808215151515815260200191505060405180910390f35b34801561038b57600080fd5b506103f060048036038101908080359060200190929190803590602001908201803590602001908080601f0160208091040260200160405190810160405280939291908181526020018383808284378201915050505050509192919290505050610aa2565b005b3480156103fe57600080fd5b50610407610d9e565b6040518082815260200191505060405180910390f35b34801561042957600080fd5b50610432610da4565b005b34801561044057600080fd5b5061045f600480360381019080803590602001909291905050506110ad565b604051808273ffffffffffffffffffffffffffffffffffffffff1673ffffffffffffffffffffffffffffffffffffffff16815260200191505060405180910390f35b600a60009054906101000a900473ffffffffffffffffffffffffffffffffffffffff1681565b60075481565b60055481565b60045481565b60085481565b60018054600181600116156101000203166002900480601f0160208091040260200160405190810160405280929190818152602001828054600181600116156101000203166002900480156105755780601f1061054a57610100808354040283529160200191610575565b820191906000526020600020905b81548152906001019060200180831161055857829003601f168201915b505050505081565b60035481565b60028054600181600116156101000203166002900480601f0160208091040260200160405190810160405280929190818152602001828054600181600116156101000203166002900480156106195780601f106105ee57610100808354040283529160200191610619565b820191906000526020600020905b8154815290600101906020018083116105fc57829003601f168201915b505050505081565b600061062c336110eb565b1515156106a1576040517f08c379a000000000000000000000000000000000000000000000000000000000815260040180806020018281038252601b8152602001807f436f6e747261637420696e6a656374696f6e206465746563746564000000000081525060200191505060405180910390fd5b600454421080156106be57506000809054906101000a900460ff16155b1515610732576040517f08c379a000000000000000000000000000000000000000000000000000000000815260040180806020018281038252600c8152602001807f5175697a206973206f766572000000000000000000000000000000000000000081525060200191505060405180910390fd5b6000600b60003373ffffffffffffffffffffffffffffffffffffffff1673ffffffffffffffffffffffffffffffffffffffff16815260200190815260200160002090508060000160009054906101000a900460ff161515156107fc576040517f08c379a00000000000000000000000000000000000000000000000000000000081526004018080602001828103825260108152602001807f43616e607420766f74652074776963650000000000000000000000000000000081525060200191505060405180910390fd5b3373ffffffffffffffffffffffffffffffffffffffff16600a60009054906101000a900473ffffffffffffffffffffffffffffffffffffffff1673ffffffffffffffffffffffffffffffffffffffff16141515156108c2576040517f08c379a000000000000000000000000000000000000000000000000000000000815260040180806020018281038252601a8152602001807f43726561746f722063616e6074207468726f7720766f7465732100000000000081525060200191505060405180910390fd5b600c600084815260200190815260200160002060020160009054906101000a900460ff161515610980576040517f08c379a00000000000000000000000000000000000000000000000000000000081526004018080602001828103825260228152602001807f4f7074696f6e206d75737420626520646573637269707465642066697273746c81526020017f792100000000000000000000000000000000000000000000000000000000000081525060400191505060405180910390fd5b60093390806001815401808255809150509060018203906000526020600020016000909192909190916101000a81548173ffffffffffffffffffffffffffffffffffffffff021916908373ffffffffffffffffffffffffffffffffffffffff16021790555050600b60003373ffffffffffffffffffffffffffffffffffffffff1673ffffffffffffffffffffffffffffffffffffffff168152602001908152602001600020915060018260000160006101000a81548160ff0219169083151502179055508282600201819055506001600c600085815260200190815260200160002060010160008282540192505081905550600980549050600554811515610a8457fe5b04600681905550505050565b6000809054906101000a900460ff1681565b3373ffffffffffffffffffffffffffffffffffffffff16600a60009054906101000a900473ffffffffffffffffffffffffffffffffffffffff1673ffffffffffffffffffffffffffffffffffffffff16141515610b67576040517f08c379a00000000000000000000000000000000000000000000000000000000081526004018080602001828103825260158152602001807f466f722063726561746f722075736573206f6e6c79000000000000000000000081525060200191505060405180910390fd5b600c600083815260200190815260200160002060020160009054906101000a900460ff16151515610c00576040517f08c379a000000000000000000000000000000000000000000000000000000000815260040180806020018281038252601c8152602001807f4f7074696f6e206973206465736372697074656420616c72656164790000000081525060200191505060405180910390fd5b80600c60008481526020019081526020016000206000019080519060200190610c2a9291906113c3565b506001600c600084815260200190815260200160002060020160006101000a81548160ff02191690831515021790555060016008600082825401925050819055507fa4bd90ecd8eca719a5867b5682b448ca871a8a961509aee119fd17f01e8d780160018383604051808060200184815260200180602001838103835286818154600181600116156101000203166002900481526020019150805460018160011615610100020316600290048015610d235780601f10610cf857610100808354040283529160200191610d23565b820191906000526020600020905b815481529060010190602001808311610d0657829003601f168201915b5050838103825284818151815260200191508051906020019080838360005b83811015610d5d578082015181840152602081019050610d42565b50505050905090810190601f168015610d8a5780820380516001836020036101000a031916815260200191505b509550505050505060405180910390a15050565b60065481565b60008060003373ffffffffffffffffffffffffffffffffffffffff16600a60009054906101000a900473ffffffffffffffffffffffffffffffffffffffff1673ffffffffffffffffffffffffffffffffffffffff16141515610e6e576040517f08c379a00000000000000000000000000000000000000000000000000000000081526004018080602001828103825260158152602001807f466f722063726561746f722075736573206f6e6c79000000000000000000000081525060200191505060405180910390fd5b60016000806101000a81548160ff021916908315150217905550600090505b600854811015610edf5782600c6000838152602001908152602001600020600101541115610ed257600c60008281526020019081526020016000206001015492508091505b8080600101915050610e8d565b600c600083815260200190815260200160002060000160029080546001816001161561010002031660029004610f16929190611443565b507f2f8afdcf307095d6035a455bde5c5a37f187558b91bb7cbcc595cfbfd09584626001600260045460405180806020018060200180602001858152602001848103845260198152602001807f43726561746f722066696e697368656420746865207175697a0000000000000081525060200184810383528781815460018160011615610100020316600290048152602001915080546001816001161561010002031660029004801561100a5780601f10610fdf5761010080835404028352916020019161100a565b820191906000526020600020905b815481529060010190602001808311610fed57829003601f168201915b505084810382528681815460018160011615610100020316600290048152602001915080546001816001161561010002031660029004801561108d5780601f106110625761010080835404028352916020019161108d565b820191906000526020600020905b81548152906001019060200180831161107057829003601f168201915b5050965050505050505060405180910390a16110a76110fe565b50505050565b6009818154811015156110bc57fe5b906000526020600020016000915054906101000a900473ffffffffffffffffffffffffffffffffffffffff1681565b600080823b905060008111915050919050565b6000803373ffffffffffffffffffffffffffffffffffffffff16600a60009054906101000a900473ffffffffffffffffffffffffffffffffffffffff1673ffffffffffffffffffffffffffffffffffffffff161415156111c6576040517f08c379a00000000000000000000000000000000000000000000000000000000081526004018080602001828103825260158152602001807f466f722063726561746f722075736573206f6e6c79000000000000000000000081525060200191505060405180910390fd5b60075460065411156111dc576007546006819055505b600090505b60098054905081101561127d576009818154811015156111fd57fe5b9060005260206000200160009054906101000a900473ffffffffffffffffffffffffffffffffffffffff1673ffffffffffffffffffffffffffffffffffffffff166108fc6006549081150290604051600060405180830381858888f1935050505015801561126f573d6000803e3d6000fd5b5080806001019150506111e1565b600a60009054906101000a900473ffffffffffffffffffffffffffffffffffffffff1673ffffffffffffffffffffffffffffffffffffffff166108fc3073ffffffffffffffffffffffffffffffffffffffff16319081150290604051600060405180830381858888f193505050501580156112fc573d6000803e3d6000fd5b507f84d1f6356fc6bb74f7750c308f2b73a187ba5fe5b598483a87e2cd741f00966a600654600942604051808481526020018060200183815260200182810382528481815481526020019150805480156113ab57602002820191906000526020600020905b8160009054906101000a900473ffffffffffffffffffffffffffffffffffffffff1673ffffffffffffffffffffffffffffffffffffffff1681526020019060010190808311611361575b505094505050505060405180910390a1600191505090565b828054600181600116156101000203166002900490600052602060002090601f016020900481019282601f1061140457805160ff1916838001178555611432565b82800160010185558215611432579182015b82811115611431578251825591602001919060010190611416565b5b50905061143f91906114ca565b5090565b828054600181600116156101000203166002900490600052602060002090601f016020900481019282601f1061147c57805485556114b9565b828001600101855582156114b957600052602060002091601f016020900482015b828111156114b857825482559160010191906001019061149d565b5b5090506114c691906114ca565b5090565b6114ec91905b808211156114e85760008160009055506001016114d0565b5090565b905600a165627a7a72305820f1462fbad6d94e62372ae51708cde0c1334ab399113832fbaf4632824118e06f0029",
  "source": "pragma solidity ^0.4.24;\n\ncontract Quiz_Time_Bounded_cli {\n\n//ГЛОБАЛЬНЫЕ ПЕРЕМЕННЫЕ\n\n\tbool public FINISHED;\t\t// Shows whether the quiz is opened/closed;\n\t\n\tstring public TITLE;\n    string public WINNING_OPTION;      //  Текст варианта, набравшего наибольшее количество голосов \n\n    uint256 public beginTime;\t//\tQuiz start time (block timestamp at the start)\n    uint256 public endTime;\t\t//\tQuiz finish time (\"beginTime\" + \"duration\" user input in the constructor)\n\n    uint256 public REWARD_FUNDS;\t\t//\tAll the funds to be splitted between participants as a reward\n    uint256 public REWARD;\t\t\t\t//\tDynamically calculated reward based on PARTICIPANTS.length\n\n    uint256 public MAX_REWARD;\t\t\t// \tМаксимальное вознаграждение за участие в опросе (устанавливается создателем опроса)\n    uint256 public NUM_OPTIONS;\n\n    address[] public PARTICIPANTS;\n\n    //\tСтруктура пользователя: голосовал ли ранее (да/нет), эл.почта, выбранный вариант ответа (номер)\n\tstruct User {\t\n\t    bool already;\n\t\tstring email;\n\t\tuint256 choice;\n\t}\n\n\t//\tСтруктура варианта ответа (опции): текстовое описание, число проголосовавших \"За\"\n\tstruct Option {\n\t\tstring text;\n\t\tuint256 totalVotes;\n\t\tbool descripted;\n\t}\n\n\t//\tАдрес создателя опроса в сети Ethereum \n\t//\t(определяется непосредственно при создании контракта опроса)\n\taddress public creator;\n\n\t// Соответствие между адресами в сети Ethereum и Пользователями опроса\n\tmapping (address => User) users;\n\n\t//\tМассив вариантов ответа\n\tmapping (uint256 => Option) options;\n\n//ФУНКЦИОНАЛЬНАЯ ЧАСТЬ\n\n\t//\tКлассический модификатор проверки исполнителя функции:\n\t//\tСерия выплат может быть инициирована только с контракта создателя опроса\n\tmodifier isCreator() {\n\t\trequire(creator == msg.sender, \"For creator uses only\");\n\t\t_;\n\t}\n\n\t//\tМодификатор функции, проверяющий, проходит ли опрос до сих пор\n\tmodifier still_on() {\n\t    require(now < endTime && !FINISHED, \"Quiz is over\");\n\t    _;\n\t}\n\t\n\t//\tМодификатор проверки двойного голосования: \n\t//\tпользователь может обратиться к throwVote лишь один раз\n\tmodifier no_double_vote() {\n\t    User storage u = users[msg.sender];\n\t    require(!u.already, \"Can`t vote twice\");\n\t    _;\n\t}\n\n\t//\tМодификатор проверки адреса на наличие исполняемого кода:\n\t//\tНельзя допустить попадания в список участников АККАУНТОВ-КОНТРАКТОВ,\n\t//\tпоскольку именно при помощи последних могут быть произведены попытки взлома\n\tmodifier not_contract() {\n\t\trequire(!isContract(msg.sender), \"Contract injection detected\");\n\t\t_;\n\t}\n\t\n\t//\tКонструктор контракта, создающий опрос с определенным количеством варианта\n\tconstructor\n\t(\n\t\tstring _title, \n\t\tuint256 duration, \n\t\tuint256 _maxReward\n\t) \n\tpublic\n\tpayable \n\t{\n\t    require(!isContract(msg.sender));\n\t    require(msg.value > 0, \"Creator is to fullfill reward funds\");\n\t    beginTime = now;\n\t    endTime = beginTime + duration;\n\t    creator = msg.sender;\n\t    TITLE = _title;\n\t    MAX_REWARD = _maxReward;\n\t    REWARD_FUNDS = msg.value / 2;\n\n\t    emit Quiz_Created(TITLE, \"Person Limited\", creator, beginTime, duration);\t\n\t}\n\t\n\t//\tФункция отправки голоса за определенный вариант (номер)\n\tfunction throwVote(uint256 _choice) \n\tpublic\n\tnot_contract\n\tstill_on\n\tno_double_vote\n\t{\n\t\trequire(creator != msg.sender, \"Creator can`t throw votes!\");\n\t\trequire(options[_choice].descripted, \"Option must be descripted firstly!\");\n\n\t\tPARTICIPANTS.push(msg.sender);\n\n\t\tUser storage u = users[msg.sender];\n\t\tu.already = true;\n\t\tu.choice = _choice;\n\t    \n\t    options[_choice].totalVotes += 1;\n\n\t    REWARD = REWARD_FUNDS / PARTICIPANTS.length;\n\t}\n\n\tfunction finish() isCreator public {\n\t\tFINISHED = true;\n\n\t\tuint256 max;\n\t    uint256 winner;\n\n\t    for (uint256 i = 0; i < NUM_OPTIONS; i++) {\n\t        if (options[i].totalVotes > max) {\n\t            max = options[i].totalVotes;\n\t            winner = i;\n\t        }\n\t    }\n\n\t    WINNING_OPTION = options[winner].text;\n\n\t    emit Quiz_Finished(\"Creator finished the quiz\", TITLE, WINNING_OPTION, endTime);\n\t    payout();\n\t}\n\n\t//\tПроведение выплат участникам\n\tfunction payout() internal isCreator returns (bool success) {\n\t\t//\tЕсли размер награды превышает максимальный, выплачивается \n\t\t//\tустановленная создателем максимальная награда\n\t\tif (REWARD > MAX_REWARD)\n\t\t\tREWARD = MAX_REWARD;\n\n\t\tfor (uint256 i = 0; i < PARTICIPANTS.length; i++) {\n\t\t\tPARTICIPANTS[i].transfer(REWARD);\n\t\t}\n\t\t// Остатки средств по контракту отправляются создателю контракта\n\t\tcreator.transfer(address(this).balance);\n\t\temit Payout(REWARD, PARTICIPANTS, now);\n\t\treturn true;\n\t}\n\t\n\t//\tВспомогательная функция описания вариантов ответов (номер -> описание)\n\t//\t(Нужна ввиду отсутствия поддержки многомерных динамических массивов в Solidity,\n\t//\tкоим и является массив строк)\n\tfunction assignDescription(uint256 _no, string memory _text) \n\tpublic \n\tisCreator \n\t{\n\t\trequire(!options[_no].descripted, \"Option is descripted already\");\n\t    options[_no].text = _text;\n\t    options[_no].descripted = true;\n\t    NUM_OPTIONS += 1;\n\t    emit Option_Assigned(TITLE, _no, _text);\n\t}\n\n\t//\tФункция проверки адреса, используемая в модификаторе \"not_contract()\":\n\t//\tЕсли объем исполняемого кода адреса больше нуля, значит отправитель - контракт (жулик)\n\tfunction isContract(address addr) private view returns (bool) {\n  \t\tuint size;\n  \t\tassembly \n  \t\t{ \n  \t\t\tsize := extcodesize(addr)\n  \t\t}\n  \t\treturn size > 0;\n\t}\n\n\tevent Quiz_Created(\n\t\tstring title, \n\t\tstring _type, \n\t\taddress creator, \n\t\tuint256 timestamp, \n\t\tuint256 duration\n\t);\n\t\n\tevent Quiz_Finished(\n\t\tstring reason, \n\t\tstring title, \n\t\tstring winningOption, \n\t\tuint256 timestamp\n\t);\n\n\tevent Option_Assigned(string title, uint256 no, string text);\n\tevent Payout(uint256 amount, address[] participants, uint256 timestamp);\n}\n",
  "sourcePath": "/home/vlatt/Desktop/work/contracts/Client Side/Quiz_Time_Bounded_cli.sol",
  "compiler": {
    "name": "solc",
    "version": "0.4.24+commit.e67f0147.Emscripten.clang"
  },
  "schemaVersion": "3.0.1",
  "updatedAt": "2019-02-08T13:25:04.979Z",
  "devdoc": {
    "methods": {}
  },
  "userdoc": {
    "methods": {}
  }
}