{
  "contractName": "Quiz_Time_Bounded",
  "abi": [
    {
      "constant": true,
      "inputs": [],
      "name": "creator",
      "outputs": [
        {
          "name": "",
          "type": "address"
        }
      ],
      "payable": false,
      "stateMutability": "view",
      "type": "function"
    },
    {
      "constant": true,
      "inputs": [],
      "name": "MAX_REWARD",
      "outputs": [
        {
          "name": "",
          "type": "uint256"
        }
      ],
      "payable": false,
      "stateMutability": "view",
      "type": "function"
    },
    {
      "constant": true,
      "inputs": [],
      "name": "REWARD_FUNDS",
      "outputs": [
        {
          "name": "",
          "type": "uint256"
        }
      ],
      "payable": false,
      "stateMutability": "view",
      "type": "function"
    },
    {
      "constant": true,
      "inputs": [],
      "name": "endTime",
      "outputs": [
        {
          "name": "",
          "type": "uint256"
        }
      ],
      "payable": false,
      "stateMutability": "view",
      "type": "function"
    },
    {
      "constant": true,
      "inputs": [],
      "name": "NUM_OPTIONS",
      "outputs": [
        {
          "name": "",
          "type": "uint256"
        }
      ],
      "payable": false,
      "stateMutability": "view",
      "type": "function"
    },
    {
      "constant": true,
      "inputs": [],
      "name": "TITLE",
      "outputs": [
        {
          "name": "",
          "type": "string"
        }
      ],
      "payable": false,
      "stateMutability": "view",
      "type": "function"
    },
    {
      "constant": true,
      "inputs": [],
      "name": "beginTime",
      "outputs": [
        {
          "name": "",
          "type": "uint256"
        }
      ],
      "payable": false,
      "stateMutability": "view",
      "type": "function"
    },
    {
      "constant": true,
      "inputs": [],
      "name": "EXISTS",
      "outputs": [
        {
          "name": "",
          "type": "bool"
        }
      ],
      "payable": false,
      "stateMutability": "view",
      "type": "function"
    },
    {
      "constant": true,
      "inputs": [],
      "name": "WINNING_OPTION",
      "outputs": [
        {
          "name": "",
          "type": "string"
        }
      ],
      "payable": false,
      "stateMutability": "view",
      "type": "function"
    },
    {
      "constant": true,
      "inputs": [],
      "name": "FINISHED",
      "outputs": [
        {
          "name": "",
          "type": "bool"
        }
      ],
      "payable": false,
      "stateMutability": "view",
      "type": "function"
    },
    {
      "constant": true,
      "inputs": [],
      "name": "REWARD",
      "outputs": [
        {
          "name": "",
          "type": "uint256"
        }
      ],
      "payable": false,
      "stateMutability": "view",
      "type": "function"
    },
    {
      "constant": true,
      "inputs": [
        {
          "name": "",
          "type": "uint256"
        }
      ],
      "name": "PARTICIPANTS",
      "outputs": [
        {
          "name": "",
          "type": "address"
        }
      ],
      "payable": false,
      "stateMutability": "view",
      "type": "function"
    },
    {
      "constant": true,
      "inputs": [],
      "name": "master",
      "outputs": [
        {
          "name": "",
          "type": "address"
        }
      ],
      "payable": false,
      "stateMutability": "view",
      "type": "function"
    },
    {
      "inputs": [
        {
          "name": "_creator",
          "type": "address"
        },
        {
          "name": "_title",
          "type": "string"
        },
        {
          "name": "duration",
          "type": "uint256"
        },
        {
          "name": "_maxReward",
          "type": "uint256"
        }
      ],
      "payable": true,
      "stateMutability": "payable",
      "type": "constructor"
    },
    {
      "anonymous": false,
      "inputs": [
        {
          "indexed": false,
          "name": "title",
          "type": "string"
        },
        {
          "indexed": false,
          "name": "_type",
          "type": "string"
        },
        {
          "indexed": false,
          "name": "creator",
          "type": "address"
        },
        {
          "indexed": false,
          "name": "timestamp",
          "type": "uint256"
        },
        {
          "indexed": false,
          "name": "duration",
          "type": "uint256"
        }
      ],
      "name": "Quiz_Created",
      "type": "event"
    },
    {
      "anonymous": false,
      "inputs": [
        {
          "indexed": false,
          "name": "reason",
          "type": "string"
        },
        {
          "indexed": false,
          "name": "title",
          "type": "string"
        },
        {
          "indexed": false,
          "name": "winningOption",
          "type": "string"
        },
        {
          "indexed": false,
          "name": "timestamp",
          "type": "uint256"
        }
      ],
      "name": "Quiz_Finished",
      "type": "event"
    },
    {
      "anonymous": false,
      "inputs": [
        {
          "indexed": false,
          "name": "title",
          "type": "string"
        },
        {
          "indexed": false,
          "name": "no",
          "type": "uint256"
        },
        {
          "indexed": false,
          "name": "text",
          "type": "string"
        }
      ],
      "name": "Option_Assigned",
      "type": "event"
    },
    {
      "anonymous": false,
      "inputs": [
        {
          "indexed": false,
          "name": "amount",
          "type": "uint256"
        },
        {
          "indexed": false,
          "name": "participants",
          "type": "address[]"
        },
        {
          "indexed": false,
          "name": "timestamp",
          "type": "uint256"
        }
      ],
      "name": "Payout",
      "type": "event"
    },
    {
      "constant": false,
      "inputs": [
        {
          "name": "_voter",
          "type": "address"
        },
        {
          "name": "_choice",
          "type": "uint256"
        }
      ],
      "name": "throwVote",
      "outputs": [],
      "payable": false,
      "stateMutability": "nonpayable",
      "type": "function"
    },
    {
      "constant": false,
      "inputs": [],
      "name": "finish",
      "outputs": [],
      "payable": false,
      "stateMutability": "nonpayable",
      "type": "function"
    },
    {
      "constant": false,
      "inputs": [
        {
          "name": "_no",
          "type": "uint256"
        },
        {
          "name": "_text",
          "type": "string"
        }
      ],
      "name": "assignDescription",
      "outputs": [],
      "payable": false,
      "stateMutability": "nonpayable",
      "type": "function"
    }
  ],
  "bytecode": "0x608060405260016000806101000a81548160ff02191690831515021790555060405162001a8338038062001a83833981018060405281019080805190602001909291908051820192919060200180519060200190929190805190602001909291905050506200007d3362000359640100000000026401000000009004565b15156200008957600080fd5b60003411151562000128576040517f08c379a00000000000000000000000000000000000000000000000000000000081526004018080602001828103825260238152602001807f43726561746f7220697320746f2066756c6c66696c6c2072657761726420667581526020017f6e6473000000000000000000000000000000000000000000000000000000000081525060400191505060405180910390fd5b42600381905550816003540160048190555083600a60006101000a81548173ffffffffffffffffffffffffffffffffffffffff021916908373ffffffffffffffffffffffffffffffffffffffff16021790555033600b60006101000a81548173ffffffffffffffffffffffffffffffffffffffff021916908373ffffffffffffffffffffffffffffffffffffffff1602179055508260019080519060200190620001d49291906200036c565b5080600781905550600234811515620001e957fe5b046005819055507f10e57665fe994201835fb016de57f84a3da48a56b093ac34dfb3d0a39c69c3646001600a60009054906101000a900473ffffffffffffffffffffffffffffffffffffffff16600354856040518080602001806020018673ffffffffffffffffffffffffffffffffffffffff1673ffffffffffffffffffffffffffffffffffffffff168152602001858152602001848152602001838103835287818154600181600116156101000203166002900481526020019150805460018160011615610100020316600290048015620003095780601f10620002dd5761010080835404028352916020019162000309565b820191906000526020600020905b815481529060010190602001808311620002eb57829003601f168201915b50508381038252600e8152602001807f506572736f6e204c696d69746564000000000000000000000000000000000000815250602001965050505050505060405180910390a1505050506200041b565b600080823b905060008111915050919050565b828054600181600116156101000203166002900490600052602060002090601f016020900481019282601f10620003af57805160ff1916838001178555620003e0565b82800160010185558215620003e0579182015b82811115620003df578251825591602001919060010190620003c2565b5b509050620003ef9190620003f3565b5090565b6200041891905b8082111562000414576000816000905550600101620003fa565b5090565b90565b611658806200042b6000396000f3006080604052600436106100e6576000357c0100000000000000000000000000000000000000000000000000000000900463ffffffff16806302d05d3f146100eb5780630e1505e0146101425780631de67fb71461016d5780633197cbb6146101985780633db62e2c146101c35780637ef83804146101ee57806388149fb91461027e5780639005c749146102a95780639f68989c146102d8578063b54e5e8f14610368578063ca91a77414610397578063cab34c081461040a578063d56b288914610435578063d882d58d1461044c578063df7b0d3a146104b9578063ee97f7f314610506575b600080fd5b3480156100f757600080fd5b5061010061055d565b604051808273ffffffffffffffffffffffffffffffffffffffff1673ffffffffffffffffffffffffffffffffffffffff16815260200191505060405180910390f35b34801561014e57600080fd5b50610157610583565b6040518082815260200191505060405180910390f35b34801561017957600080fd5b50610182610589565b6040518082815260200191505060405180910390f35b3480156101a457600080fd5b506101ad61058f565b6040518082815260200191505060405180910390f35b3480156101cf57600080fd5b506101d8610595565b6040518082815260200191505060405180910390f35b3480156101fa57600080fd5b5061020361059b565b6040518080602001828103825283818151815260200191508051906020019080838360005b83811015610243578082015181840152602081019050610228565b50505050905090810190601f1680156102705780820380516001836020036101000a031916815260200191505b509250505060405180910390f35b34801561028a57600080fd5b50610293610639565b6040518082815260200191505060405180910390f35b3480156102b557600080fd5b506102be61063f565b604051808215151515815260200191505060405180910390f35b3480156102e457600080fd5b506102ed610651565b6040518080602001828103825283818151815260200191508051906020019080838360005b8381101561032d578082015181840152602081019050610312565b50505050905090810190601f16801561035a5780820380516001836020036101000a031916815260200191505b509250505060405180910390f35b34801561037457600080fd5b5061037d6106ef565b604051808215151515815260200191505060405180910390f35b3480156103a357600080fd5b5061040860048036038101908080359060200190929190803590602001908201803590602001908080601f0160208091040260200160405190810160405280939291908181526020018383808284378201915050505050509192919290505050610702565b005b34801561041657600080fd5b5061041f6109fe565b6040518082815260200191505060405180910390f35b34801561044157600080fd5b5061044a610a04565b005b34801561045857600080fd5b5061047760048036038101908080359060200190929190505050610d0e565b604051808273ffffffffffffffffffffffffffffffffffffffff1673ffffffffffffffffffffffffffffffffffffffff16815260200191505060405180910390f35b3480156104c557600080fd5b50610504600480360381019080803573ffffffffffffffffffffffffffffffffffffffff16906020019092919080359060200190929190505050610d4c565b005b34801561051257600080fd5b5061051b611206565b604051808273ffffffffffffffffffffffffffffffffffffffff1673ffffffffffffffffffffffffffffffffffffffff16815260200191505060405180910390f35b600a60009054906101000a900473ffffffffffffffffffffffffffffffffffffffff1681565b60075481565b60055481565b60045481565b60085481565b60018054600181600116156101000203166002900480601f0160208091040260200160405190810160405280929190818152602001828054600181600116156101000203166002900480156106315780601f1061060657610100808354040283529160200191610631565b820191906000526020600020905b81548152906001019060200180831161061457829003601f168201915b505050505081565b60035481565b6000809054906101000a900460ff1681565b60028054600181600116156101000203166002900480601f0160208091040260200160405190810160405280929190818152602001828054600181600116156101000203166002900480156106e75780601f106106bc576101008083540402835291602001916106e7565b820191906000526020600020905b8154815290600101906020018083116106ca57829003601f168201915b505050505081565b600060019054906101000a900460ff1681565b3373ffffffffffffffffffffffffffffffffffffffff16600b60009054906101000a900473ffffffffffffffffffffffffffffffffffffffff1673ffffffffffffffffffffffffffffffffffffffff161415156107c7576040517f08c379a00000000000000000000000000000000000000000000000000000000081526004018080602001828103825260148152602001807f466f72206d61737465722075736573206f6e6c7900000000000000000000000081525060200191505060405180910390fd5b600d600083815260200190815260200160002060020160009054906101000a900460ff16151515610860576040517f08c379a000000000000000000000000000000000000000000000000000000000815260040180806020018281038252601c8152602001807f4f7074696f6e206973206465736372697074656420616c72656164790000000081525060200191505060405180910390fd5b80600d6000848152602001908152602001600020600001908051906020019061088a929190611500565b506001600d600084815260200190815260200160002060020160006101000a81548160ff02191690831515021790555060016008600082825401925050819055507fa4bd90ecd8eca719a5867b5682b448ca871a8a961509aee119fd17f01e8d7801600183836040518080602001848152602001806020018381038352868181546001816001161561010002031660029004815260200191508054600181600116156101000203166002900480156109835780601f1061095857610100808354040283529160200191610983565b820191906000526020600020905b81548152906001019060200180831161096657829003601f168201915b5050838103825284818151815260200191508051906020019080838360005b838110156109bd5780820151818401526020810190506109a2565b50505050905090810190601f1680156109ea5780820380516001836020036101000a031916815260200191505b509550505050505060405180910390a15050565b60065481565b60008060003373ffffffffffffffffffffffffffffffffffffffff16600b60009054906101000a900473ffffffffffffffffffffffffffffffffffffffff1673ffffffffffffffffffffffffffffffffffffffff16141515610ace576040517f08c379a00000000000000000000000000000000000000000000000000000000081526004018080602001828103825260148152602001807f466f72206d61737465722075736573206f6e6c7900000000000000000000000081525060200191505060405180910390fd5b6001600060016101000a81548160ff021916908315150217905550600090505b600854811015610b405782600d6000838152602001908152602001600020600101541115610b3357600d60008281526020019081526020016000206001015492508091505b8080600101915050610aee565b600d600083815260200190815260200160002060000160029080546001816001161561010002031660029004610b77929190611580565b507f2f8afdcf307095d6035a455bde5c5a37f187558b91bb7cbcc595cfbfd09584626001600260045460405180806020018060200180602001858152602001848103845260198152602001807f43726561746f722066696e697368656420746865207175697a00000000000000815250602001848103835287818154600181600116156101000203166002900481526020019150805460018160011615610100020316600290048015610c6b5780601f10610c4057610100808354040283529160200191610c6b565b820191906000526020600020905b815481529060010190602001808311610c4e57829003601f168201915b5050848103825286818154600181600116156101000203166002900481526020019150805460018160011615610100020316600290048015610cee5780601f10610cc357610100808354040283529160200191610cee565b820191906000526020600020905b815481529060010190602001808311610cd157829003601f168201915b5050965050505050505060405180910390a1610d0861122c565b50505050565b600981815481101515610d1d57fe5b906000526020600020016000915054906101000a900473ffffffffffffffffffffffffffffffffffffffff1681565b60003373ffffffffffffffffffffffffffffffffffffffff16600b60009054906101000a900473ffffffffffffffffffffffffffffffffffffffff1673ffffffffffffffffffffffffffffffffffffffff16141515610e13576040517f08c379a00000000000000000000000000000000000000000000000000000000081526004018080602001828103825260148152602001807f466f72206d61737465722075736573206f6e6c7900000000000000000000000081525060200191505060405180910390fd5b60045442108015610e315750600060019054906101000a900460ff16155b1515610ea5576040517f08c379a000000000000000000000000000000000000000000000000000000000815260040180806020018281038252600c8152602001807f5175697a206973206f766572000000000000000000000000000000000000000081525060200191505060405180910390fd5b826000600c60008373ffffffffffffffffffffffffffffffffffffffff1673ffffffffffffffffffffffffffffffffffffffff16815260200190815260200160002090508060000160009054906101000a900460ff16151515610f70576040517f08c379a00000000000000000000000000000000000000000000000000000000081526004018080602001828103825260108152602001807f43616e607420766f74652074776963650000000000000000000000000000000081525060200191505060405180910390fd5b8473ffffffffffffffffffffffffffffffffffffffff16600a60009054906101000a900473ffffffffffffffffffffffffffffffffffffffff1673ffffffffffffffffffffffffffffffffffffffff1614151515611036576040517f08c379a000000000000000000000000000000000000000000000000000000000815260040180806020018281038252601a8152602001807f43726561746f722063616e6074207468726f7720766f7465732100000000000081525060200191505060405180910390fd5b600d600085815260200190815260200160002060020160009054906101000a900460ff1615156110f4576040517f08c379a00000000000000000000000000000000000000000000000000000000081526004018080602001828103825260228152602001807f4f7074696f6e206d75737420626520646573637269707465642066697273746c81526020017f792100000000000000000000000000000000000000000000000000000000000081525060400191505060405180910390fd5b60098590806001815401808255809150509060018203906000526020600020016000909192909190916101000a81548173ffffffffffffffffffffffffffffffffffffffff021916908373ffffffffffffffffffffffffffffffffffffffff16021790555050600c60008673ffffffffffffffffffffffffffffffffffffffff1673ffffffffffffffffffffffffffffffffffffffff168152602001908152602001600020925060018360000160006101000a81548160ff0219169083151502179055508383600201819055506001600d6000868152602001908152602001600020600101600082825401925050819055506009805490506005548115156111f857fe5b046006819055505050505050565b600b60009054906101000a900473ffffffffffffffffffffffffffffffffffffffff1681565b6000803373ffffffffffffffffffffffffffffffffffffffff16600b60009054906101000a900473ffffffffffffffffffffffffffffffffffffffff1673ffffffffffffffffffffffffffffffffffffffff161415156112f4576040517f08c379a00000000000000000000000000000000000000000000000000000000081526004018080602001828103825260148152602001807f466f72206d61737465722075736573206f6e6c7900000000000000000000000081525060200191505060405180910390fd5b600754600654111561130a576007546006819055505b600090505b6009805490508110156113ab5760098181548110151561132b57fe5b9060005260206000200160009054906101000a900473ffffffffffffffffffffffffffffffffffffffff1673ffffffffffffffffffffffffffffffffffffffff166108fc6006549081150290604051600060405180830381858888f1935050505015801561139d573d6000803e3d6000fd5b50808060010191505061130f565b600a60009054906101000a900473ffffffffffffffffffffffffffffffffffffffff1673ffffffffffffffffffffffffffffffffffffffff166108fc606460613073ffffffffffffffffffffffffffffffffffffffff16310281151561140d57fe5b049081150290604051600060405180830381858888f19350505050158015611439573d6000803e3d6000fd5b507f84d1f6356fc6bb74f7750c308f2b73a187ba5fe5b598483a87e2cd741f00966a600654600942604051808481526020018060200183815260200182810382528481815481526020019150805480156114e857602002820191906000526020600020905b8160009054906101000a900473ffffffffffffffffffffffffffffffffffffffff1673ffffffffffffffffffffffffffffffffffffffff168152602001906001019080831161149e575b505094505050505060405180910390a1600191505090565b828054600181600116156101000203166002900490600052602060002090601f016020900481019282601f1061154157805160ff191683800117855561156f565b8280016001018555821561156f579182015b8281111561156e578251825591602001919060010190611553565b5b50905061157c9190611607565b5090565b828054600181600116156101000203166002900490600052602060002090601f016020900481019282601f106115b957805485556115f6565b828001600101855582156115f657600052602060002091601f016020900482015b828111156115f55782548255916001019190600101906115da565b5b5090506116039190611607565b5090565b61162991905b8082111561162557600081600090555060010161160d565b5090565b905600a165627a7a72305820d590fdedec388521cc99effa5924ea17f6fcb186ae47c7fc5edbff39b0b094320029",
  "source": "pragma solidity ^0.4.24;\n\ncontract Quiz_Time_Bounded {\n\n//ГЛОБАЛЬНЫЕ ПЕРЕМЕННЫЕ\nbool public EXISTS = true;\n\n\tbool public FINISHED;\t\t// Shows whether the quiz is opened/closed;\n\t\n\tstring public TITLE;\n    string public WINNING_OPTION;      //  Текст варианта, набравшего наибольшее количество голосов \n\n    uint256 public beginTime;\t//\tQuiz start time (block timestamp at the start)\n    uint256 public endTime;\t\t//\tQuiz finish time (\"beginTime\" + \"duration\" user input in the constructor)\n\n    uint256 public REWARD_FUNDS;\t\t//\tAll the funds to be splitted between participants as a reward\n    uint256 public REWARD;\t\t\t\t//\tDynamically calculated reward based on PARTICIPANTS.length\n\n    uint256 public MAX_REWARD;\t\t\t// \tМаксимальное вознаграждение за участие в опросе (устанавливается создателем опроса)\n    uint256 public NUM_OPTIONS;\n\n    address[] public PARTICIPANTS;\n\n    //\tСтруктура пользователя: голосовал ли ранее (да/нет), эл.почта, выбранный вариант ответа (номер)\n\tstruct User {\t\n\t    bool already;\n\t\tstring email;\n\t\tuint256 choice;\n\t}\n\n\t//\tСтруктура варианта ответа (опции): текстовое описание, число проголосовавших \"За\"\n\tstruct Option {\n\t\tstring text;\n\t\tuint256 totalVotes;\n\t\tbool descripted;\n\t}\n\n\t//\tАдрес создателя опроса в сети Ethereum \n\t//\t(определяется непосредственно при создании контракта опроса)\n\taddress public creator;\n\taddress public master;\n\n\t// Соответствие между адресами в сети Ethereum и Пользователями опроса\n\tmapping (address => User) users;\n\n\t//\tМассив вариантов ответа\n\tmapping (uint256 => Option) options;\n\n//ФУНКЦИОНАЛЬНАЯ ЧАСТЬ\n\n\t//\tКлассический модификатор проверки исполнителя функции:\n\t//\tСерия выплат может быть инициирована только с контракта создателя опроса\n\tmodifier isMaster() {\n\t\trequire(master == msg.sender, \"For master uses only\");\n\t\t_;\n\t}\n\n\t//\tМодификатор функции, проверяющий, проходит ли опрос до сих пор\n\tmodifier still_on() {\n\t    require(now < endTime && !FINISHED, \"Quiz is over\");\n\t    _;\n\t}\n\t\n\t//\tМодификатор проверки двойного голосования: \n\t//\tпользователь может обратиться к throwVote лишь один раз\n\tmodifier no_double_vote(address _from) {\n\t    User storage u = users[_from];\n\t    require(!u.already, \"Can`t vote twice\");\n\t    _;\n\t}\n\t\n\t//\tКонструктор контракта, создающий опрос с определенным количеством варианта\n\tconstructor\n\t(\n\t\taddress _creator,\n\t\tstring _title, \n\t\tuint256 duration, \n\t\tuint256 _maxReward\n\t) \n\tpublic\n\tpayable \n\t{\n\t    require(isContract(msg.sender));\t// NEED TO BE REFACTORED TO \"msg.sender == '0xfdeb346abef...' \"\n\t    require(msg.value > 0, \"Creator is to fullfill reward funds\");\n\t    beginTime = now;\n\t    endTime = beginTime + duration;\n\t    creator = _creator;\n\t    master = msg.sender;\n\t    TITLE = _title;\n\t    MAX_REWARD = _maxReward;\n\t    REWARD_FUNDS = msg.value / 2;\n\n\t    emit Quiz_Created(TITLE, \"Person Limited\", creator, beginTime, duration);\t\n\t}\n\t\n\t//\tФункция отправки голоса за определенный вариант (номер)\n\tfunction throwVote(address _voter, uint256 _choice) \n\tpublic\n\tisMaster\n\tstill_on\n\tno_double_vote(_voter)\n\t{\n\t\trequire(creator != _voter, \"Creator can`t throw votes!\");\n\t\trequire(options[_choice].descripted, \"Option must be descripted firstly!\");\n\n\t\tPARTICIPANTS.push(_voter);\n\n\t\tUser storage u = users[_voter];\n\t\tu.already = true;\n\t\tu.choice = _choice;\n\t    \n\t    options[_choice].totalVotes += 1;\n\n\t    REWARD = REWARD_FUNDS / PARTICIPANTS.length;\n\t}\n\n\tfunction finish() isMaster public {\n\t\tFINISHED = true;\n\n\t\tuint256 max;\n\t    uint256 winner;\n\n\t    for (uint256 i = 0; i < NUM_OPTIONS; i++) {\n\t        if (options[i].totalVotes > max) {\n\t            max = options[i].totalVotes;\n\t            winner = i;\n\t        }\n\t    }\n\n\t    WINNING_OPTION = options[winner].text;\n\n\t    emit Quiz_Finished(\"Creator finished the quiz\", TITLE, WINNING_OPTION, endTime);\n\t    payout();\n\t}\n\n\t//\tПроведение выплат участникам\n\tfunction payout() internal isMaster returns (bool success) {\n\t\t//\tЕсли размер награды превышает максимальный, выплачивается \n\t\t//\tустановленная создателем максимальная награда\n\t\tif (REWARD > MAX_REWARD)\n\t\t\tREWARD = MAX_REWARD;\n\n\t\tfor (uint256 i = 0; i < PARTICIPANTS.length; i++) {\n\t\t\tPARTICIPANTS[i].transfer(REWARD);\n\t\t}\n\t\t// Остатки средств по контракту отправляются создателю контракта\n\t\tcreator.transfer(address(this).balance * 97 / 100);\n\t\temit Payout(REWARD, PARTICIPANTS, now);\t\n\t\treturn true;\n\t}\n\t\n\t//\tВспомогательная функция описания вариантов ответов (номер -> описание)\n\t//\t(Нужна ввиду отсутствия поддержки многомерных динамических массивов в Solidity,\n\t//\tкоим и является массив строк)\n\tfunction assignDescription(uint256 _no, string memory _text) \n\tpublic \n\tisMaster \n\t{\n\t\trequire(!options[_no].descripted, \"Option is descripted already\");\n\t    options[_no].text = _text;\n\t    options[_no].descripted = true;\n\t    NUM_OPTIONS += 1;\n\t    emit Option_Assigned(TITLE, _no, _text);\n\t}\n\n\t//\tФункция проверки адреса, используемая в модификаторе \"not_contract()\":\n\t//\tЕсли объем исполняемого кода адреса больше нуля, значит отправитель - контракт (жулик)\n\tfunction isContract(address addr) private view returns (bool) {\n  \t\tuint size;\n  \t\tassembly \n  \t\t{ \n  \t\t\tsize := extcodesize(addr)\n  \t\t}\n  \t\treturn size > 0;\n\t}\n\n\tevent Quiz_Created(\n\t\tstring title, \n\t\tstring _type, \n\t\taddress creator, \n\t\tuint256 timestamp, \n\t\tuint256 duration\n\t);\n\t\n\tevent Quiz_Finished(\n\t\tstring reason, \n\t\tstring title, \n\t\tstring winningOption, \n\t\tuint256 timestamp\n\t);\n\n\tevent Option_Assigned(string title, uint256 no, string text);\n\tevent Payout(uint256 amount, address[] participants, uint256 timestamp);\n}\n",
  "sourcePath": "/home/vlatt/Desktop/work/contracts/Service Based/Quiz_Time_Bounded.sol",
  "compiler": {
    "name": "solc",
    "version": "0.4.24+commit.e67f0147.Emscripten.clang"
  },
  "schemaVersion": "3.0.1",
  "updatedAt": "2019-02-07T09:52:01.700Z",
  "devdoc": {
    "methods": {}
  },
  "userdoc": {
    "methods": {}
  }
}