{
  "contractName": "Quiz_Time_Bounded",
  "abi": [
    {
      "constant": true,
      "inputs": [
        {
          "name": "",
          "type": "uint256"
        }
      ],
      "name": "options",
      "outputs": [
        {
          "name": "text",
          "type": "string"
        },
        {
          "name": "totalVotes",
          "type": "uint256"
        }
      ],
      "payable": false,
      "stateMutability": "view",
      "type": "function"
    },
    {
      "constant": true,
      "inputs": [],
      "name": "TITLE",
      "outputs": [
        {
          "name": "",
          "type": "string"
        }
      ],
      "payable": false,
      "stateMutability": "view",
      "type": "function"
    },
    {
      "constant": true,
      "inputs": [],
      "name": "beginTime",
      "outputs": [
        {
          "name": "",
          "type": "uint256"
        }
      ],
      "payable": false,
      "stateMutability": "view",
      "type": "function"
    },
    {
      "constant": true,
      "inputs": [],
      "name": "endTIme",
      "outputs": [
        {
          "name": "",
          "type": "uint256"
        }
      ],
      "payable": false,
      "stateMutability": "view",
      "type": "function"
    },
    {
      "constant": true,
      "inputs": [],
      "name": "FINISHED",
      "outputs": [
        {
          "name": "",
          "type": "bool"
        }
      ],
      "payable": false,
      "stateMutability": "view",
      "type": "function"
    },
    {
      "inputs": [
        {
          "name": "_title",
          "type": "string"
        },
        {
          "name": "_options",
          "type": "uint256"
        },
        {
          "name": "duration",
          "type": "uint256"
        },
        {
          "name": "_maxReward",
          "type": "uint256"
        }
      ],
      "payable": true,
      "stateMutability": "payable",
      "type": "constructor"
    },
    {
      "payable": true,
      "stateMutability": "payable",
      "type": "fallback"
    },
    {
      "anonymous": false,
      "inputs": [
        {
          "indexed": false,
          "name": "_title",
          "type": "string"
        },
        {
          "indexed": false,
          "name": "_creator",
          "type": "address"
        },
        {
          "indexed": false,
          "name": "_timestamp",
          "type": "uint256"
        },
        {
          "indexed": false,
          "name": "_duration",
          "type": "uint256"
        }
      ],
      "name": "Quiz_Created",
      "type": "event"
    },
    {
      "anonymous": false,
      "inputs": [
        {
          "indexed": false,
          "name": "_quizTitle",
          "type": "string"
        },
        {
          "indexed": false,
          "name": "_no",
          "type": "uint256"
        },
        {
          "indexed": false,
          "name": "_text",
          "type": "string"
        }
      ],
      "name": "Option_Assigned",
      "type": "event"
    },
    {
      "anonymous": false,
      "inputs": [
        {
          "indexed": false,
          "name": "_quizTitle",
          "type": "string"
        },
        {
          "indexed": false,
          "name": "_amount",
          "type": "uint256"
        },
        {
          "indexed": false,
          "name": "_participants",
          "type": "address[]"
        }
      ],
      "name": "Payout",
      "type": "event"
    },
    {
      "anonymous": false,
      "inputs": [
        {
          "indexed": false,
          "name": "_title",
          "type": "string"
        },
        {
          "indexed": false,
          "name": "_winningOption",
          "type": "string"
        },
        {
          "indexed": false,
          "name": "timestamp",
          "type": "uint256"
        }
      ],
      "name": "Quiz_Finished",
      "type": "event"
    },
    {
      "constant": false,
      "inputs": [
        {
          "name": "_choice",
          "type": "uint256"
        }
      ],
      "name": "throwVote",
      "outputs": [],
      "payable": true,
      "stateMutability": "payable",
      "type": "function"
    },
    {
      "constant": false,
      "inputs": [],
      "name": "finish",
      "outputs": [],
      "payable": false,
      "stateMutability": "nonpayable",
      "type": "function"
    },
    {
      "constant": false,
      "inputs": [
        {
          "name": "_no",
          "type": "uint256"
        },
        {
          "name": "_text",
          "type": "string"
        }
      ],
      "name": "assignDescription",
      "outputs": [],
      "payable": false,
      "stateMutability": "nonpayable",
      "type": "function"
    }
  ],
  "bytecode": "0x6080604052604051620015a1380380620015a18339810180604052810190808051820192919060200180519060200190929190805190602001909291908051906020019092919050505060006200006533620002b1640100000000026401000000009004565b1515156200007257600080fd5b42600281905550826002540160038190555033600b60006101000a81548173ffffffffffffffffffffffffffffffffffffffff021916908373ffffffffffffffffffffffffffffffffffffffff1602179055508460019080519060200190620000dd929190620002c4565b5081600881905550600090505b838110156200018057600d6040805190810160405280602060405190810160405280600081525081526020016000815250908060018154018082558091505090600182039060005260206000209060020201600090919290919091506000820151816000019080519060200190620001649291906200034b565b50602082015181600101555050508080600101915050620000ea565b7fba1fe36d8fdb0063e10d2b9cc193ddcd74e554671b1883d8664aaccdcc7d121a6001600b60009054906101000a900473ffffffffffffffffffffffffffffffffffffffff166002548660405180806020018573ffffffffffffffffffffffffffffffffffffffff1673ffffffffffffffffffffffffffffffffffffffff168152602001848152602001838152602001828103825286818154600181600116156101000203166002900481526020019150805460018160011615610100020316600290048015620002955780601f10620002695761010080835404028352916020019162000295565b820191906000526020600020905b8154815290600101906020018083116200027757829003601f168201915b50509550505050505060405180910390a15050505050620003fa565b600080823b905060008111915050919050565b828054600181600116156101000203166002900490600052602060002090601f016020900481019282601f106200030757805160ff191683800117855562000338565b8280016001018555821562000338579182015b82811115620003375782518255916020019190600101906200031a565b5b509050620003479190620003d2565b5090565b828054600181600116156101000203166002900490600052602060002090601f016020900481019282601f106200038e57805160ff1916838001178555620003bf565b82800160010185558215620003bf579182015b82811115620003be578251825591602001919060010190620003a1565b5b509050620003ce9190620003d2565b5090565b620003f791905b80821115620003f3576000816000905550600101620003d9565b5090565b90565b611197806200040a6000396000f30060806040526004361061008e576000357c0100000000000000000000000000000000000000000000000000000000900463ffffffff168063409e2205146101465780637ef83804146101f357806388149fb91461028357806391175d12146102ae578063a97cb7c7146102d9578063b54e5e8f146102f9578063ca91a77414610328578063d56b28891461039b575b60003411151561012c576040517f08c379a00000000000000000000000000000000000000000000000000000000081526004018080602001828103825260218152602001807f4465706f736974206d7573742062652067726561746572207468616e207a657281526020017f6f0000000000000000000000000000000000000000000000000000000000000081525060400191505060405180910390fd5b60023481151561013857fe5b046004819055600681905550005b34801561015257600080fd5b50610171600480360381019080803590602001909291905050506103b2565b6040518080602001838152602001828103825284818151815260200191508051906020019080838360005b838110156101b757808201518184015260208101905061019c565b50505050905090810190601f1680156101e45780820380516001836020036101000a031916815260200191505b50935050505060405180910390f35b3480156101ff57600080fd5b5061020861047d565b6040518080602001828103825283818151815260200191508051906020019080838360005b8381101561024857808201518184015260208101905061022d565b50505050905090810190601f1680156102755780820380516001836020036101000a031916815260200191505b509250505060405180910390f35b34801561028f57600080fd5b5061029861051b565b6040518082815260200191505060405180910390f35b3480156102ba57600080fd5b506102c3610521565b6040518082815260200191505060405180910390f35b6102f760048036038101908080359060200190929190505050610527565b005b34801561030557600080fd5b5061030e610879565b604051808215151515815260200191505060405180910390f35b34801561033457600080fd5b5061039960048036038101908080359060200190929190803590602001908201803590602001908080601f016020809104026020016040519081016040528093929190818152602001838380828437820191505050505050919291929050505061088b565b005b3480156103a757600080fd5b506103b06109f3565b005b600d818154811015156103c157fe5b9060005260206000209060020201600091509050806000018054600181600116156101000203166002900480601f01602080910402602001604051908101604052809291908181526020018280546001816001161561010002031660029004801561046d5780601f106104425761010080835404028352916020019161046d565b820191906000526020600020905b81548152906001019060200180831161045057829003601f168201915b5050505050908060010154905082565b60018054600181600116156101000203166002900480601f0160208091040260200160405190810160405280929190818152602001828054600181600116156101000203166002900480156105135780601f106104e857610100808354040283529160200191610513565b820191906000526020600020905b8154815290600101906020018083116104f657829003601f168201915b505050505081565b60025481565b60035481565b600061053233610e25565b1515156105a7576040517f08c379a000000000000000000000000000000000000000000000000000000000815260040180806020018281038252601b8152602001807f436f6e747261637420696e6a656374696f6e206465746563746564000000000081525060200191505060405180910390fd5b600354421080156105c457506000809054906101000a900460ff16155b1515610638576040517f08c379a000000000000000000000000000000000000000000000000000000000815260040180806020018281038252600c8152602001807f5175697a206973206f766572000000000000000000000000000000000000000081525060200191505060405180910390fd5b6000600c60003373ffffffffffffffffffffffffffffffffffffffff1673ffffffffffffffffffffffffffffffffffffffff16815260200190815260200160002090508060000160009054906101000a900460ff16151515610702576040517f08c379a00000000000000000000000000000000000000000000000000000000081526004018080602001828103825260108152602001807f43616e607420766f74652074776963650000000000000000000000000000000081525060200191505060405180910390fd5b3373ffffffffffffffffffffffffffffffffffffffff16600b60009054906101000a900473ffffffffffffffffffffffffffffffffffffffff1673ffffffffffffffffffffffffffffffffffffffff161415151561075f57600080fd5b600c60003373ffffffffffffffffffffffffffffffffffffffff1673ffffffffffffffffffffffffffffffffffffffff1681526020019081526020016000209150600a3390806001815401808255809150509060018203906000526020600020016000909192909190916101000a81548173ffffffffffffffffffffffffffffffffffffffff021916908373ffffffffffffffffffffffffffffffffffffffff16021790555050600a8054905060045481151561081857fe5b0460058190555060018260000160006101000a81548160ff0219169083151502179055506001600d8481548110151561084d57fe5b906000526020600020906002020160010160008282540192505081905550828260020181905550505050565b6000809054906101000a900460ff1681565b80600d8381548110151561089b57fe5b906000526020600020906002020160000190805190602001906108bf92919061103f565b507fa4bd90ecd8eca719a5867b5682b448ca871a8a961509aee119fd17f01e8d7801600183836040518080602001848152602001806020018381038352868181546001816001161561010002031660029004815260200191508054600181600116156101000203166002900480156109785780601f1061094d57610100808354040283529160200191610978565b820191906000526020600020905b81548152906001019060200180831161095b57829003601f168201915b5050838103825284818151815260200191508051906020019080838360005b838110156109b2578082015181840152602081019050610997565b50505050905090810190601f1680156109df5780820380516001836020036101000a031916815260200191505b509550505050505060405180910390a15050565b60008060003373ffffffffffffffffffffffffffffffffffffffff16600b60009054906101000a900473ffffffffffffffffffffffffffffffffffffffff1673ffffffffffffffffffffffffffffffffffffffff16141515610abd576040517f08c379a00000000000000000000000000000000000000000000000000000000081526004018080602001828103825260158152602001807f466f722063726561746f722075736573206f6e6c79000000000000000000000081525060200191505060405180910390fd5b60016000806101000a81548160ff021916908315150217905550600090505b600d80549050811015610b455782600d82815481101515610af957fe5b9060005260206000209060020201600101541115610b3857600d81815481101515610b2057fe5b90600052602060002090600202016001015492508091505b8080600101915050610adc565b600d82815481101515610b5457fe5b906000526020600020906002020160000160099080546001816001161561010002031660029004610b869291906110bf565b50610b8f610e38565b507f199da8d221e10d3a248929c1e24b33b5d12dd5d2f7fe417a0e6d2aa70e82844860016009600354604051808060200180602001848152602001838103835286818154600181600116156101000203166002900481526020019150805460018160011615610100020316600290048015610c4b5780601f10610c2057610100808354040283529160200191610c4b565b820191906000526020600020905b815481529060010190602001808311610c2e57829003601f168201915b5050838103825285818154600181600116156101000203166002900481526020019150805460018160011615610100020316600290048015610cce5780601f10610ca357610100808354040283529160200191610cce565b820191906000526020600020905b815481529060010190602001808311610cb157829003601f168201915b50509550505050505060405180910390a17f4cb7bf350a870d26c8c87ac21ac979ce443204d51755ee1cdfff3deec0d9e5a66001600554600a604051808060200184815260200180602001838103835286818154600181600116156101000203166002900481526020019150805460018160011615610100020316600290048015610d9a5780601f10610d6f57610100808354040283529160200191610d9a565b820191906000526020600020905b815481529060010190602001808311610d7d57829003601f168201915b50508381038252848181548152602001915080548015610e0f57602002820191906000526020600020905b8160009054906101000a900473ffffffffffffffffffffffffffffffffffffffff1673ffffffffffffffffffffffffffffffffffffffff1681526020019060010190808311610dc5575b50509550505050505060405180910390a1505050565b600080823b905060008111915050919050565b6000803373ffffffffffffffffffffffffffffffffffffffff16600b60009054906101000a900473ffffffffffffffffffffffffffffffffffffffff1673ffffffffffffffffffffffffffffffffffffffff16141515610f00576040517f08c379a00000000000000000000000000000000000000000000000000000000081526004018080602001828103825260158152602001807f466f722063726561746f722075736573206f6e6c79000000000000000000000081525060200191505060405180910390fd5b6008546005541115610f16576008546005819055505b600090505b600a80549050811015610fb757600a81815481101515610f3757fe5b9060005260206000200160009054906101000a900473ffffffffffffffffffffffffffffffffffffffff1673ffffffffffffffffffffffffffffffffffffffff166108fc6005549081150290604051600060405180830381858888f19350505050158015610fa9573d6000803e3d6000fd5b508080600101915050610f1b565b600b60009054906101000a900473ffffffffffffffffffffffffffffffffffffffff1673ffffffffffffffffffffffffffffffffffffffff166108fc3073ffffffffffffffffffffffffffffffffffffffff16319081150290604051600060405180830381858888f19350505050158015611036573d6000803e3d6000fd5b50600191505090565b828054600181600116156101000203166002900490600052602060002090601f016020900481019282601f1061108057805160ff19168380011785556110ae565b828001600101855582156110ae579182015b828111156110ad578251825591602001919060010190611092565b5b5090506110bb9190611146565b5090565b828054600181600116156101000203166002900490600052602060002090601f016020900481019282601f106110f85780548555611135565b8280016001018555821561113557600052602060002091601f016020900482015b82811115611134578254825591600101919060010190611119565b5b5090506111429190611146565b5090565b61116891905b8082111561116457600081600090555060010161114c565b5090565b905600a165627a7a72305820437bce762a78c92067a2f62cce4ec1c61c306d78d4eec579693f29321a16651b0029",
  "source": "pragma solidity ^0.4.24;\r\n\r\ncontract Quiz_Time_Bounded {\r\n\r\n//ГЛОБАЛЬНЫЕ ПЕРЕМЕННЫЕ\r\n\r\n\tbool public FINISHED;\t\t// Shows whether the quiz is opened/closed;\r\n\t\r\n\tstring public TITLE; \r\n\r\n    uint256 public beginTime;\t//\tQuiz start time (block timestamp at the start)\r\n    uint256 public endTIme;\t\t//\tQuiz finish time (\"beginTime\" + \"duration\" user input in the constructor)\r\n\r\n    uint256 REWARD_FUNDS;\t\t//\tAll the funds to be splitted between participants as a reward\r\n    uint256 REWARD;\t\t\t\t//\tDynamically calculated reward based on PARTICIPANTS.length\r\n\r\n    uint256 TX_FUNDS; \t\t\t//\tTransaction fee payments funds (50% of this.balance at most)\r\n    \t\t\t\t\t\t\t//\t(If not empty by the quiz finish moment, the funds return to the creator)\r\n\r\n    uint256 TX_SPENT;\t\t\t//\tOverall amount spent on transactions\r\n\r\n    uint256 MAX_REWARD;\t\t\t// \tМаксимальное вознаграждение за участие в опросе (устанавливается создателем опроса)\r\n    string WINNING_OPTION;      //  Текст варианта, набравшего наибольшее количество голосов\r\n\r\n    address[] PARTICIPANTS;\r\n\r\n    //\tСтруктура пользователя: голосовал ли ранее (да/нет), эл.почта, выбранный вариант ответа (номер)\r\n\tstruct User {\t\r\n\t    bool already;\r\n\t\tstring email;\r\n\t\tuint256 choice;\r\n\t}\r\n\r\n\t//\tСтруктура варианта ответа (опции): текстовое описание, число проголосовавших \"За\"\r\n\tstruct Option {\r\n\t\tstring text;\r\n\t\tuint256 totalVotes;\r\n\t}\r\n\r\n\t//\tАдрес создателя опроса в сети Ethereum \r\n\t//\t(определяется непосредственно при создании контракта опроса)\r\n\taddress creator;\r\n\r\n\t// Соответствие между адресами в сети Ethereum и Пользователями опроса\r\n\tmapping (address => User) users;\r\n\r\n\t//\tМассив вариантов ответа\r\n\tOption[] public options;\r\n\r\n//ФУНКЦИОНАЛЬНАЯ ЧАСТЬ\r\n\r\n\t//\tКлассический модификатор проверки исполнителя функции:\r\n\t//\tСерия выплат может быть инициирована только с контракта создателя опроса\r\n\tmodifier isCreator() {\r\n\t\trequire(creator == msg.sender, \"For creator uses only\");\r\n\t\t_;\r\n\t}\r\n\r\n\t//\tМодификатор функции, проверяющий, проходит ли опрос до сих пор\r\n\tmodifier still_on() {\r\n\t    require(now < endTIme && !FINISHED, \"Quiz is over\");\r\n\t    _;\r\n\t}\r\n\t\r\n\t//\tМодификатор проверки двойного голосования: \r\n\t//\tпользователь может обратиться к throwVote лишь один раз\r\n\tmodifier no_double_vote() {\r\n\t    User storage u = users[msg.sender];\r\n\t    require(!u.already, \"Can`t vote twice\");\r\n\t    _;\r\n\t}\r\n\r\n\tmodifier has_value() {\r\n\t\trequire(msg.value > 0);\r\n\t\t_;\r\n\t}\r\n\r\n\t//\tМодификатор проверки адреса на наличие исполняемого кода:\r\n\t//\tНельзя допустить попадания в список участников АККАУНТОВ-КОНТРАКТОВ,\r\n\t//\tпоскольку именно при помощи последних могут быть произведены попытки взлома\r\n\tmodifier not_contract() {\r\n\t\trequire(!isContract(msg.sender), \"Contract injection detected\");\r\n\t\t_;\r\n\t}\r\n\t\r\n\t//\tКонструктор контракта, создающий опрос с определенным количеством варианта\r\n\tconstructor(\r\n\t\tstring _title, \r\n\t\tuint256 _options\t,\r\n\t\tuint256 duration, \r\n\t\tuint256 _maxReward\r\n\t\t) \r\n\tpublic\r\n\tpayable \r\n\t{\r\n\t    require(!isContract(msg.sender));\r\n\t    beginTime = now;\r\n\t    endTIme = beginTime + duration;\r\n\t    creator = msg.sender;\r\n\t    TITLE = _title;\r\n\t    MAX_REWARD = _maxReward;\r\n\r\n\t    for (uint256 i = 0; i < _options; i++) {\r\n\t        options.push(Option({\r\n\t            text: '',\r\n\t            totalVotes: 0\r\n\t        }));\r\n\t    }\r\n\r\n\t    emit Quiz_Created(TITLE, creator, beginTime, duration);\t\r\n\t}\r\n\t\r\n\t//\tFallback-функция, отвечающая за прием средств контракта\r\n\tfunction() public payable {\r\n        require(msg.value > 0, \"Deposit must be greater than zero\");\r\n        TX_FUNDS = REWARD_FUNDS = msg.value / 2;\r\n\t}\r\n\t\r\n\t//\tФункция отправки голоса за определенный вариант (номер)\r\n\tfunction throwVote(uint256 _choice) \r\n\tpublic\r\n\tpayable\r\n\tnot_contract\r\n\tstill_on\r\n\tno_double_vote\r\n\t{\r\n\t\trequire(creator != msg.sender);\r\n\t\tUser storage u = users[msg.sender];\r\n\t\tPARTICIPANTS.push(msg.sender);\r\n\t\tREWARD = REWARD_FUNDS / PARTICIPANTS.length;\r\n\t    u.already = true;\r\n\t    options[_choice].totalVotes += 1;\r\n\t    u.choice = _choice;\r\n\t}\r\n\t\r\n\t//\tФункция определения варианта-победителя \r\n\t//\t(к распределению средств отношения не имеет, нужна только заказчику опроса)\r\n\tfunction returnWinner() internal view returns(string memory) {\r\n\t    uint256 max;\r\n\t    uint256 winner;\r\n\t    for (uint256 i = 0; i < options.length; i++) {\r\n\t        if (options[i].totalVotes > max) {\r\n\t            max = options[i].totalVotes;\r\n\t            winner = i;\r\n\t        }\r\n\t    }\r\n\t    return options[winner].text;\r\n\t}\r\n\r\n\tfunction finish() isCreator public {\r\n\t\tFINISHED = true;\r\n\t\tuint256 max;\r\n\t    uint256 winner;\r\n\t    for (uint256 i = 0; i < options.length; i++) {\r\n\t        if (options[i].totalVotes > max) {\r\n\t            max = options[i].totalVotes;\r\n\t            winner = i;\r\n\t        }\r\n\t    }\r\n\t    WINNING_OPTION = options[winner].text;\r\n\t\tpayout();\r\n\t\temit Quiz_Finished(TITLE, WINNING_OPTION, endTIme);\r\n\t\temit Payout(TITLE, REWARD, PARTICIPANTS);\r\n\t}\r\n\r\n\t//\tПроведение выплат участникам\r\n\tfunction payout() internal isCreator returns (bool success) {\r\n\t\t//\tЕсли размер награды превышает максимальный, выплачивается \r\n\t\t//\tустановленная создателем максимальная награда\r\n\t\tif (REWARD > MAX_REWARD)\r\n\t\t\tREWARD = MAX_REWARD;\r\n\r\n\t\tfor (uint256 i = 0; i < PARTICIPANTS.length; i++) {\r\n\t\t\tPARTICIPANTS[i].transfer(REWARD);\r\n\t\t}\r\n\t\t// Остатки средств по контракту отправляются создателю контракта\r\n\t\tcreator.transfer(address(this).balance);\r\n\t\t\r\n\t\treturn true;\r\n\t}\r\n\t\r\n\t//\tВспомогательная функция описания вариантов ответов (номер -> описание)\r\n\t//\t(Нужна ввиду отсутствия поддержки многомерных динамических массивов в Solidity,\r\n\t//\tкоим и является массив строк)\r\n\tfunction assignDescription(uint256 _no, string memory _text) public {\r\n\t    options[_no].text = _text;\r\n\t    emit Option_Assigned(TITLE, _no, _text);\r\n\t}\r\n\r\n\t//\tФункция проверки адреса, используемая в модификаторе \"not_contract()\":\r\n\t//\tЕсли объем исполняемого кода адреса больше нуля, значит отправитель - контракт (жулик)\r\n\tfunction isContract(address addr) private view returns (bool) {\r\n  \t\tuint size;\r\n  \t\tassembly \r\n  \t\t{ \r\n  \t\t\tsize := extcodesize(addr)\r\n  \t\t}\r\n  \t\treturn size > 0;\r\n\t}\r\n\r\n\tevent Quiz_Created(string _title, address _creator, uint256 _timestamp, uint256 _duration);\r\n\tevent Option_Assigned(string _quizTitle, uint256 _no, string _text);\r\n\tevent Payout(string _quizTitle, uint256 _amount, address[] _participants);\r\n\tevent Quiz_Finished(string _title, string _winningOption, uint256 timestamp);\r\n}\r\n",
  "sourcePath": "C:/Users/Vlt/Desktop/dev/work/contracts/Quiz_Time_Bounded.sol",
  "compiler": {
    "name": "solc",
    "version": "0.4.24+commit.e67f0147.Emscripten.clang"
  },
  "schemaVersion": "3.0.1",
  "updatedAt": "2019-02-03T14:51:10.498Z",
  "devdoc": {
    "methods": {}
  },
  "userdoc": {
    "methods": {}
  }
}