{
  "contractName": "Quiz_Person_Limited",
  "abi": [
    {
      "constant": true,
      "inputs": [],
      "name": "creator",
      "outputs": [
        {
          "name": "",
          "type": "address"
        }
      ],
      "payable": false,
      "stateMutability": "view",
      "type": "function"
    },
    {
      "constant": true,
      "inputs": [
        {
          "name": "",
          "type": "uint256"
        }
      ],
      "name": "options",
      "outputs": [
        {
          "name": "text",
          "type": "string"
        },
        {
          "name": "totalVotes",
          "type": "uint256"
        },
        {
          "name": "descripted",
          "type": "bool"
        }
      ],
      "payable": false,
      "stateMutability": "view",
      "type": "function"
    },
    {
      "constant": true,
      "inputs": [],
      "name": "TITLE",
      "outputs": [
        {
          "name": "",
          "type": "string"
        }
      ],
      "payable": false,
      "stateMutability": "view",
      "type": "function"
    },
    {
      "constant": true,
      "inputs": [],
      "name": "beginTime",
      "outputs": [
        {
          "name": "",
          "type": "uint256"
        }
      ],
      "payable": false,
      "stateMutability": "view",
      "type": "function"
    },
    {
      "constant": true,
      "inputs": [],
      "name": "WINNING_OPTION",
      "outputs": [
        {
          "name": "",
          "type": "string"
        }
      ],
      "payable": false,
      "stateMutability": "view",
      "type": "function"
    },
    {
      "constant": true,
      "inputs": [],
      "name": "FINISHED",
      "outputs": [
        {
          "name": "",
          "type": "bool"
        }
      ],
      "payable": false,
      "stateMutability": "view",
      "type": "function"
    },
    {
      "constant": true,
      "inputs": [],
      "name": "REWARD",
      "outputs": [
        {
          "name": "",
          "type": "uint256"
        }
      ],
      "payable": false,
      "stateMutability": "view",
      "type": "function"
    },
    {
      "constant": true,
      "inputs": [
        {
          "name": "",
          "type": "uint256"
        }
      ],
      "name": "PARTICIPANTS",
      "outputs": [
        {
          "name": "",
          "type": "address"
        }
      ],
      "payable": false,
      "stateMutability": "view",
      "type": "function"
    },
    {
      "constant": true,
      "inputs": [],
      "name": "MAX_USERS",
      "outputs": [
        {
          "name": "",
          "type": "uint256"
        }
      ],
      "payable": false,
      "stateMutability": "view",
      "type": "function"
    },
    {
      "inputs": [
        {
          "name": "_title",
          "type": "string"
        },
        {
          "name": "_options",
          "type": "uint256"
        },
        {
          "name": "_maxUsers",
          "type": "uint256"
        },
        {
          "name": "_reward",
          "type": "uint256"
        }
      ],
      "payable": true,
      "stateMutability": "payable",
      "type": "constructor"
    },
    {
      "payable": true,
      "stateMutability": "payable",
      "type": "fallback"
    },
    {
      "anonymous": false,
      "inputs": [
        {
          "indexed": false,
          "name": "_title",
          "type": "string"
        },
        {
          "indexed": false,
          "name": "_creator",
          "type": "address"
        },
        {
          "indexed": false,
          "name": "_timestamp",
          "type": "uint256"
        },
        {
          "indexed": false,
          "name": "_duration",
          "type": "uint256"
        }
      ],
      "name": "Quiz_Created",
      "type": "event"
    },
    {
      "anonymous": false,
      "inputs": [
        {
          "indexed": false,
          "name": "_quizTitle",
          "type": "string"
        },
        {
          "indexed": false,
          "name": "_no",
          "type": "uint256"
        },
        {
          "indexed": false,
          "name": "_text",
          "type": "string"
        }
      ],
      "name": "Option_Assigned",
      "type": "event"
    },
    {
      "anonymous": false,
      "inputs": [
        {
          "indexed": false,
          "name": "_quizTitle",
          "type": "string"
        },
        {
          "indexed": false,
          "name": "_amount",
          "type": "uint256"
        },
        {
          "indexed": false,
          "name": "_participants",
          "type": "address[]"
        }
      ],
      "name": "Payout",
      "type": "event"
    },
    {
      "anonymous": false,
      "inputs": [
        {
          "indexed": false,
          "name": "_title",
          "type": "string"
        },
        {
          "indexed": false,
          "name": "_winningOption",
          "type": "string"
        },
        {
          "indexed": false,
          "name": "timestamp",
          "type": "uint256"
        }
      ],
      "name": "Quiz_Finished",
      "type": "event"
    },
    {
      "constant": false,
      "inputs": [
        {
          "name": "_choice",
          "type": "uint256"
        }
      ],
      "name": "throwVote",
      "outputs": [],
      "payable": true,
      "stateMutability": "payable",
      "type": "function"
    },
    {
      "constant": false,
      "inputs": [],
      "name": "finish",
      "outputs": [],
      "payable": false,
      "stateMutability": "nonpayable",
      "type": "function"
    },
    {
      "constant": false,
      "inputs": [
        {
          "name": "_no",
          "type": "uint256"
        },
        {
          "name": "_text",
          "type": "string"
        }
      ],
      "name": "assignDescription",
      "outputs": [],
      "payable": false,
      "stateMutability": "nonpayable",
      "type": "function"
    }
  ],
  "bytecode": "0x60806040526040516200190e3803806200190e8339810180604052810190808051820192919060200180519060200190929190805190602001909291908051906020019092919050505060006200006533620002d9640100000000026401000000009004565b1515156200007257600080fd5b4260028190555033600760006101000a81548173ffffffffffffffffffffffffffffffffffffffff021916908373ffffffffffffffffffffffffffffffffffffffff1602179055508460019080519060200190620000d2929190620002ec565b508160038190555082600481905550600090505b83811015620001a65760096060604051908101604052806020604051908101604052806000815250815260200160008152602001600015158152509080600181540180825580915050906001820390600052602060002090600302016000909192909190915060008201518160000190805190602001906200016a92919062000373565b506020820151816001015560408201518160020160006101000a81548160ff0219169083151502179055505050508080600101915050620000e6565b7fba1fe36d8fdb0063e10d2b9cc193ddcd74e554671b1883d8664aaccdcc7d121a6001600760009054906101000a900473ffffffffffffffffffffffffffffffffffffffff1660025460045460405180806020018573ffffffffffffffffffffffffffffffffffffffff1673ffffffffffffffffffffffffffffffffffffffff168152602001848152602001838152602001828103825286818154600181600116156101000203166002900481526020019150805460018160011615610100020316600290048015620002bd5780601f106200029157610100808354040283529160200191620002bd565b820191906000526020600020905b8154815290600101906020018083116200029f57829003601f168201915b50509550505050505060405180910390a1505050505062000422565b600080823b905060008111915050919050565b828054600181600116156101000203166002900490600052602060002090601f016020900481019282601f106200032f57805160ff191683800117855562000360565b8280016001018555821562000360579182015b828111156200035f57825182559160200191906001019062000342565b5b5090506200036f9190620003fa565b5090565b828054600181600116156101000203166002900490600052602060002090601f016020900481019282601f10620003b657805160ff1916838001178555620003e7565b82800160010185558215620003e7579182015b82811115620003e6578251825591602001919060010190620003c9565b5b509050620003f69190620003fa565b5090565b6200041f91905b808211156200041b57600081600090555060010162000401565b5090565b90565b6114dc80620004326000396000f3006080604052600436106100ba576000357c0100000000000000000000000000000000000000000000000000000000900463ffffffff16806302d05d3f1461021f578063409e2205146102765780637ef838041461032e57806388149fb9146103be5780639f68989c146103e9578063a97cb7c714610479578063b54e5e8f14610499578063ca91a774146104c8578063cab34c081461053b578063d56b288914610566578063d882d58d1461057d578063fa6ac131146105ea575b3373ffffffffffffffffffffffffffffffffffffffff16600760009054906101000a900473ffffffffffffffffffffffffffffffffffffffff1673ffffffffffffffffffffffffffffffffffffffff1614151561017f576040517f08c379a00000000000000000000000000000000000000000000000000000000081526004018080602001828103825260158152602001807f466f722063726561746f722075736573206f6e6c79000000000000000000000081525060200191505060405180910390fd5b60003411151561021d576040517f08c379a00000000000000000000000000000000000000000000000000000000081526004018080602001828103825260218152602001807f4465706f736974206d7573742062652067726561746572207468616e207a657281526020017f6f0000000000000000000000000000000000000000000000000000000000000081525060400191505060405180910390fd5b005b34801561022b57600080fd5b50610234610615565b604051808273ffffffffffffffffffffffffffffffffffffffff1673ffffffffffffffffffffffffffffffffffffffff16815260200191505060405180910390f35b34801561028257600080fd5b506102a16004803603810190808035906020019092919050505061063b565b604051808060200184815260200183151515158152602001828103825285818151815260200191508051906020019080838360005b838110156102f15780820151818401526020810190506102d6565b50505050905090810190601f16801561031e5780820380516001836020036101000a031916815260200191505b5094505050505060405180910390f35b34801561033a57600080fd5b50610343610719565b6040518080602001828103825283818151815260200191508051906020019080838360005b83811015610383578082015181840152602081019050610368565b50505050905090810190601f1680156103b05780820380516001836020036101000a031916815260200191505b509250505060405180910390f35b3480156103ca57600080fd5b506103d36107b7565b6040518082815260200191505060405180910390f35b3480156103f557600080fd5b506103fe6107bd565b6040518080602001828103825283818151815260200191508051906020019080838360005b8381101561043e578082015181840152602081019050610423565b50505050905090810190601f16801561046b5780820380516001836020036101000a031916815260200191505b509250505060405180910390f35b6104976004803603810190808035906020019092919050505061085b565b005b3480156104a557600080fd5b506104ae610dc9565b604051808215151515815260200191505060405180910390f35b3480156104d457600080fd5b5061053960048036038101908080359060200190929190803590602001908201803590602001908080601f0160208091040260200160405190810160405280939291908181526020018383808284378201915050505050509192919290505050610ddb565b005b34801561054757600080fd5b50610550611041565b6040518082815260200191505060405180910390f35b34801561057257600080fd5b5061057b611047565b005b34801561058957600080fd5b506105a86004803603810190808035906020019092919050505061132d565b604051808273ffffffffffffffffffffffffffffffffffffffff1673ffffffffffffffffffffffffffffffffffffffff16815260200191505060405180910390f35b3480156105f657600080fd5b506105ff61136b565b6040518082815260200191505060405180910390f35b600760009054906101000a900473ffffffffffffffffffffffffffffffffffffffff1681565b60098181548110151561064a57fe5b9060005260206000209060030201600091509050806000018054600181600116156101000203166002900480601f0160208091040260200160405190810160405280929190818152602001828054600181600116156101000203166002900480156106f65780601f106106cb576101008083540402835291602001916106f6565b820191906000526020600020905b8154815290600101906020018083116106d957829003601f168201915b5050505050908060010154908060020160009054906101000a900460ff16905083565b60018054600181600116156101000203166002900480601f0160208091040260200160405190810160405280929190818152602001828054600181600116156101000203166002900480156107af5780601f10610784576101008083540402835291602001916107af565b820191906000526020600020905b81548152906001019060200180831161079257829003601f168201915b505050505081565b60025481565b60058054600181600116156101000203166002900480601f0160208091040260200160405190810160405280929190818152602001828054600181600116156101000203166002900480156108535780601f1061082857610100808354040283529160200191610853565b820191906000526020600020905b81548152906001019060200180831161083657829003601f168201915b505050505081565b600061086633611371565b1515156108db576040517f08c379a000000000000000000000000000000000000000000000000000000000815260040180806020018281038252601b8152602001807f436f6e747261637420696e6a656374696f6e206465746563746564000000000081525060200191505060405180910390fd5b6003543073ffffffffffffffffffffffffffffffffffffffff163111801561090f57506000809054906101000a900460ff16155b1515610983576040517f08c379a000000000000000000000000000000000000000000000000000000000815260040180806020018281038252600c8152602001807f5175697a206973206f766572000000000000000000000000000000000000000081525060200191505060405180910390fd5b6000600860003373ffffffffffffffffffffffffffffffffffffffff1673ffffffffffffffffffffffffffffffffffffffff16815260200190815260200160002090508060000160009054906101000a900460ff16151515610a4d576040517f08c379a00000000000000000000000000000000000000000000000000000000081526004018080602001828103825260108152602001807f43616e607420766f74652074776963650000000000000000000000000000000081525060200191505060405180910390fd5b60003073ffffffffffffffffffffffffffffffffffffffff1631111515610a7357600080fd5b3373ffffffffffffffffffffffffffffffffffffffff16600760009054906101000a900473ffffffffffffffffffffffffffffffffffffffff1673ffffffffffffffffffffffffffffffffffffffff1614151515610b39576040517f08c379a000000000000000000000000000000000000000000000000000000000815260040180806020018281038252601a8152602001807f43726561746f722063616e6074207468726f7720766f7465732100000000000081525060200191505060405180910390fd5b600454600680549050101515610bb7576040517f08c379a00000000000000000000000000000000000000000000000000000000081526004018080602001828103825260198152602001807f4d6178696d756d2075736572732063617020726561636865640000000000000081525060200191505060405180910390fd5b600983815481101515610bc657fe5b906000526020600020906003020160020160009054906101000a900460ff161515610c7f576040517f08c379a00000000000000000000000000000000000000000000000000000000081526004018080602001828103825260218152602001807f4f7074696f6e206d75737420626520646573637269707465642066697273747981526020017f210000000000000000000000000000000000000000000000000000000000000081525060400191505060405180910390fd5b600860003373ffffffffffffffffffffffffffffffffffffffff1673ffffffffffffffffffffffffffffffffffffffff168152602001908152602001600020915060063390806001815401808255809150509060018203906000526020600020016000909192909190916101000a81548173ffffffffffffffffffffffffffffffffffffffff021916908373ffffffffffffffffffffffffffffffffffffffff1602179055505060018260000160006101000a81548160ff0219169083151502179055506001600984815481101515610d5457fe5b9060005260206000209060030201600101600082825401925050819055508282600201819055503373ffffffffffffffffffffffffffffffffffffffff166108fc6003549081150290604051600060405180830381858888f19350505050158015610dc3573d6000803e3d6000fd5b50505050565b6000809054906101000a900460ff1681565b3373ffffffffffffffffffffffffffffffffffffffff16600760009054906101000a900473ffffffffffffffffffffffffffffffffffffffff1673ffffffffffffffffffffffffffffffffffffffff16141515610ea0576040517f08c379a00000000000000000000000000000000000000000000000000000000081526004018080602001828103825260158152602001807f466f722063726561746f722075736573206f6e6c79000000000000000000000081525060200191505060405180910390fd5b80600983815481101515610eb057fe5b90600052602060002090600302016000019080519060200190610ed4929190611384565b506001600983815481101515610ee657fe5b906000526020600020906003020160020160006101000a81548160ff0219169083151502179055507fa4bd90ecd8eca719a5867b5682b448ca871a8a961509aee119fd17f01e8d780160018383604051808060200184815260200180602001838103835286818154600181600116156101000203166002900481526020019150805460018160011615610100020316600290048015610fc65780601f10610f9b57610100808354040283529160200191610fc6565b820191906000526020600020905b815481529060010190602001808311610fa957829003601f168201915b5050838103825284818151815260200191508051906020019080838360005b83811015611000578082015181840152602081019050610fe5565b50505050905090810190601f16801561102d5780820380516001836020036101000a031916815260200191505b509550505050505060405180910390a15050565b60035481565b60008060003373ffffffffffffffffffffffffffffffffffffffff16600760009054906101000a900473ffffffffffffffffffffffffffffffffffffffff1673ffffffffffffffffffffffffffffffffffffffff16141515611111576040517f08c379a00000000000000000000000000000000000000000000000000000000081526004018080602001828103825260158152602001807f466f722063726561746f722075736573206f6e6c79000000000000000000000081525060200191505060405180910390fd5b60016000806101000a81548160ff0219169083151502179055507f199da8d221e10d3a248929c1e24b33b5d12dd5d2f7fe417a0e6d2aa70e82844860016005426040518080602001806020018481526020018381038352868181546001816001161561010002031660029004815260200191508054600181600116156101000203166002900480156111e45780601f106111b9576101008083540402835291602001916111e4565b820191906000526020600020905b8154815290600101906020018083116111c757829003601f168201915b50508381038252858181546001816001161561010002031660029004815260200191508054600181600116156101000203166002900480156112675780601f1061123c57610100808354040283529160200191611267565b820191906000526020600020905b81548152906001019060200180831161124a57829003601f168201915b50509550505050505060405180910390a1600090505b6009805490508110156112e6578260098281548110151561129a57fe5b90600052602060002090600302016001015411156112d9576009818154811015156112c157fe5b90600052602060002090600302016001015492508091505b808060010191505061127d565b6009828154811015156112f557fe5b906000526020600020906003020160000160059080546001816001161561010002031660029004611327929190611404565b50505050565b60068181548110151561133c57fe5b906000526020600020016000915054906101000a900473ffffffffffffffffffffffffffffffffffffffff1681565b60045481565b600080823b905060008111915050919050565b828054600181600116156101000203166002900490600052602060002090601f016020900481019282601f106113c557805160ff19168380011785556113f3565b828001600101855582156113f3579182015b828111156113f25782518255916020019190600101906113d7565b5b509050611400919061148b565b5090565b828054600181600116156101000203166002900490600052602060002090601f016020900481019282601f1061143d578054855561147a565b8280016001018555821561147a57600052602060002091601f016020900482015b8281111561147957825482559160010191906001019061145e565b5b509050611487919061148b565b5090565b6114ad91905b808211156114a9576000816000905550600101611491565b5090565b905600a165627a7a72305820eeb37509c6cab6cbcd6f69272125bf7f8be5d64af7910a03948eb48ec9b7d5050029",
  "source": "pragma solidity ^0.4.24;\n\ncontract Quiz_Person_Limited {\n\n//ГЛОБАЛЬНЫЕ ПЕРЕМЕННЫЕ\n\n\tbool public FINISHED;\t\t// Shows whether the quiz is opened/closed;\n\tstring public TITLE; \n    uint256 public beginTime;\t//\tQuiz start time (block timestamp at the start)\n    uint256 public REWARD;\t\t//\tDynamically calculated reward based on PARTICIPANTS.length\n    uint256 public MAX_USERS;\t//  Maximal quiantity of users specified by creator\t\n\n    string public WINNING_OPTION;      //  Текст варианта, набравшего наибольшее количество голосов\n\n    address[] public PARTICIPANTS;\n\n    //\tСтруктура пользователя: голосовал ли ранее (да/нет), эл.почта, выбранный вариант ответа (номер)\n\tstruct User {\t\n\t    bool already;\n\t\tstring email;\n\t\tuint256 choice;\n\t}\n\n\t//\tСтруктура варианта ответа (опции): текстовое описание, число проголосовавших \"За\"\n\tstruct Option {\n\t\tstring text;\n\t\tuint256 totalVotes;\n\t\tbool descripted;\n\t}\n\n\t//\tАдрес создателя опроса в сети Ethereum \n\t//\t(определяется непосредственно при создании контракта опроса)\n\taddress public creator;\n\n\t// Соответствие между адресами в сети Ethereum и Пользователями опроса\n\tmapping (address => User) users;\n\n\t//\tМассив вариантов ответа\n\tOption[] public options;\n\n//ФУНКЦИОНАЛЬНАЯ ЧАСТЬ\n\n\t//\tКлассический модификатор проверки исполнителя функции:\n\t//\tСерия выплат может быть инициирована только с контракта создателя опроса\n\tmodifier isCreator() {\n\t\trequire(creator == msg.sender, \"For creator uses only\");\n\t\t_;\n\t}\n\n\t//\tМодификатор функции, проверяющий, проходит ли опрос до сих пор\n\tmodifier still_on() {\n\t    require(address(this).balance > REWARD && !FINISHED, \"Quiz is over\");\n\t    _;\n\t}\n\t\n\t//\tМодификатор проверки двойного голосования: \n\t//\tпользователь может обратиться к throwVote лишь один раз\n\tmodifier no_double_vote() {\n\t    User storage u = users[msg.sender];\n\t    require(!u.already, \"Can`t vote twice\");\n\t    _;\n\t}\n\n\tmodifier contract_has_funds() {\n\t\trequire(address(this).balance > 0);\n\t\t_;\n\t}\n\n\t//\tМодификатор проверки адреса на наличие исполняемого кода:\n\t//\tНельзя допустить попадания в список участников АККАУНТОВ-КОНТРАКТОВ,\n\t//\tпоскольку именно при помощи последних могут быть произведены попытки взлома\n\tmodifier not_contract() {\n\t\trequire(!isContract(msg.sender), \"Contract injection detected\");\n\t\t_;\n\t}\n\t\n\t//\tКонструктор контракта, создающий опрос с определенным количеством варианта\n\tconstructor(\n\t\tstring _title, \n\t\tuint256 _options,\n\t\tuint256 _maxUsers, \n\t\tuint256 _reward\n\t\t) \n\tpublic\n\tpayable \n\t{\n\t    require(!isContract(msg.sender));\n\t    beginTime = now;\n\t    creator = msg.sender;\n\t    TITLE = _title;\n\t    REWARD = _reward;\n\t    MAX_USERS = _maxUsers;\n\n\t    for (uint256 i = 0; i < _options; i++) {\n\t        options.push(Option({\n\t            text: '',\n\t            totalVotes: 0,\n\t            descripted: false\n\t        }));\n\t    }\n\n\t    emit Quiz_Created(TITLE, creator, beginTime, MAX_USERS);\t\n\t}\n\t\n\t//\tFallback-функция, отвечающая за прием средств контракта\n\tfunction() public payable isCreator {\n        require(msg.value > 0, \"Deposit must be greater than zero\");\n\t}\n\t\n\t//\tФункция отправки голоса за определенный вариант (номер)\n\tfunction throwVote(uint256 _choice) \n\tpublic\n\tpayable\n\tnot_contract\n\tstill_on\n\tno_double_vote\n\tcontract_has_funds\n\t{\n\t\trequire(creator != msg.sender, \"Creator can`t throw votes!\");\n\t\trequire(PARTICIPANTS.length < MAX_USERS, \"Maximum users cap reached\");\n\t\trequire(options[_choice].descripted, \"Option must be descripted firsty!\");\n\t\tUser storage u = users[msg.sender];\n\t\tPARTICIPANTS.push(msg.sender);\n\t    u.already = true;\n\t    options[_choice].totalVotes += 1;\n\t    u.choice = _choice;\n\t    msg.sender.transfer(REWARD);\n\t}\n\n\tfunction finish() isCreator public {\n\t\tFINISHED = true;\n\t\temit Quiz_Finished(TITLE, WINNING_OPTION, now);\n\t\tuint256 max;\n\t    uint256 winner;\n\t    for (uint256 i = 0; i < options.length; i++) {\n\t        if (options[i].totalVotes > max) {\n\t            max = options[i].totalVotes;\n\t            winner = i;\n\t        }\n\t    }\n\t    WINNING_OPTION = options[winner].text;\n\t}\n\t\n\t//\tВспомогательная функция описания вариантов ответов (номер -> описание)\n\t//\t(Нужна ввиду отсутствия поддержки многомерных динамических массивов в Solidity,\n\t//\tкоим и является массив строк)\n\tfunction assignDescription(uint256 _no, string memory _text) \n\tpublic \n\tisCreator \n\t{\n\t    options[_no].text = _text;\n\t    options[_no].descripted = true;\n\t    emit Option_Assigned(TITLE, _no, _text);\n\t}\n\n\t//\tФункция проверки адреса, используемая в модификаторе \"not_contract()\":\n\t//\tЕсли объем исполняемого кода адреса больше нуля, значит отправитель - контракт (жулик)\n\tfunction isContract(address addr) private view returns (bool) {\n  \t\tuint size;\n  \t\tassembly \n  \t\t{ \n  \t\t\tsize := extcodesize(addr)\n  \t\t}\n  \t\treturn size > 0;\n\t}\n\n\tevent Quiz_Created(string _title, address _creator, uint256 _timestamp, uint256 _duration);\n\tevent Option_Assigned(string _quizTitle, uint256 _no, string _text);\n\tevent Payout(string _quizTitle, uint256 _amount, address[] _participants);\n\tevent Quiz_Finished(string _title, string _winningOption, uint256 timestamp);\n}\n",
  "sourcePath": "/home/vlatt/Рабочий стол/work/contracts/Quiz_Person_Limited.sol",
  "compiler": {
    "name": "solc",
    "version": "0.4.24+commit.e67f0147.Emscripten.clang"
  },
  "schemaVersion": "3.0.1",
  "updatedAt": "2019-02-04T08:42:55.052Z",
  "devdoc": {
    "methods": {}
  },
  "userdoc": {
    "methods": {}
  }
}